:020000040000FA
:10000000F8210020050500000D0500000F05000087
:100010001105000013050000150500000000000098
:1000200000000000000000000000000017050000B4
:1000300019050000000000001B0500001D05000060
:100040001F0500001F050000611C0000091A0000C8
:100050001F0500001F0500001F0500001F05000010
:100060001F0500001F0500001F0500001F05000000
:100070001F0500001F0500001F0500001F050000F0
:100080001F0500001F0500001F0500001F050000E0
:100090001F0500001F0500001F0500001F050000D0
:1000A0001F0500001F0500001F0500001F050000C0
:1000B0001F0500001F0500000000000000000000F8
:1000C0001F0500001F0500001F0500001F050000A0
:1000D0001F0500001F0500001F05000000000000B4
:1000E0000000000000000000000000000000000010
:1000F0000000000000000000000000000000000000
:1001000000000000000000000000000000000000EF
:1001100000000000000000000000000000000000DF
:10040000DFF80CD000F064FB00480047E92E000044
:10041000F8210020401E00BF00BF00BF00BF00BF8A
:1004200000BF00BF00BF00BF00BF00BF00BF00BFD4
:1004300000BF00BF00BF00BF00BF00BF00BF00BFC4
:1004400000BF00BF00BF00BF00BF00BF00BF00BFB4
:1004500000BF00BF00BF00BF00BF00BF00BF00BFA4
:1004600000BF00BF00BF00BF00BF00BF00BF00BF94
:1004700000BF00BF00BF00BF00BF00BF00BF00BF84
:1004800000BF00BF00BFC5D170470000401E00BFC5
:1004900000BF00BF00BF00BF00BF00BF00BF00BF64
:1004A00000BF00BF00BF00BF00BF00BF00BF00BF54
:1004B00000BF00BF00BF00BF00BF00BF00BF00BF44
:1004C00000BF00BF00BF00BF00BF00BF00BF00BF34
:1004D00000BF00BF00BF00BF00BF00BF00BF00BF24
:1004E00000BF00BF00BF00BF00BF00BF00BF00BF14
:1004F00000BF00BF00BF00BF00BF00BF00BFC5D12D
:10050000704700000648804706480047FEE7FEE7C0
:10051000FEE7FEE7FEE7FEE7FEE7FEE7FEE7FEE7B3
:100520002D1A00000104000040EA01039B0703D0DC
:1005300009E008C9121F08C0042AFAD203E011F822
:10054000013B00F8013B521EF9D270472DE9FE4FE6
:1005500081EA030404F0004421F0004100944FF0CC
:10056000000B23F0004350EA01045ED052EA03047A
:100570005BD0C3F30A54C1F30A552C44A4F2F334FC
:100580000194A0FB0254C1F3130141F48011C3F3A1
:10059000130343F4801301FB024400FB034E840A5F
:1005A000970A44EA815447EA8357A4FB07680295F7
:1005B0008D0A05FB07854FEA932C04FB0C54270595
:1005C000029D4FEA065847EA1637B5EB08056EEB71
:1005D000070C870E920E47EA811742EA8312A7FBA7
:1005E0000201B6EB0B0164EB00042B0D43EA0C3364
:1005F0005E1844EB1C50DA465146E7FB0201C5F396
:1006000013044FEA0B3343EA14534FEA0432019CBC
:1006100043EA0603A4F10C040294009CCDE900B463
:1006200000F031F903B0BDE8F08F00200146F9E792
:100630002DE9F04D81EA030404F0004B21F0004560
:1006400014464FF0000A23F0004150EA050220D082
:1006500054EA01021DD0C5F30A570246C5F313033D
:10066000C1F31300C1F30A5640F4801543F480131C
:10067000A7EB0608101BD64608F2FD3873EB050001
:1006800002D308F1010801E092185B41B8F1000FB4
:1006900003DA00200146BDE8F08D00204FF4801100
:1006A000064684460EE0171B73EB050705D3121BA5
:1006B00063EB050306434CEA010C49084FEA30009E
:1006C00092185B4150EA0107EDD152EA030012D0C3
:1006D00082EA040083EA0501084305D0101BAB4100
:1006E00006D20122002306E000224FF0004302E080
:1006F0006FF0010253101AEB06004CEB085110EB9F
:100700000A0041EB0B01BDE8F04D00F0ADB800F080
:10071000004230F000400AD0C10D01F56071C0F315
:10072000160042EA0151C2084007114370470020F9
:100730000146704701F0004330B421F0004150EA17
:10074000010206D00A0DA2F56072C1F31301002A5E
:1007500002DC30BC00207047440F44EAC104C100F1
:10076000E01830BC00EBC25000F047B830B50B4683
:10077000014600202022012409E021FA02F59D42D1
:1007800005D303FA02F5491B04FA02F52844151EA5
:10079000A2F10102F1DC30BD2DE9F05F0546002039
:1007A00092469B4688460646814640241BE02846E2
:1007B00041464746224600F0ACF953465A46C01A15
:1007C000914110D311461846224600F093F92D1A94
:1007D00067EB01084F4622460120002100F08AF90C
:1007E00017EB00094E41201EA4F10104DFDC48464E
:1007F00031462A464346BDE8F09F0029A8BF70470E
:10080000401C490008BF20F00100704710B4B0FA46
:1008100080FC00FA0CF050EA010404BF10BC7047E1
:1008200049B1CCF1200421FA04F411FA0CF118BFFB
:10083000012121430843A3EB0C01CB1D4FEA0061CA
:100840004FEA102042BF002010BC704700EBC3509D
:1008500010440029A4BF10BC7047401C490008BFC9
:1008600020F0010010BC704710B5141E73F1000495
:1008700008DA401C41F1000192185B411A4301D192
:1008800020F0010010BD2DE9F04D92469B4611B1BC
:10089000B1FA81F202E0B0FA80F22032904600F024
:1008A00029F904460F4640EA0A0041EA0B01534683
:1008B0005A46084313D0114653EA010019D0C8F133
:1008C0004002504600F025F905460E46504659466E
:1008D000424600F00FF9084305D0012004E020460D
:1008E0003946BDE8F08D0020054346EAE0762C430A
:1008F00037430A986305E40AA0EB08000022FD0ACA
:1009000044EA47540A3002D500200146E9E70105D0
:1009100010196941DDE9084500196941BDE8F04D4C
:10092000A2E72DE9FE4F804681EA0300C00F0C4686
:10093000009021F0004123F00045B8EB0200A941EE
:1009400005D24046214690461C460B46024623F0FF
:100950000040104347D0270DC7F30A00C3F30A51E4
:100960000290401A019040286BDAC3F3130040F460
:10097000801B0098924620B10023D2EB030A63EB60
:100980000B0B01985946C0F14002504600F0B2F8F6
:1009900006460D4650465946019A00F0CAF810EB3B
:1009A00008006141002487EA115284EAE7731A4380
:1009B00040D0009A62B3019A012A4FEA075215DC2F
:1009C000001B61EB02014FF0004202EA0752CDE941
:1009D0000042001C41F5801132462B46FFF753FFC1
:1009E00003B0BDE8F08F40462146F9E7001B61EBFC
:1009F0000201001C41F5801300185B412018A2F58C
:100A0000001747EB030140EAD570B6196D4111E0BC
:100A10006D084FEA360645EAC0754FEA0752001BDB
:100A200061EB0201001C41F5801149084FEA3000DA
:100A30000019514132462B4603B0BDE8F04FFFF795
:100A400013BF0098012240000023D0EB020263EBA9
:100A5000E073009821464FEAE074B8EB000061EBC8
:100A60000401E9E783F000435BE781F0004158E7C8
:100A7000C1F30A52C1F3130140F2FF3341F4801174
:100A80009A4202DA00200146704740F233439A420C
:100A9000A2F2334202DC524200F03BB800F02AB826
:100AA00030B5041E71F1000404DB4FF000444042F5
:100AB00064EB0101141E73F1000405DB1C464FF0CA
:100AC0000043524263EB0403994208BF904230BD99
:100AD000064C074D06E0E06840F0010394E807008B
:100AE00098471034AC42F6D3FFF78EFCC84800009C
:100AF000E8480000202A04DB203A00FA02F1002036
:100B000070479140C2F1200320FA03F3194390404B
:100B10007047202A04DB203A21FA02F000217047B6
:100B200021FA02F3D040C2F1200291400843194655
:100B30007047202A06DBCB17203A41FA02F043EA3D
:100B4000E07306E041FA02F3D040C2F12002914086
:100B50000843194670470EB590ED030A20EE000ACF
:100B6000F0EE401A90ED030AD0ED040A20EE200AC0
:100B7000B0EE402A90ED030AD0ED050A20EE200ADF
:100B8000F0EE402A90ED030AD0ED060A20EE200A8E
:100B9000B0EE403A90ED040AD0ED050A20EE200AAE
:100BA000F0EE403A90ED040AD0ED060A20EE200A5D
:100BB000B0EE404A90ED050AD0ED060A20EE200A7C
:100BC000F0EE404AB6EE000A31EEC00AD0ED040A5B
:100BD00090ED041A00EE810AD0ED070A20EE200AFB
:100BE00073EEC30A90ED081A00EE810A74EE220A31
:100BF00090ED091A00EE810AF0EE000A20EE200ABC
:100C00008DED000A33EE830AD0ED070A20EE200AAC
:100C1000F6EE000A71EEE00A90ED051A90ED055A25
:100C200041EE050A90ED081A00EE810A74EEC20A40
:100C300090ED091A00EE810AF0EE000A20EE200A7B
:100C40008DED010A34EE620AD0ED070A20EE200A8B
:100C500074EE820A90ED081A00EE810AF6EE000AA0
:100C600071EEE00A90ED061A90ED065A41EE050A83
:100C700090ED091A00EE810AF0EE000A20EE200A3B
:100C80008DED020A9DED000ADDED010A9DED021ACF
:100C90000EBD000010B587B080ED000A60EEA01A0E
:100CA000C0ED011A61EE011AC0ED021A0E4CD4E932
:100CB0000023D4E90214CDE90514CDE9032303A9E7
:100CC0001EC90C301EC01C380021009101910291F8
:100CD0009DE80E00C0E90823C161F7EE001AC0EDDF
:100CE0000A1A07B010BD00004C48000011B52DEDE8
:100CF0000A0BAAB0002127912891299127A90EC992
:100D000024AC0EC400BF9DED2D0AB5EEC00AF1EE75
:100D100010FA0ED19DED2E0AB5EEC00AF1EE10FAD2
:100D200007D19DED2F0AB5EEC00AF1EE10FA00D101
:100D300015E290ED040A90ED061A20EE010A90EDFE
:100D4000031AD0ED051A01EE610A8DED1B0A90ED34
:100D5000030A90ED041A20EE010A90ED051AD0ED79
:100D6000061A01EE210A8DED1C0A90ED031AD0ED52
:100D7000031AB6EE000A11EE210A90ED061AD0ED24
:100D8000061A01EE210A8DED1D0A2DAA1CCA0FA913
:100D90001CC19DED0F0A20EE000ADDED102A9DED2D
:100DA000103A02EE830ADDED112A9DED113AB0EE04
:100DB000401A02EE831AB6EE003A21EE033AF0EE44
:100DC000432AB0EE410A10EE101AFE4AA2EB61016E
:100DD00000EE101A62EE803AB7EE083A03EEC03A1F
:100DE00023EE003AB0EE430A00BFF0EE401A0FA91E
:100DF0000EC9B0EE610A09AC0EC49DED091A21EED0
:100E0000001A8DED061A9DED0A1A21EE001A8DEDDD
:100E1000071A9DED0B1A21EE001A8DED081A9DEDB3
:100E2000061ADDED072A9DED083A8DED0C1ACDED81
:100E30000D2A8DED0E3A9DED0C0A9DED0D1ADDED9E
:100E40000E2A8DED120A8DED131ACDED142A1BA971
:100E50000EC915AC0EC49DED130A9DED171A20EEB8
:100E6000010A9DED141ADDED161A01EE610A8DEDF1
:100E70000F0A9DED140A9DED151A20EE010A9DED55
:100E8000121ADDED171A01EE610A8DED100A9DEDC3
:100E9000120A9DED161A20EE010A9DED131ADDEDE2
:100EA000151A01EE610A8DED110A9DED0F0A9DEDF7
:100EB000101ADDED111A8DED240A8DED251ACDEDF8
:100EC000261A9DED300A20EE000A9DED311ADDED67
:100ED000311A01EE210A9DED321ADDED321AB0EE23
:100EE000402A01EE212A90ED010AB4EEC20AF1EE89
:100EF00010FA06DC90ED020AB4EEC20AF1EE10FA26
:100F000000D22CE190ED040A90ED051A20EE010AC2
:100F100090ED031AD0ED061A01EE210A8DED180AA4
:100F200090ED031AD0ED031AB6EE000A11EE210A75
:100F300090ED051AD0ED051A01EE210A8DED190A82
:100F400090ED050A90ED061A20EE010A90ED031AC5
:100F5000D0ED041A01EE610A8DED1A0A24A90EC91A
:100F600012AC0EC42DAA1CCA03A91CC1DDE9302392
:100F70003299CDE9062308919DED040A9DED081AEA
:100F800020EE010A9DED051ADDED071A01EE610A5A
:100F90008DED000A9DED050A9DED061A20EE010A71
:100FA0009DED031ADDED081A01EE610A8DED010ACF
:100FB0009DED030A9DED071A20EE010A9DED041A2E
:100FC000DDED061A01EE610A8DED020A9DED000AC3
:100FD0009DED011ADDED021A8DED090A8DED0A1A5B
:100FE000CDED0B1A9DED090A20EE000ADDED0A2A6F
:100FF0009DED0A3A02EE830ADDED0B2A9DED0B3AD8
:10100000B0EE401A02EE831AB6EE003A21EE033A31
:10101000F0EE432AB0EE410A10EE101A694AA2EB34
:10102000610100EE101A62EE803AB7EE083A03EE64
:10103000C03A23EE003AB0EE430A00BFF0EE401A89
:1010400009A90EC9B0EE610A03AC0EC49DED031AE6
:1010500021EE001A8DED001A9DED041A21EE001A02
:101060008DED011A9DED051A21EE001A8DED021A83
:101070009DED001ADDED012A9DED023A8DED061A77
:10108000CDED072A8DED083A9DED060A9DED071A74
:10109000DDED082A8DED0C0A8DED0D1ACDED0E2A31
:1010A00018A90EC90FAC0EC49DED0D0A9DED111AC5
:1010B00020EE010A9DED0E1ADDED101A01EE610A17
:1010C0008DED090A9DED0E0A9DED0F1A20EE010A25
:1010D0009DED0C1ADDED111A01EE610A8DED0A0A83
:1010E0009DED0C0A9DED101A20EE010A9DED0D1AE2
:1010F000DDED0F1A01EE610A8DED0B0A9DED090A77
:101100009DED0A1ADDED0B1A8DED150A8DED161AFF
:10111000CDED171A9DED120A9DED151A30EE010A5C
:101120008DED0F0A9DED130A9DED161A30EE010AA2
:101130008DED100A9DED140A9DED171A30EE010A8F
:101140008DED110A9DED0F0A9DED101ADDED111ABE
:101150008DED240A8DED251ACDED261A00BF00BFB6
:1011600090ED000AB5EEC00AF1EE10FA03D19FED42
:10117000160A80ED0A0AD0ED000A90ED0A0A90EDF9
:10118000001AB4EEC10AF1EE10FA15DD90ED000A76
:10119000B7EE001A31EE400A20EE241AF7EE001ADC
:1011A00081EE210A90ED0A1A31EE400A80ED0A0A1A
:1011B00090ED0A0AF0EE400A2AAA1CCA9FED030A23
:1011C0001BA905E0DF59375F0000000035FA0E3C2F
:1011D0001CC19DED1B1A21EE001A8DED181A9DED14
:1011E0001C1A21EE001A8DED191A9DED1D1A21EE23
:1011F000001A8DED1A1A9DED181ADDED191A9DEDE4
:101200001A2A8DED211ACDED221A8DED232A21A95E
:101210000EC918AC0EC424A90EC915AC0EC49DEDA0
:10122000150A20EE200A8DED120A9DED160A20EE19
:10123000200A8DED130A9DED170A20EE200A8DED90
:10124000140A9DED120A9DED131ADDED141A8DEDB1
:101250001B0A8DED1C1ACDED1D1A9DED180A9DED92
:101260001B1A30EE010A8DED150A9DED190A9DED50
:101270001C1A30EE010A8DED160A9DED1A0A9DED3D
:101280001D1A30EE010A8DED170A9DED150A9DED30
:10129000161ADDED171A8DED210A8DED221ACDED0E
:1012A000231AD0E90524D0E90331CDE91824CDE98A
:1012B0001631D0E90524D0E90331CDE91124CDE977
:1012C0000F3121A90EC90CAC0EC49DED0C0A20EE05
:1012D000240A8DED090A9DED0D0A20EE240A8DEDFC
:1012E0000A0A9DED0E0A20EE240A8DED0B0A9DEDF3
:1012F000090A9DED0A1ADDED0B1A8DED130A8DED2D
:10130000141ACDED151A9DED100AB1EE400A9DEDAF
:10131000131A20EE010A9DED111ADDED141A01EEEB
:10132000610A9DED121ADDED151A01EE610A8DEDCF
:101330000B0A9DED0F0A9DED131A20EE010A9DED9B
:10134000111ADDED151A01EE210A9DED121ADDEDDF
:10135000141A01EE610A8DED0C0A9DED0F0A9DED48
:10136000141A20EE010A9DED101ADDED151A01EE9A
:10137000610A9DED121ADDED131A01EE210A8DEDC1
:101380000D0A9DED0F0A9DED151A20EE010A9DED47
:10139000101ADDED141A01EE210A9DED111ADDED92
:1013A000131A01EE610A8DED0E0A9DED0B0A9DEDFB
:1013B0000C1ADDED0D1A9DED0E2A8DED1A0A8DED3C
:1013C0001B1ACDED1C1A8DED1D2A9DED160A9DED03
:1013D0001A1A30EE010A8DED120A9DED170A9DEDE5
:1013E0001B1A30EE010A8DED130A9DED180A9DEDD2
:1013F0001C1A30EE010A8DED140A9DED190A9DEDBF
:101400001D1A30EE010A8DED150A9DED120A9DEDB3
:10141000131ADDED141A9DED152A80ED030A80EDF7
:10142000041AC0ED051A80ED062A00F10C011EC950
:10143000CDE91C34CDE91A129DED1A0A20EE000AFE
:101440009DED1B2ADDED1B2A02EE220A9DED1C2AD2
:10145000DDED1C2A02EE220A9DED1D2ADDED1D2A7E
:10146000B0EE401A02EE221AF6EE002A61EE222AAF
:10147000B0EE622AB0EE410A10EE101A504AA2EB0A
:10148000610100EE101A22EE003AF7EE082A43EE50
:10149000402A62EE802AB0EE620A00BFF0EE401AE7
:1014A0009DED1A0A20EE210A8DED160A9DED1B0A0C
:1014B00020EE210A8DED170A9DED1C0A20EE210A6F
:1014C0008DED180A9DED1D0A20EE210A8DED190AF9
:1014D0009DED160A9DED171A9DED182ADDED192ACE
:1014E00080ED030A80ED041A80ED052AC0ED062A7E
:1014F00090ED040A90ED061A20EE010A90ED031A11
:10150000D0ED051A01EE610AB0EE001A20EE010AD4
:101510008DED1E0A90ED030A90ED041A20EE010AEB
:1015200090ED051AD0ED061A01EE210AB0EE001A70
:1015300020EE010A8DED1F0A90ED031AD0ED031A7B
:10154000B6EE000A11EE210A90ED061AD0ED061A49
:1015500001EE210AB0EE001A20EE010A8DED200AFC
:10156000DDE92D232F99CDE918231A911EA90EC963
:101570001BAC0EC49DED180A9DED1B1A30EE410AFE
:101580008DED150A9DED190A9DED1C1A30EE410AEC
:101590008DED160A9DED1A0A9DED1D1A30EE410AD9
:1015A0008DED170A9DED150A9DED161ADDED171A42
:1015B00080ED070A80ED081AC0ED091A35B010BD9C
:1015C000DF59375F1EB5016080ED010ADFED060AC5
:1015D000C0ED020A00220092019202929DE81C00D6
:1015E000C0E90434C2601EBD00000000F0B52DED5E
:1015F000068B8FB004460D4616461F462068A8424B
:1016000011DB20684042A8420DDC2068B0420ADBB2
:1016100020684042B04206DC2068B84203DB206804
:101620004042B84204DD9FED5E0A84ED020AB2E05A
:1016300094ED020AF7EE000AB4EEE00AF1EE10FAB9
:101640007DDB00EE105AB8EEC00A8DED0C0A00EEFC
:10165000106AB8EEC00A8DED0D0A00EE107AB8EEF1
:10166000C00A8DED0E0A0CA807C806AB07C3D4E963
:101670000412E06809AB07C39DED060ADDED090A17
:1016800030EE600A8DED030A9DED070ADDED0A0AD2
:1016900030EE600A8DED040A9DED080ADDED0B0ABF
:1016A00030EE600A8DED050A9DED030ADDED040ABA
:1016B0009DED051A8DED0C0ACDED0D0A8DED0E1A7E
:1016C000D4E90412E06806AB07C30CA807C803AB53
:1016D00007C394ED010A10EE101A0846FFF717F839
:1016E00041EC1A0B9FED2F0B53EC102BFEF72EFF46
:1016F00041EC190BFFF71EF808EE100A9DED030AE6
:1017000020EE080A8DED000A9DED040A20EE080A7D
:101710008DED010A9DED050A20EE080A8DED020A05
:101720009DED000ADDED010A9DED021A8DED090A1D
:10173000CDED0A0A8DED0B1A9DED060A00E022E0C0
:10174000DDED090A30EE200A8DED030A9DED070A52
:10175000DDED0A0A30EE200A8DED040A9DED080A3F
:10176000DDED0B0A30EE200A8DED050A9DED030A32
:10177000DDED040A9DED051A84ED030AC4ED040AAB
:1017800084ED051A07E094ED020AD4ED010A30EE6B
:10179000200A84ED020A0FB0BDEC068BF0BD0000FC
:1017A0000000000043FF0E8CBF15C03F30B52DED8B
:1017B000048B87B005A801F0A1FD044600BF2546B3
:1017C00035B100BF79A28121284601F0C3F800BFDE
:1017D00000BFBDF8180079490880BDF816007849A7
:1017E0000880BDF814007749088003A801F0A0FD27
:1017F000044600BF254635B100BF6CA289212846AA
:1018000001F0A8F800BF00BFBDF810006E490880C5
:10181000BDF80E006D490880BDF80C006C490880C9
:10182000002101A801F09EFD044600BF254635B108
:1018300000BF5EA29121284601F08CF800BF00BFD6
:10184000BDF9040000EE100AB8EEC00A614880ED50
:10185000000ABDF9060000EE100AB8EEC00A5E48A4
:1018600080ED000ABDF9080000EE100AB8EEC00ACB
:101870005A4880ED000A5148B0F9000000EE100A05
:10188000B8EEC00A10EE100AFEF741FF41EC190B4A
:101890009FED530B53EC102BFEF7CAFE41EC180BD7
:1018A000FEF748FF504908604548B0F9000000EED7
:1018B000100AB8EEC00A10EE100AFEF728FF41EC3D
:1018C000190B9FED470B53EC102BFEF7B1FE41ECCB
:1018D000180BFEF72FFF454908603A48B0F90000A1
:1018E00000EE100AB8EEC00A10EE100AFEF70FFF65
:1018F00041EC190B9FED3A0B53EC102BFEF798FEC1
:1019000041EC180BFEF716FF394908602E48B0F974
:10191000000000EE100AB8EEC00A10EE100AFEF742
:10192000F6FE41EC190B9FED330B53EC102BFEF739
:101930007FFE41EC180BFEF7FDFE3049086023489E
:10194000B0F9000000EE100AB8EEC00A10EE100A5E
:10195000FEF7DDFE41EC190B9FED260B53EC102B2F
:10196000FEF766FE41EC180BFEF7E4FE2449086022
:101970001748B0F9000000EE100AB8EEC00A10EEE9
:10198000100AFEF7C4FE41EC190B9FED1A0B53EC45
:10199000102BFEF74DFE41EC180BFEF7CBFE19495C
:1019A000086007B0BDEC048B30BD00002E2E5C2E0D
:1019B0002E5C2E2E5C6D61696E2E6300000000208F
:1019C0000200002004000020060000200800002083
:1019D0000A0000202C0000203000002034000020ED
:1019E000000000000000D04014000020180000207B
:1019F0001C000020FCA9F1D24D62404020000020D4
:101A0000240000202800002010B50249024801F0FF
:101A1000FDF910BD9001002000300040014802494E
:101A2000086070470090D0035800002010B501F006
:101A3000F1F810B17D487E49486701F003F928B1FB
:101A40007C480068C0F342307B49086001F024F90B
:101A500028B17A48006820F080707849086001F069
:101A600033F948B10020764908604FF08041C1F851
:101A700010017149091F086001F050F918B10320E5
:101A80006D496431086001F061F968B105206D4964
:101A9000086001206B4978310860002069490831ED
:101AA00008603F20091F086001F068F9002855D040
:101AB00065480068654908606348001D0068091DA5
:101AC0000860614808300068091D08605E480C30F5
:101AD0000068091D08605C4810300068091D086036
:101AE000594814300068091D0860574818300068CC
:101AF00056492031086054481C300068091D0860B0
:101B0000514820300068091D08604F4824300068A3
:101B1000091D08604C4828300068091D08604A48C3
:101B20002C300068091D086047483030006847497C
:101B300040310860444834300068091D086042485C
:101B400038300068091D08603F483C300068091DB6
:101B500008603D4840300068091D08603748743807
:101B6000006840F4700035497439086000BF00BF58
:101B700000BFBFF34F8F00BF00BF00BF00BF00BF5B
:101B800000BFBFF36F8F00BF00BF00BF30480068C9
:101B900000F0004030B92E48001D006800F0004001
:101BA000002840D001202B49086000BF2A48006867
:101BB0000028FBD015202649086000BF2648006891
:101BC0000028FBD015212248001D016000BF2248DB
:101BD00000680028FBD000201E49086000BF1E4896
:101BE00000680028FBD000BF00BF00BF00BF00BFDF
:101BF000BFF34F8F00BF00BF00BF1048F038006830
:101C000000F4E06015490843001D0C49F0390860F4
:101C100000BF00BF00BFBFF34F8F00BF00BF00BFBA
:101C200000BF00BFFDE7FFF7F9FE10BD0DF0ADBA34
:101C300000C00740440200103C050040FCED00E0FD
:101C40000C010040105600400404001020C5004064
:101C50000012001004E5014000E401400000FA0514
:101C600010B50448007F10B102F048FD01E002F019
:101C700095FC10BDB80100200FB4054B10B503A9A9
:101C8000044A029800F0B8FA10BC5DF814FB00009A
:101C9000FD2D0000500000204100080218BF042064
:101CA0000A0E18BF40F001004FF07F4232EA0101F6
:101CB00008BF40F00200012808BF0520704700005F
:101CC00010B54FF00E402DED028BB0EE408A18EEAD
:101CD000104A00EB4400B0F1506F4AD84FF0FC407E
:101CE000B0EB440F22D2B0EEC80AF7EE000A30EE95
:101CF000C00AF6EE000A60EE208A18EE900A02F0A2
:101D00001DF901EE100A14F0004F1DBFDFED2D0A82
:101D10009FED2D0AB1EE411ADFED2C0A08BF9FEDB1
:101D20002C0AF8EE001A21EE218A05E0DFED290ADF
:101D300068EE088AB0EE600A9FED271ADFED271AD9
:101D400030EE080A48EE811A9FED251A08EEA11A16
:101D5000DFED241A48EE811A9FED231A08EEA11A2E
:101D600068EE281ABDEC028B01EE810A30EE200AE3
:101D700010BD4FF0E440B0EB440F0CD918EE100A40
:101D8000FFF78AFF042808BF00F066F9B0EE480AA2
:101D9000BDEC028B10BD4FF07F40B0EB440F07D27B
:101DA000B0EE480ABDEC028BBDE8104000F046B929
:101DB000012000F069F9BDEC028BBDE8104000F095
:101DC00043B900000000C9BF22AAFDB90000C93F05
:101DD00022AAFD390000000024FE1C3DC78AD83C21
:101DE0001E67383D1B93993DAFAA2A3E10EE100A9C
:101DF00010B510EE901A4FF0684202EB40032DED43
:101E0000028BB3F1654F3CBF02EB4102B2F1654F6B
:101E10007CD200BFC0F3C753C1F3C7529A1A1B2A22
:101E200009DD10F0004F14BF9FED6E0A9FED6E0AA2
:101E3000BDEC028B10BD12F11A0F1BDA11F0004F2E
:101E400009D010F0004F0CBF9FED680A9FED680AA3
:101E5000BDEC028B10BD80EE208A18EE100AFFF751
:101E60001BFF042808BF00F0F7F8B0EE480ABDECED
:101E7000028B10BD4200B2EB410F37D910F0004F7A
:101E800019BFDFED5C1A9FED5C1ADFED5C1A9FED68
:101E90005C1AB0EE602A0A46F1EE400A80F000417A
:101EA000B0EE420A10460A1A5200B2F1807F34D2D4
:101EB000484010F0004FDFED532A9FED533A1DBF0D
:101EC000BEEE002A71EEE21A31EE431AB6EE002A97
:101ED00004BF71EEA21A31EE031AF0EE402A42EE70
:101EE000602A40EE020A82EEA02A18E011F0004FAC
:101EF00004BF9FED461AF0EE411AD4D010F0004F07
:101F00001CBFDFED431A9FED431A00E026E004BF3B
:101F1000DFED411A9FED411AC5E780EE202A22EE3F
:101F2000020ADFED3F0ADFED3F2ABDEC028B40EEF7
:101F3000202ADFED3D0A40EE220ADFED3C2A40EE8A
:101F4000202ADFED3B0A40EE220A22EE000A00EED4
:101F5000201A31EE020A30EE210A10BD4FF07F4206
:101F6000B2EB400F28BFB2EB410F05D2BDEC028BA4
:101F7000BDE8104000F065B840EA01035B0008BF0F
:101F800041F0FF410BD0B2EB400F08BFB2EB410F65
:101F900008D120F0804000EE100A21F0804100EED0
:101FA000901A37E7B2EB400F12BF5FEA410240F0F0
:101FB000FF4001F000413FF42DAF4A0092EA400398
:101FC0003FF528AF002AACBF9FED1A1A9FED1A1AF1
:101FD00020EE010A60EE810A10EE100A10EE901A4F
:101FE00018E70000DB0FC9BFDB0FC93FDB0F49401B
:101FF000DB0F49C00000C9BF22AAFDB90000C93FDC
:1020000022AAFD390060ED3EC30ACE370000000071
:10201000000049C022AA7DBA0000494022AA7D3AA8
:102020002DAD65BD8FB8D53D0FB511BE61C84C3E15
:10203000A8AAAABE0000804F0000802F30EE000A40
:10204000704730EE200A7047DFED020A80EEA00AEA
:1020500070470000000000009FED020A20EE000A19
:10206000704700000000001002E008C8121F08C1FD
:10207000002AFAD170477047002001E001C1121F09
:10208000002AFBD17047000001490860704700003A
:102090005C0000202DE9FF5FDDE90220010DDDF885
:1020A00038B0024318D044F61050A1F2FF3141433A
:1020B0000D140F98012820D0A5EB0B00401C5FEAFF
:1020C000000A4FF00004474EDFF81C91A04650462E
:1020D00016D5CAF1000728E00F98012443A2012871
:1020E00008D0002100980F9BC0E90021C0E90243FD
:1020F000BDE8FF9F6FEA0B01F4E7CBF10000DEE7DC
:10210000074612E0F80707D02246334640464946C4
:10211000FEF71CFA80468946224633461046194689
:10212000FEF714FA04460E467F10002FEAD1DDE9CF
:102130000201BAF1000F42464B4602DAFEF706FAF8
:1021400001E0FEF775FA04460E460022284BFEF722
:10215000A7FC03D84FF0FF30014607E00022254BD3
:1021600020463146FEF7DDFBFEF782FC102409E035
:10217000002C0ADB0A220023FEF70EFB019B303203
:102180001A55641E50EA0102F2D1641C019AC4F18E
:10219000110314440F9A012A03D0012208430DD1E0
:1021A0000AE0084304D000204FF0110B0F9080E7A5
:1021B000A3EB0B056D1E0DE05B4504DD4FF0000247
:1021C00005F1010504E003DA4FF00002A5F1010575
:1021D000002AECD000980F99C0E90231C0E900450F
:1021E00086E70000000024400000F03F30000000BF
:1021F0000000F0430000E03F2DE9FF4F95B09B4603
:102200008946064600250FE2252877D10024274677
:10221000F84A0121059400E0044316F8013F203BF1
:1022200001FA03F01042F7D130782A2811D06FF06C
:102230002F033078A0F13002092A16D8059A44F00D
:10224000020402EB820203EB42021044761C05906A
:10225000EFE759F8042B0592002A03DA504244F4C0
:102260000054059044F00204761C30782E2816D1D4
:1022700016F8010F44F004042A280DD06FF02F0245
:102280003078A0F13003092B09D807EB870302EB64
:102290004303C718761CF3E759F8047B761C3078A3
:1022A0006C280FD006DC4C2817D068280DD06A287F
:1022B00014D104E0742810D07A280FD10DE044F432
:1022C00000140AE044F4801401E044F440147278ED
:1022D000824202D104F58014761C761C3078662880
:1022E0000BD013DC582877D009DC002875D045289E
:1022F000F6D04628F4D047281AD19DE118E063288B
:1023000035D0642879D0652812D195E1702873D032
:1023100008DC6728F1D069286FD06E280DD06F28AF
:1023200006D1B5E073282CD0752875D0782874D0E4
:102330005A46179990476D1C75E1C4F30250022864
:1023400009D003280DD0D9F8001004280DD00D6055
:1023500009F1040967E1D9F80010EA17C1E9005250
:10236000F6E7D9F800100D80F2E70D70F0E719F8E4
:10237000041B8DF8001000208DF80100EA460120B2
:1023800003E059F804AB4FF0FF3061074FF0000154
:1023900002D40DE008F101018846B9420FDA804508
:1023A000F8DB1AF808100029F4D108E008F101015F
:1023B00088468142FADB1AF808100029F6D1059800
:1023C0005B46A0EB080721463846179A00F094FABE
:1023D000284400EB080507E04DE029E10DE01AF87C
:1023E000010B5A4617999047B8F10108F7D25B469E
:1023F00021463846179A13E142E00A220092C4F3BC
:1024000002524FF0000A022A08D059F804CB032ADE
:102410004FEAEC710AD00DE029E02AE009F107014A
:1024200021F00702F2E802C1914609E00FFA8CFCA4
:102430004FEAEC71042A03D14FFA8CFC4FEAEC719D
:10244000002907DA0A460021DCF1000C61EB0201E9
:102450002D2202E0220504D52B228DF80420012232
:1024600003E0E20701D02022F7E7904659E00A2175
:1024700002E010220DE010214FF0000A00910BE065
:1024800010224FF0000A44F004040827009203E0F1
:1024900008224FF0000A0092C4F30252022A05D02B
:1024A00059F804CB0021032A08D009E009F10701FB
:1024B00021F00702F2E802C1914605E01FFA8CFC08
:1024C000042A01D10CF0FF0C4FF00008220728D598
:1024D000702806D0009B83F0100353EA0A0305D04E
:1024E0000EE040228DF80420012208E05CEA01029F
:1024F00006D030228DF804208DF805000222904687
:10250000009B83F0080353EA0A030AD15CEA010244
:1025100001D1620705D530228DF804204FF0010863
:102520007F1E582804D034A003900EA802900DE01E
:1025300036A0F9E753466046009AFEF72DF9844627
:102540000398825C0298401E029002705CEA0100CF
:10255000F0D1029806A9081A00F1200A600702D5F6
:1025600024F4803400E00127574502DDA7EB0A0080
:1025700000E0002000EB0A01009005984144401A59
:102580000590E00306D45B462146179A059800F0B3
:10259000B3F90544002706E001A85A46C05D179923
:1025A00090476D1C7F1C4745F6DBE0030CD55B466E
:1025B0002146179A059800F09FF9054404E0302061
:1025C0005A46179990476D1C0099481E00900029A3
:1025D000F5DC08E0029802995A460078491C0291FD
:1025E000179990476D1CBAF10001AAF1010AF1DCBC
:1025F00065E10000092801003031323334353637C7
:10260000383961626364656600000000303132333E
:1026100034353637383941424344454600000000DE
:1026200000F058F90544761C307800287FF4ECADB2
:1026300019B02846BDE8F08F620700D4062709F1DB
:10264000070222F0070CFCE80223E14603F00048F1
:102650005FEA080C02D00FF2702C0DE05FEA045C18
:1026600002D50FF2682C07E05FEAC47C02D00FF2BB
:10267000602C01E0AFF2700C4FF0FF3823F0004304
:10268000CDF850C065280CD006DC452809D0462876
:102690001DD047283DD13DE0662818D067287ED15F
:1026A00038E00021112F01DB112000E0781CCDE97A
:1026B000000106A90EA8FFF7EDFCDDE90F010E9A57
:1026C00003910021009207F1010A04914DE04FF0BF
:1026D00000400097CDE9011006A90EA8FFF7DAFC2B
:1026E000DDE90F0203920E9B11990022DDF80CA088
:1026F0000093049211B9791C00EB010AB7EB0A00B0
:1027000004D4C0F1FF3007F1010A0490AAEB0700DE
:10271000019044E0012F00DA01270021112F01DD93
:10272000112000E03846CDE9000106A90EA8FFF708
:10273000B1FCDDE90F010E9A039100210491009292
:10274000BA4621070CD40399514500DA8A46BAF1FA
:10275000010F05DD009AAAF10101515C302908D072
:10276000B84202DA10F1040F06DA0121CDE90110B6
:1027700015E0AAF10101E9E7002805DC049901440C
:102780000491AAEB000102E0411C514500DD8A469C
:102790000499401A401C01904FF00040029020071D
:1027A00004D40198504501DBCDF8048000208DF859
:1027B0004F0002980DF14F07B0F1004F25D02B20AC
:1027C0000E9002984FF0020800280CDA4042029066
:1027D0002D200E9007E00A210298FDF7C7FF303147
:1027E000029007F8011DB8F10001A8F10108F2DC20
:1027F00002980028EFD1791E0E980870307800F00A
:10280000200040F0450007F8020D12A8C01B00F19F
:1028100007081498007800B1012000EB0A01019824
:1028200001EBE07105984144401A401E0590E00319
:1028300006D45B462146179A059800F05DF80544DA
:102840001498007818B15A46179990476D1CE00308
:1028500024D55B462146179A059800F04DF80544AB
:102860001CE00498002807DBDDE90301884203DD52
:102870000098405C179901E0179930205A4690471C
:10288000049805F10105401C04900198401E019038
:1028900004D12E205A46179990476D1CBAF10001B9
:1028A000AAF1010ADDDC05E017F8010B5A46179979
:1028B00090476D1CB8F10001A8F10108F4DC5B46FB
:1028C0002146179A0598ABE62D0000002B0000006A
:1028D000200000002DE9F041044600251E46174661
:1028E000880404D405E039462020B0476D1C641EDE
:1028F000F9D52846BDE8F0812DE9F04104460025D0
:102900001E469046C80301D5302700E020278804E2
:1029100004D505E041463846B0476D1C641EF9D524
:102920002846BDE8F081000070B504460D46164605
:1029300000BF4FF4F010064908600020091F08602E
:1029400000BF32462946204600F014F870BD000052
:102950000C050050FEB504460E461546B0B2ADF863
:102960000000019502946A46002144F20100FFF73D
:10297000DBFFFEBD18B5012300939DF800301B4B13
:10298000186059609A606FF48043034463B1012B6F
:1029900019D1164BDA60DB681B88144CA3612346FF
:1029A000DB685B68E3610EE0104B1A611B699B6892
:1029B0000E4C636123461B691B88A36123461B6978
:1029C0005B68E36100BF00BF084B1B68074B5B6897
:1029D000064B9B68054BDB68044B1B69034B5B692B
:1029E000024B9B69014BDB6918BD0000D801002038
:1029F00070B504460D46204600F0E9F928B1294695
:102A0000204600F0D3F9002070BD0520FCE7034606
:102A100009B90E20704712B1501E104008B10920AC
:102A2000F8E71960501E988000209860D86000BFB9
:102A3000F0E770B504460D46204600F0C8F9A188BD
:102A4000884205D82946204600F0CFF9002070BD05
:102A50000420FCE72DE9F04188B004460D461746F6
:102A60009846294807601DB9072008B0BDE8F081E5
:102A7000A88882B225482968FFF7C9FF064600BF2B
:102A80000EB13046F1E700BFA88982B22048A9689C
:102A9000FFF7BDFF064600BF0EB13046E5E700BFB9
:102AA00020221C496846FDF73FFDA068069020796A
:102AB00008B1012000E000208DF814008DF81C8082
:102AC000607908B10E2000E000208DF81500E07854
:102AD0000290A078039020780190607800900E49D1
:102AE000684600F0F3FE064600BF0EB13046BCE774
:102AF00000BF9DF81D0008B900F0B2FF0121074892
:102B000000F056FFB1E700004800002070010020EF
:102B1000800100206C480000994400004D00002016
:102B200070B5044621460A48FFF783FF054665B99C
:102B300001F0FCF848B907490548FFF759FF20B9EB
:102B40000121044801F050F80546284670BD0000F8
:102B5000800100204C00002010B50446206801F0E0
:102B60002BF9206801F00BF90021606801F0FAF8F8
:102B70002548007F18B3A0692449086000BF607D24
:102B8000217D40EA0102224BC3F86C2500BF1846A4
:102B9000D4E9001201F07EF9207D012832D1002114
:102BA000A06801F0DFF8E06801F006F9E06801F0E4
:102BB000E6F81748D4E9022101F058F922E0A069AB
:102BC0001249086000BF607D217D40EA0102104B80
:102BD000C3F86C2500BF1846D4E9001201F031F9A2
:102BE000207D01280ED10021A06801F0BBF8E0682B
:102BF00001F0E2F8E06801F0C2F80548D4E90221EA
:102C000001F008F910BD0000B801002024250040A3
:102C1000002000400A48007806280ED10848001D10
:102C2000007800F00F0040B905480830007800F047
:102C3000F000302801D1012070470020FCE700009F
:102C4000E00F00F013480078062820D11148001D3D
:102C5000007800F00F00D0B90E480830007800F07E
:102C6000F000302801D1012070470A480830007870
:102C700000F0F000402801D10120F5E705480830B8
:102C8000007800F0F000502801D10120ECE700208E
:102C9000EAE70000E00F00F00A48007806280ED1AD
:102CA0000848001D007800F00F0040B905480830C2
:102CB000007800F0F000302801D10120704700209A
:102CC000FCE70000E00F00F013480078062820D150
:102CD0001148001D007800F00F00D0B90E480830F0
:102CE000007800F0F000302801D1012070470A4838
:102CF0000830007800F0F000402801D10120F5E70D
:102D000005480830007800F0F000502801D101207B
:102D1000ECE70020EAE70000E00F00F00A48007846
:102D200006280ED10848001D007800F00F0040B9B9
:102D300005480830007800F0F000302801D101206B
:102D400070470020FCE70000E00F00F00A48007820
:102D500006280ED10848001D007800F00F0040B989
:102D600005480830007800F0F000302801D101203B
:102D700070470020FCE70000E00F00F00A480078F0
:102D800006280ED10848001D007800F00F0040B959
:102D900005480830007800F0F000502801D10120EB
:102DA00070470020FCE70000E00F00F070B504461B
:102DB0000D462A460021204600F00EF8A068401C6F
:102DC000A06070BD01468A68C868801A70470146D5
:102DD0008A68C868801A704710B583680B44848875
:102DE00023400468E35C137010BDC26883881A40F6
:102DF00003689954C268521CC260704770B504469B
:102E00000D46E0B2FFF78CFE204670BD7FB505464B
:102E10000C4694F8210094F82010CDE9001004F13C
:102E20002602D11E2846E36901F08BF900B17FBD6F
:102E300094F8230048BB207B022802D0207B032883
:102E400023D1E169206981421FD16069E061E07BA3
:102E500084F82000207EC0F3401084F82100207BFD
:102E600003280AD194F82100009094F820302946D4
:102E70002046E26901F0F6F933E094F82030294663
:102E80002046E26901F0E6F82BE0D4E90412E0689C
:102E900001AB07C394F82300A0B100BFD5F8C41458
:102EA000C5F8C41400BF084600F0020119B10121A1
:102EB0008DF8001005E000F0040111B102218DF839
:102EC000001002E000208DF80000002084F82400AB
:102ED000207E00F0040018B96846D4E9002190472C
:102EE00000BF00BFA3E700002DED068BACB001F0E2
:102EF0009DFA00F053FA00F0C4F99FEDBC1AF3EE0E
:102F0000040AB6EE000A18A8FDF7C4FE9FEDB80A41
:102F1000322112A8FEF756FBFEF748FC64E1B548E3
:102F200090ED000A8DED290AB34890ED000A8DED71
:102F30002A0AB24890ED000A8DED2B0AB04890EDB8
:102F4000000A8DED260AAF4890ED000A8DED270AA4
:102F5000AD4890ED000A8DED280AAC4890ED000ACE
:102F60008DED230AAA4890ED000A8DED240AA948A8
:102F700090ED000A8DED250ADFED9D4A9DED254A75
:102F8000DDED243A9DED233ADDED282A9DED272A3B
:102F9000DDED261A9DED2B1ADDED2A0A9DED290A9D
:102FA00018A8FDF7A3FE954890ED000ABDEEC00AF3
:102FB00010EE103A904890ED000ABDEEC00A10EEF7
:102FC000102A8C4890ED000ABDEEC00A10EE101ACF
:102FD00012A8FEF70BFB18A8FDF7BDFD8DED0F0A3B
:102FE000CDED100A8DED111A00BF1BA80FC8CDE959
:102FF0000623CDE904019DED040A8DED000A9DED47
:10300000050AFFEE000A20EE200A8DED010A9DED73
:10301000060AFFEE000A20EE200A8DED020A9DED61
:10302000070AFFEE000A20EE200A8DED030A9DED4F
:10303000000ADDED010A9DED021ADDED031A8DEDAA
:103040000B0ACDED0C0A8DED0D1ACDED0E1A0BA865
:103050000FC8CDE90623CDE90401DDED040A9DED9D
:10306000041AB6EE000A10EE810AB0EE408A9DED19
:10307000061ADDED071A21EE211ADDED041A9DED89
:10308000052A01EEC21AB0EE410ADDED071A9DEDE8
:10309000072AB0EE481A01EE821AF0EE410AFEF756
:1030A000A5FE10EE104A2046FDF731FB41EC1A0B4D
:1030B0009FED590B53EC102BFDF748FA41EC190B1F
:1030C000FDF738FB0190DDED050A9DED071A60EE76
:1030D000810A9DED041ADDED061A41EE210AB0EEDB
:1030E000001A60EE810AB0EE600AFEF7E9FDFFEE1D
:1030F000000A20EE200A10EE104A2046FDF707FBDA
:1031000041EC1A0B9FED440B53EC102BFDF71EFA0C
:1031100041EC190BFDF70EFB02909DED051ADDED5C
:10312000061A21EE211ADDED041A9DED072A01EEA3
:10313000C21AB0EE410ADDED051A9DED052AB0EE8A
:10314000481A01EE821AF0EE410AFEF74FFE10EE29
:10315000104A2046FDF7DBFA41EC1A0B9FED2E0BCF
:1031600053EC102BFDF7F2F941EC190BFDF7E2FAE5
:1031700003909DED010ADDED020A9DED031A8DED30
:10318000080ACDED090A8DED0A1A9DED080A2448BA
:1031900080ED000A9DED090A224880ED000A9DEDB0
:1031A0000A0A214880ED000A0068FDF7B0FA41ECF8
:1031B000180B1C480068FDF7AAFA41EC190B1848D7
:1031C0000068FDF7A4FA41EC1A0B8DED028B8DED32
:1031D000009B53EC1A2B15A0FEF74EFD052000F0C6
:1031E00029F9FEF7E3FA00BF99E6000000008C42DF
:1031F0000AD7233C200000202400002028000020C3
:1032000014000020180000201C0000202C000020CA
:103210003000002034000020F8C1631ADCA54C40C7
:10322000400000203C00002038000020526F6C6CF1
:103230003A20252E336620092050697463682025C2
:103240002E336620092059617720252E3366200908
:103250000D0A00002DE9F04104460D4616461F46B2
:1032600025703A463146601CFDF75EF9BDE8F081F5
:1032700070B50446254604222946192000F014FAA8
:1032800070BD70B500F01AF904460CB1204670BD4F
:1032900007252946682000F03DFA04460CB1204677
:1032A000F5E701216B2000F035FA04460CB1204609
:1032B000EDE70020EBE770B5044625462978372076
:1032C00000F028FA70BDF8B504460122694637209F
:1032D00000F052F905469DF8000020F00200801C25
:1032E00000906846FFF7E7FF05460DB12846F8BD98
:1032F000264631780A2000F0ADF9F8E77CB506469D
:10330000062269463B2000F037F905460DB12846F4
:103310007CBD3446002007E0C0F105011DF8011016
:103320002170641C411CC8B20628F5DB0020EFE7C1
:103330007CB5064606226946432000F01DF9054685
:103340000DB128467CBD3446002007E0C0F10501E0
:103350001DF801102170641C411CC8B20628F5DB61
:103360000020EFE7F8B504460D460622214603206B
:1033700000F0C0F806460EB13046F8BD35B901225E
:103380006946092000F0B6F8064605E00122294604
:10339000092000F0AFF806463046EEE77CB5FFF7AF
:1033A00070FF044600BF254635B100BF1DA259215C
:1033B0002846FFF7CFFA00BF00BF09208DF80400B0
:1033C0009DF8070020F018008DF807009DF8060012
:1033D00020F0180010308DF8060001A8FFF748FF14
:1033E000044600BF254635B100BF0EA26121284624
:1033F000FFF7B0FA00BF00BF9DF8000020F00F00FB
:10340000801D00906846FFF75EFF044600BF25461A
:1034100035B100BF03A268212846FFF79BFA00BF21
:1034200000BF7CBD2E2E5C2E2E5C2E2E5C6D616945
:103430006E2E630001B506E00098401E009040F239
:10344000E730FCF7E7FF00980028F5D108BD000041
:1034500070B50B4601461A46002907DA5407260EB6
:10346000104C01F00F052D1F665503E05407250E83
:103470000D4C655400BF00BF00F01F0201219140B8
:103480000A4A440942F8241000BF00BF00F01F029E
:10349000012191404209920002F1E022C2F800119C
:1034A00000BF70BD18ED00E000E400E080E200E045
:1034B0000146C1F3073250B2704700001FB50A4BF6
:1034C0000FCB8DE80F000023084A6946084800F03A
:1034D0005DF9044614B1204604B010BD044800F064
:1034E00043F90020F8E700003C480000FD350000EB
:1034F00034480000F7B582B00E46174642F2107409
:103500000020012302AA0C210090184800F0A2F923
:10351000054615B1284605B0F0BD00BF1448007837
:1035200010B9601E0400F9D10CB90D20F3E700209A
:103530000F490870FBB232460C210C4800F074F9B8
:1035400005460DB12846E6E742F2107400BF09486F
:10355000007810B9601E0400F9D10CB90D20DAE72B
:103560000020044908702846D5E7000034480000D0
:103570004500002046000020F7B582B00E461746F1
:1035800042F210740020012302AA6821009018481A
:1035900000F060F9054615B1284605B0F0BD00BF42
:1035A0001448007810B9601E0400F9D10CB90D2040
:1035B000F3E700200F490870FBB2324668210C483F
:1035C00000F032F905460DB12846E6E742F21074E4
:1035D00000BF0948007810B9601E0400F9D10CB989
:1035E0000D20DAE70020044908702846D5E70000DE
:1035F000344800004500002046000020027822B137
:10360000012A1ED0022A1ED11CE0027932B1012A01
:103610000CD0022A0ED0032A10D103E001220B4B5A
:103620001A700CE00122094B1A7008E00122084BC5
:103630001A7004E00122064B1A7000E000BF00BFC0
:1036400002E001E000E000BF00BF7047450000203D
:10365000460000202DE9FC4104460D4642F2107759
:103660008DF804408DF805500020022301AA0C219A
:1036700000900B4800F0EEF8064616B13046BDE863
:10368000FC8100BF0748007810B9781E0700F9D107
:103690000FB90D20F3E70020024908703046EEE72D
:1036A00034480000450000202DE9FE4305460E4643
:1036B000144642F210772346324629461248FFF755
:1036C000C9FD68208DF8010000208DF80000601C05
:1036D000C0B28DF802000C480190002269460B48E8
:1036E00000F0D6F8804600BF0948007810B9781E6F
:1036F0000700F9D117B90D20BDE8FE830020044969
:1037000008704046F8E700006001002034480000DF
:10371000450000202DE9FC4104460D4642F2107799
:103720008DF804408DF805500020022301AA68217D
:1037300000900B4800F08EF8064616B13046BDE802
:10374000FC8100BF0748007810B9781E0700F9D146
:103750000FB90D20F3E70020024908703046EEE76C
:103760003448000045000020027902EB8202064B3B
:1037700003EBC201026800BF0523C2F8003500BF99
:10378000022281F822207047900100202DE9F047A5
:1037900006460C4617469846307900EB80001F49D4
:1037A00001EBC00595F8220010B10820BDE8F087B4
:1037B0001CB930791A4901EB00142F60C5F8048058
:1037C0000020A86085F8250085F8240021463046B1
:1037D00000F0D4FB40F20C611248226840F822103D
:1037E000626840F822103068D4E90012C0F8081569
:1037F000C0F80C2500BFA168C0F8241500BF2868D8
:1038000030B13068FFF754FE8146217BFFF720FE80
:10381000012085F822000020C8E700009001002068
:103820008C48000000070050FEB507460C461546C0
:103830001E46074A07CA8DE807008DF801408DF83B
:103840000260019500226946384600F021F8FEBD6D
:103850009C4800002DE9FE4307460C4615461E46CF
:10386000DDF8288000200090019002908DF8014042
:103870008DF802600195B8F1000F01D0202000E022
:10388000002002466946384600F002F8BDE8FE8393
:103890002DE9F04104460E4615460027207900EB3D
:1038A0008000094901EBC00805F0030010B10620B3
:1038B000BDE8F0812B4632464046216800F028FDE5
:1038C00007463846F4E700009001002070B5044632
:1038D0000D463148C07E08B1082070BD04B92F4C98
:1038E000607F2D4908772046FFF736F92A48456062
:1038F0002949206908600846406880B3267F084649
:10390000007FC0B14FF48871254800F0ACFA4FF445
:103910009071234800F0A7FA4FF49271204800F00C
:10392000A2FA4FF4A2711E4800F09DFA1D491C48EE
:1039300000F0A5FA0DE04FF48E71194800F067FA17
:103940004FF4A271164800F062FA1749144800F0CB
:1039500069FA31460220FFF77BFD00BF00BF00BFC0
:103960000D48007F28B100BF08201049086000BF43
:1039700005E000BF04200D49086000BF00BF00BF84
:1039800000200549C875087688750120C876002092
:10399000887600BFA1E70000B8010020A848000019
:1039A00000200040100302008000020000250040BB
:1039B00070B504460D462848007F30B1200C000445
:1039C000B0F1005F01D0102070BD00262248406891
:1039D00068B12148007F28B14FF404711F4800F0FE
:1039E0004BFA04E04FF401711C4800F018FA1A4831
:1039F000C07DB0B11848007E90B11748406868B1EA
:103A00001548007F28B14FF40471144800F037FACC
:103A100004E04FF40171114800F004FA1120D3E7DB
:103A200001263EB90C48C575C46000200A49487695
:103A3000087602E00848046105760748007F28B14F
:103A400032462946204600F075F8BDE73246294641
:103A5000204600F015F8B7E7B8010020002000402C
:103A600010B50648007F38B90448807E20B900F0C0
:103A700053FA01200149887610BD0000B8010020EA
:103A80002DE9F0478046894616462848807E10B9C1
:103A90000EB900F041FA2548406800283FD14FF4A4
:103AA000A271234800F0B3F900BF00BF4FF4927138
:103AB0001F4800F0A5F905464FF484711C4800F03A
:103AC0009FF907464FF4A271194800F099F904468E
:103AD00017B90CB9002DE9D005B904B107E000F021
:103AE000E1F91248C07D1149497E8842DDDC00BF02
:103AF00000200E49C87515B10320BDE8F0870CB150
:103B00000F20FAE70948807E20B10021084800F024
:103B100095F903E00421064800F090F904E04FF421
:103B20000171034800F07EF90020E6E7B8010020AB
:103B3000002000402DE9F04704460D4690464FF422
:103B40008871264800F08FF94FF4A271234800F0E5
:103B50008AF92248C0F834454FF4A7610D5000BFE0
:103B6000B8F1000F03D1002100F091F908E0202006
:103B70001B4909680143194AC2F8001200BF00BF7F
:103B80001848406818BB00BF4FF48871134800F014
:103B900063F981464FF4A271104800F05DF90746C1
:103BA0004FF492710D4800F057F90646B9F1000F35
:103BB00002D10FB9002EE7D000200A49C87516B10E
:103BC0000320BDE8F0870FB10F20FAE704E04FF4BF
:103BD0000471024800F053F90020F2E70020004091
:103BE00000220040B801002070B504460D460F4881
:103BF000007F30B1200C0004B0F1005F01D0102034
:103C000070BD00F093F808B11120F9E707488575F9
:103C100084600020054988820846007F10B100F0CA
:103C20004DF8EDE700F004F8EAE70000B8010020E5
:103C300010B500244FF48E711E4800F0E8F80821FA
:103C40001C4800F0FBF800F0BFFB1B48406878BB45
:103C500012E000BF4FF48E71164800F0D1F820B981
:103C60001548808AB0F5807FF4D11348808AB0F57A
:103C7000807F01D000F0A8FB0F48808A0E49897D23
:103C80008842E6DB0C48808AB0F5807F01D10F24A2
:103C90000BE000BF4FF48E71064800F0B1F8002829
:103CA000F8D00C21034800F0C9F8002002498875BB
:103CB000204610BD00200040B801002070B500264D
:103CC0004FF49071174800F0CEF84FF4AC711548DE
:103CD00000F0C9F81348144B99689A7DC0F8441550
:103CE0004FF4A9631A5000BF082100F0D0F80E4825
:103CF0004068A8B900BF4FF490710A4800F0ACF8D2
:103D000005464FF4AC71074800F0A6F804460DB91B
:103D1000002CF0D004B10F2600200349887500BFA5
:103D2000304670BD00200040B80100200348807D6F
:103D300008B1012070470020FCE70000B801002016
:103D4000F0B5DDE9054541EA420646EA830646EA62
:103D5000042646EA0547024E46F82070F0BD0000F2
:103D6000000700507CB505460C4600200090234615
:103D70000246014601902846FFF7E2FF7CBD1CB5D4
:103D8000044600200090034601221146019020467F
:103D9000FFF7D6FF1CBD000001218140014A1160E0
:103DA000704700000C05005001218140014A11605C
:103DB000704700000805005001218140014A116050
:103DC00070470000080500500246505808B1012015
:103DD00070470020FCE7002242507047C0F80813EB
:103DE0007047C0F804137047C0F8001270470122F2
:103DF000425070470146D1F88004C1F880047047F2
:103E00000246505808B1012070470020FCE700220C
:103E100042507047C0F80815C0F810257047C0F828
:103E200008137047C0F8041370470246D2F8040321
:103E3000084008B1012070470020FCE701224250F1
:103E40007047C0F80C15C0F8142570470146D1F82A
:103E50008004C1F8800470470246505808B1012020
:103E600070470020FCE7002242507047C0F8081558
:103E70004FF4A2631A507047C0F808137047C0F897
:103E800004137047014640F23C50405870470122ED
:103E90004250704740F20C53195040F214531A50DC
:103EA0007047000010B51048C07D40B94FF48471D0
:103EB0000E48FFF7ACFF00BF0D48006810BD4FF47F
:103EC00084710A48FFF7A3FF00BF09480068C0B229
:103ED0000549C968044A527E88540348407E401C04
:103EE0000149487600BFE9E7B80100200020004002
:103EF000182500407FB504460D4601208DF80000CE
:103F00008DF808400195034801684268684690476B
:103F10007FBD0000B801002010B54FF49271064833
:103F2000FFF775FF4FF484710348FFF770FF00211E
:103F30000148FFF783FF10BD0020004010B500EEE0
:103F4000100A2DED028BB1EEC08A18EE100A20F097
:103F50000040C0F1FF40C00F0AD010EE100A20F060
:103F60000040C0F1FF40C00F04BF0120FEF78CF8F5
:103F700018EE100ABDEC028B10BD000070B50646AD
:103F80000C4640F20C611E48226840F8221062681C
:103F900040F822102068FFF707FF6068FFF704FF72
:103FA00040F20D611648226840F82210626840F81D
:103FB0002210002516E0606812490968C14001F02E
:103FC000010111B105B970BD0EE02068FFF7E4FEF4
:103FD0000420FCF75BFA2068FFF7E6FE0420FCF7FC
:103FE00055FA6D1C092DE6DB00BF6068FFF7D4FEB3
:103FF0000420FCF74BFA6068FFF7D6FE00BFE2E74B
:1040000000070050100500502DE9F04106460F460C
:1040100015461C462078A8421ADA00BFD6F81805C3
:10402000C0B2217878542078401C20702178681E16
:10403000814204D102213046FFF7D6FE04E0207809
:10404000A84201D1BDE8F08120213046FFF7CFFE24
:1040500000BFF7E72DE9FC4104460E4617461D4612
:104060004FF000084FF482713046FFF7B4FE4FF472
:1040700092713046FFF7AFFE4FF48E713046FFF776
:10408000AAFE4FF484713046FFF7A5FE002084F8A5
:10409000260084F82300012D04D102213046FFF7C9
:1040A000A3FE03E001213046FFF79EFE20213046AB
:1040B000FFF79DFE00213046FFF799FE206838B1DA
:1040C00040F28620A060A1683046FFF78AFE11E02A
:1040D00000BF00203B4604F12602D11ECDE900506E
:1040E000304600F02EF80028F3D194F8230008B1F0
:1040F0004FF003084046BDE8FC812DE9F04105463C
:104100000E4617461C46DDF818802078B84208DABB
:104110002178705CC5F81C0500BF2078401C207019
:104120000DE0B8F1000F06D01C212846FFF75FFE16
:104130000020BDE8F08114212846FFF758FE012039
:10414000F7E72DE9F84F81460C4615461F46DDE995
:104150000A8A2078012802D02878404501D101261A
:1041600000E00026207878B14FF492714846FFF7BE
:1041700032FE4FF48E714846FFF72DFE4FF48471E6
:104180004846FFF728FE5DE04FF492714846FFF77E
:104190001BFE58B14FF492714846FFF71CFE1421E4
:1041A0004846FFF724FE012020704BE04FF48E714B
:1041B0004846FFF709FE10B34FF48E714846FFF7EB
:1041C0000AFE4FF492714846FFF7FEFD58B14FF4D6
:1041D00092714846FFF7FFFD14214846FFF707FE9E
:1041E000012020702EE02B46424639464846CDF845
:1041F00000A0FFF782FF28BB0020BDE8F88F4FF436
:1042000084714846FFF7E0FDE0B14FF48471484601
:10421000FFF7E1FD4FF492714846FFF7D5FD58B125
:104220004FF492714846FFF7D6FD14214846FFF738
:10423000DEFD0120207005E02B4642463946484607
:10424000FFF7E2FE66B14FF482714846FFF7BCFD0E
:1042500030B14FF482714846FFF7BDFD0020CCE736
:104260000120CAE72DE9FC4704460F4615461E46C5
:10427000DDF828804FF000094FF482713846FFF7CF
:10428000AAFD4FF492713846FFF7A5FD4FF48E71E9
:104290003846FFF7A0FD4FF484713846FFF79BFDC9
:1042A00000213846FFF7A0FD002084F8260084F89E
:1042B000230020213846FFF79AFD08213846FFF7F2
:1042C00096FD04F12603324629463846CDF8008093
:1042D000FFF713FF206838B140F28620A060A16884
:1042E0003846FFF77EFD10E000BF2B4604F12602A2
:1042F000D11E3846CDE90068FFF723FF0028F4D12E
:1043000094F8230008B14FF003094846BDE8FC8744
:104310002DE9F84304460F4615461E464FF00008A7
:104320004FF0FF313846FFF759FD94F8240030B1C3
:10433000A1683846FFF755FD1120BDE8F88306F067
:10434000040008B9012000E0002084F8240006F0F1
:10435000080008B10620F0E7A66195E80700C4E967
:104360000412E060A87884F820006868E06168784A
:10437000C7F8880500BF2878012814D0287810B91C
:1043800006F0200008B1012000E0002084F82100A0
:1043900094F821000090AB78394620466A68FFF710
:1043A00061FF804609E0002084F82100AB7839469F
:1043B00020466A68FFF74EFE8046206810B900204C
:1043C00084F824004046B8E710B54FF48E710948D0
:1043D000FFF71DFD084880680749898A445C064844
:1043E000808A401C0449888220460449086000BF36
:1043F00010BD000000200040B80100201C25004036
:104400001FB5044600208DF800008DF808400648CE
:104410008068019000200449887508460168426858
:10442000684690471FBD0000B801002030B587B036
:10443000114A07CA04AB07C300BF1048009001200F
:1044400001900F4802904FF48070039006230D4AAC
:10445000694604A8FEF7FEFA044600BF00BF2546E1
:1044600035B100BF08A251212846FEF773FA00BFFC
:1044700000BF07B030BD0000284800004400002005
:1044800060000020594500002E2E5C2E2E5C2E2E42
:104490005C6D61696E2E63007CB504460E46207823
:1044A000012827D1606801782648FEF7C2FA054640
:1044B00045B101208DF80000019568462249096840
:1044C00088470BE01F48FEF77DFC012806D100203D
:1044D0008DF8000068461C49096888471948FEF7AE
:1044E00071FC18498988884203D801211748FFF7D1
:1044F0005FFA25E0207802280CD18DF80000E068F2
:10450000019001211148FFF753FA68460E490968E6
:10451000884715E0207898B90D490E48FEF768FAEB
:1045200018B901210A48FFF75FFB0A48FEF74AFC69
:1045300030B903208DF800006846034909688847B0
:104540007CBD000070010020480000204D000020CC
:104550004C0000208001002010B50446207801287E
:1045600009D002280FD100BF08A22E216068FEF7F3
:10457000F1F900BF08E000BF04A232216068FEF735
:10458000E9F900BF00E000BF00BF10BD2E2E5C2E79
:104590002E5C2E2E5C6D61696E2E63007FB54FF42C
:1045A00000715448FFF741FC68B34FF492715148D1
:1045B000FFF726FC38B34FF492714E48FFF727FC03
:1045C0004FF401714B48FFF72AFC4B48807E18B925
:1045D00004214848FFF732FC02208DF800004548CE
:1045E000FFF708FC03904448C17D8DF80810C068AF
:1045F000019000204049C875087608460168426865
:10460000684690473CE004213A48FFF70EFC00283A
:1046100036D04FF484713748FFF7F2FB00282FD0D3
:10462000FFF740FC3448C07D3349497E884227D19A
:104630003148007E80B13048C468457E007E2E49F6
:10464000C87508460069C86000200876487621468B
:104650002846FFF74FFC13E02748807E18B9042155
:104660002448FFF7EBFB4FF401712248FFF7D7FB1B
:1046700000202149C8750A46D168507EFFF73AFCF0
:104680004FF48E711B48FFF7BBFBA0B11A48808A1C
:104690001949897D884202DAFFF796FE0BE04FF454
:1046A0008E711448FFF7B3FB1348807D18B112498F
:1046B000887DFFF7A5FE4FF4A2710E48FFF7A0FB1F
:1046C000B0B14FF4A2710B48FFF7A1FB0A48807EFE
:1046D00018B100210748FFF7B1FB0748C07D38B18A
:1046E00000200549C8750A46D168507EFFF702FCD4
:1046F0007FBD000000200040B80100207FB54FF4CE
:1047000092714648FFF7A8FBF0B14FF4927143480D
:10471000FFF7A9FB02208DF800004048FFF796FB49
:1047200003903E48FFF7AEFBC1B28DF808103C483D
:10473000C068019000203A49C875087608460168AB
:1047400042686846904737E04FF488713348FFF776
:1047500083FB002830D04FF488713048FFF783FB8B
:104760002E48FFF78FFBC4B22D48C07DA04222D156
:104770002B48007EB8B12A48C5682020294909681D
:104780008143264AC2F8001200BF2548007E244912
:10479000C87508460069C86000200876294620468A
:1047A000FFF7A8FB07E000201D49C8750846C1684F
:1047B0002046FFF79FFB00BF4FF4A2711748FFF799
:1047C0004BFB98B14FF4A2711448FFF74CFB14480F
:1047D000C07D58B100201249C8751048FFF752FB40
:1047E000C4B20F48C1682046FFF784FB4FF49071B4
:1047F0000A48FFF731FB78B14FF490710748FFF793
:1048000032FB0748807D38B1044840F24C510958CA
:10481000CCB22046FFF7F4FD7FBD00000020004031
:10482000B801002000220040080605070000000033
:1048300000E0D7010030004000000000030000004D
:104840000400000000006806020000000000803F35
:104850000000000000000000000000000000803F99
:104860000000000000000000000000000600000042
:104870000800000007000000050000000000000024
:104880000000000000009D00060000001B0000006A
:104890001A0000000000980106000000010000005E
:1048A00000000000000000000600000008000000FA
:1048B00007000000050000000000000000000000EC
:1048C00000009D0006000000E848000000000020F5
:1048D00060000000682000004849000060000020DF
:1048E0009821000078200000000000000000000077
:1048F00000000000000000000000000000000000B8
:1049000000000000000000000000000000000000A7
:104910000000000000000000000000000000000097
:104920000000000000000000000000000000000087
:104930000000000000000000000000000000000077
:084940000090D003000000000C
:0400000500000401F2
:00000001FF
