:020000040000FA
:1000000078220020050500000D0500000F05000006
:100010001105000013050000150500000000000098
:1000200000000000000000000000000017050000B4
:1000300019050000000000001B0500001D05000060
:100040001F0500001F050000E129000089270000AE
:100050001F0500001F0500001F0500001F05000010
:100060001F0500001F0500001F0500001F05000000
:100070001F0500001F0500001F0500001F050000F0
:100080001F0500001F0500001F0500001F050000E0
:100090001F0500001F0500001F0500001F050000D0
:1000A0001F0500001F0500001F0500001F050000C0
:1000B0001F0500001F0500000000000000000000F8
:1000C0001F0500001F0500001F0500001F050000A0
:1000D0001F0500001F0500001F05000000000000B4
:1000E0000000000000000000000000000000000010
:1000F0000000000000000000000000000000000000
:1001000000000000000000000000000000000000EF
:1001100000000000000000000000000000000000DF
:10040000DFF80CD000F0B6FB00480047754B000049
:1004100078220020401E00BF00BF00BF00BF00BF09
:1004200000BF00BF00BF00BF00BF00BF00BF00BFD4
:1004300000BF00BF00BF00BF00BF00BF00BF00BFC4
:1004400000BF00BF00BF00BF00BF00BF00BF00BFB4
:1004500000BF00BF00BF00BF00BF00BF00BF00BFA4
:1004600000BF00BF00BF00BF00BF00BF00BF00BF94
:1004700000BF00BF00BF00BF00BF00BF00BF00BF84
:1004800000BF00BF00BFC5D170470000401E00BFC5
:1004900000BF00BF00BF00BF00BF00BF00BF00BF64
:1004A00000BF00BF00BF00BF00BF00BF00BF00BF54
:1004B00000BF00BF00BF00BF00BF00BF00BF00BF44
:1004C00000BF00BF00BF00BF00BF00BF00BF00BF34
:1004D00000BF00BF00BF00BF00BF00BF00BF00BF24
:1004E00000BF00BF00BF00BF00BF00BF00BF00BF14
:1004F00000BF00BF00BF00BF00BF00BF00BFC5D12D
:10050000704700000648804706480047FEE7FEE7C0
:10051000FEE7FEE7FEE7FEE7FEE7FEE7FEE7FEE7B3
:10052000AD2700000104000040EA01039B0703D04F
:1005300009E008C9121F08C0042AFAD203E011F822
:10054000013B00F8013B521EF9D270472DE9FE4FE6
:1005500081EA030404F0004421F0004100944FF0CC
:10056000000B23F0004350EA01045ED052EA03047A
:100570005BD0C3F30A54C1F30A552C44A4F2F334FC
:100580000194A0FB0254C1F3130141F48011C3F3A1
:10059000130343F4801301FB024400FB034E840A5F
:1005A000970A44EA815447EA8357A4FB07680295F7
:1005B0008D0A05FB07854FEA932C04FB0C54270595
:1005C000029D4FEA065847EA1637B5EB08056EEB71
:1005D000070C870E920E47EA811742EA8312A7FBA7
:1005E0000201B6EB0B0164EB00042B0D43EA0C3364
:1005F0005E1844EB1C50DA465146E7FB0201C5F396
:1006000013044FEA0B3343EA14534FEA0432019CBC
:1006100043EA0603A4F10C040294009CCDE900B463
:1006200000F031F903B0BDE8F08F00200146F9E792
:100630002DE9F04D81EA030404F0004B21F0004560
:1006400014464FF0000A23F0004150EA050220D082
:1006500054EA01021DD0C5F30A570246C5F313033D
:10066000C1F31300C1F30A5640F4801543F480131C
:10067000A7EB0608101BD64608F2FD3873EB050001
:1006800002D308F1010801E092185B41B8F1000FB4
:1006900003DA00200146BDE8F08D00204FF4801100
:1006A000064684460EE0171B73EB050705D3121BA5
:1006B00063EB050306434CEA010C49084FEA30009E
:1006C00092185B4150EA0107EDD152EA030012D0C3
:1006D00082EA040083EA0501084305D0101BAB4100
:1006E00006D20122002306E000224FF0004302E080
:1006F0006FF0010253101AEB06004CEB085110EB9F
:100700000A0041EB0B01BDE8F04D00F0ADB800F080
:10071000004230F000400AD0C10D01F56071C0F315
:10072000160042EA0151C2084007114370470020F9
:100730000146704701F0004330B421F0004150EA17
:10074000010206D00A0DA2F56072C1F31301002A5E
:1007500002DC30BC00207047440F44EAC104C100F1
:10076000E01830BC00EBC25000F047B830B50B4683
:10077000014600202022012409E021FA02F59D42D1
:1007800005D303FA02F5491B04FA02F52844151EA5
:10079000A2F10102F1DC30BD2DE9F05F0546002039
:1007A00092469B4688460646814640241BE02846E2
:1007B00041464746224600F0FEF953465A46C01AC3
:1007C000914110D311461846224600F0E5F92D1A42
:1007D00067EB01084F4622460120002100F0DCF9BA
:1007E00017EB00094E41201EA4F10104DFDC48464E
:1007F00031462A464346BDE8F09F0029A8BF70470E
:10080000401C490008BF20F00100704710B4B0FA46
:1008100080FC00FA0CF050EA010404BF10BC7047E1
:1008200049B1CCF1200421FA04F411FA0CF118BFFB
:10083000012121430843A3EB0C01CB1D4FEA0061CA
:100840004FEA102042BF002010BC704700EBC3509D
:1008500010440029A4BF10BC7047401C490008BFC9
:1008600020F0010010BC704710B5141E73F1000495
:1008700008DA401C41F1000192185B411A4301D192
:1008800020F0010010BD2DE9F04D92469B4611B1BC
:10089000B1FA81F202E0B0FA80F22032904600F024
:1008A0007BF904460F4640EA0A0041EA0B01534631
:1008B0005A46084313D0114653EA010019D0C8F133
:1008C0004002504600F077F905460E46504659461C
:1008D000424600F061F9084305D0012004E02046BB
:1008E0003946BDE8F08D0020054346EAE0762C430A
:1008F00037430A986305E40AA0EB08000022FD0ACA
:1009000044EA47540A3002D500200146E9E70105D0
:1009100010196941DDE9084500196941BDE8F04D4C
:10092000A2E72DE9FE4F804681EA0300C00F0C4686
:10093000009021F0004123F00045B8EB0200A941EE
:1009400005D24046214690461C460B46024623F0FF
:100950000040104347D0270DC7F30A00C3F30A51E4
:100960000290401A019040286BDAC3F3130040F460
:10097000801B0098924620B10023D2EB030A63EB60
:100980000B0B01985946C0F14002504600F004F9A3
:1009900006460D4650465946019A00F01CF910EBE8
:1009A00008006141002487EA115284EAE7731A4380
:1009B00040D0009A62B3019A012A4FEA075215DC2F
:1009C000001B61EB02014FF0004202EA0752CDE941
:1009D0000042001C41F5801132462B46FFF753FFC1
:1009E00003B0BDE8F08F40462146F9E7001B61EBFC
:1009F0000201001C41F5801300185B412018A2F58C
:100A0000001747EB030140EAD570B6196D4111E0BC
:100A10006D084FEA360645EAC0754FEA0752001BDB
:100A200061EB0201001C41F5801149084FEA3000DA
:100A30000019514132462B4603B0BDE8F04FFFF795
:100A400013BF0098012240000023D0EB020263EBA9
:100A5000E073009821464FEAE074B8EB000061EBC8
:100A60000401E9E783F000435BE781F0004158E7C8
:100A70002DE9F04D00231A461B1A8A4103DB0020A2
:100A80000146BDE8F08DC1F30A52C1F3130141F4F0
:100A900080154FF0000BD10702D100186D41521E96
:100AA0000027044640F2FF11384601EB620A3E4639
:100AB0008046024600204FF4801100F07CF8C219F5
:100AC0007141BB1846EB0100B4EB030C75EB000C55
:100AD00004D3E41A65EB000517460E46241908F105
:100AE00001006D4180463428E3DDF91946EB06002C
:100AF000091BA84103D24FF0FF32134601E0002248
:100B000013461BEB070046EB0A51BDE8F04DFFF71B
:100B1000ABBEC1F30A52C1F3130140F2FF3341F4FB
:100B200080119A4202DA00200146704740F23343B6
:100B30009A42A2F2334202DC524200F03CB800F08A
:100B40002BB8000030B5041E71F1000404DB4FF037
:100B50000044404264EB0101141E73F1000405DB04
:100B60001C464FF00043524263EB0403994208BF16
:100B7000904230BD064C074D06E0E06840F00103AE
:100B800094E8070098471034AC42F6D3FFF73CFCDA
:100B90004470000064700000202A04DB203A00FA50
:100BA00002F1002070479140C2F1200320FA03F3C4
:100BB000194390407047202A04DB203A21FA02F0C2
:100BC0000021704721FA02F3D040C2F12002914087
:100BD000084319467047202A06DBCB17203A41FA12
:100BE00002F043EAE07306E041FA02F3D040C2F1BA
:100BF000200291400843194670470EB590ED030A54
:100C000020EE000AF0EE401A90ED030AD0ED040A3F
:100C100020EE200AB0EE402A90ED030AD0ED050A3E
:100C200020EE200AF0EE402A90ED030AD0ED060AED
:100C300020EE200AB0EE403A90ED040AD0ED050A0D
:100C400020EE200AF0EE403A90ED040AD0ED060ABC
:100C500020EE200AB0EE404A90ED050AD0ED060ADB
:100C600020EE200AF0EE404AB6EE000A31EEC00A4D
:100C7000D0ED040A90ED041A00EE810AD0ED070AC7
:100C800020EE200A73EEC30A90ED081A00EE810AE6
:100C900074EE220A90ED091A00EE810AF0EE000AC5
:100CA00020EE200A8DED000A33EE830AD0ED070A0C
:100CB00020EE200AF6EE000A71EEE00A90ED051A29
:100CC00090ED055A41EE050A90ED081A00EE810AF2
:100CD00074EEC20A90ED091A00EE810AF0EE000AE5
:100CE00020EE200A8DED010A34EE620AD0ED070AEB
:100CF00020EE200A74EE820A90ED081A00EE810AB6
:100D0000F6EE000A71EEE00A90ED061A90ED065A32
:100D100041EE050A90ED091A00EE810AF0EE000A94
:100D200020EE200A8DED020A9DED000ADDED010A9C
:100D30009DED021A0EBD000010B587B080ED000ACF
:100D400060EEA01AC0ED011A61EE011AC0ED021AA0
:100D50000E4CD4E90023D4E90214CDE90514CDE901
:100D6000032303A91EC90C301EC01C3800210091AA
:100D7000019102919DE80E00C0E90823C161F2EEE5
:100D8000041AC0ED0A1A07B010BD00006C6E000016
:100D9000014691ED0A0AD1ED000AB4EEE00AF1EE47
:100DA00010FA01DD012070470020FCE710B587B084
:100DB0000E4CD4E90031D4E90224CDE90524CDE973
:100DC000033103A91EC90C301EC01C38002100913C
:100DD000019102919DE80E00C0E90823C161B2EEC5
:100DE000040A80ED0A0A07B010BD00007C6E000006
:100DF00011B52DED0A0BAAB0002127912891299158
:100E000027A90EC924AC0EC400BF9DED2D0AB5EE76
:100E1000C00AF1EE10FA0ED19DED2E0AB5EEC00A11
:100E2000F1EE10FA07D19DED2F0AB5EEC00AF1EEF2
:100E300010FA00D115E290ED040A90ED061A20EEAA
:100E4000010A90ED031AD0ED051A01EE610A8DED4D
:100E50001B0A90ED030A90ED041A20EE010A90EDB2
:100E6000051AD0ED061A01EE210A8DED1C0A90ED4F
:100E7000031AD0ED031AB6EE000A11EE210A90ED26
:100E8000061AD0ED061A01EE210A8DED1D0A2DAAD3
:100E90001CCA0FA91CC19DED0F0A20EE000ADDED52
:100EA000102A9DED103A02EE830ADDED112A9DED28
:100EB000113AB0EE401A02EE831AB6EE003A21EE75
:100EC000033AF0EE432AB0EE410A10EE101AFE4A41
:100ED000A2EB610100EE101A62EE803AB7EE083A1A
:100EE00003EEC03A23EE003AB0EE430A00BFF0EE44
:100EF000401A0FA90EC9B0EE610A09AC0EC49DEDEF
:100F0000091A21EE001A8DED061A9DED0A1A21EE3E
:100F1000001A8DED071A9DED0B1A21EE001A8DEDCA
:100F2000081A9DED061ADDED072A9DED083A8DEDB4
:100F30000C1ACDED0D2A8DED0E3A9DED0C0A9DEDAE
:100F40000D1ADDED0E2A8DED120A8DED131ACDED81
:100F5000142A1BA90EC915AC0EC49DED130A9DEDF4
:100F6000171A20EE010A9DED141ADDED161A01EE96
:100F7000610A8DED0F0A9DED140A9DED151A20EE04
:100F8000010A9DED121ADDED171A01EE610A8DEDD1
:100F9000100A9DED120A9DED161A20EE010A9DED34
:100FA000131ADDED151A01EE610A8DED110A9DEDA2
:100FB0000F0A9DED101ADDED111A8DED240A8DED4D
:100FC000251ACDED261A9DED300A20EE000A9DED82
:100FD000311ADDED311A01EE210A9DED321ADDEDF7
:100FE000321AB0EE402A01EE212A90ED010AB4EE49
:100FF000C20AF1EE10FA06DC90ED020AB4EEC20A63
:10100000F1EE10FA00D22CE190ED040A90ED051AF1
:1010100020EE010A90ED031AD0ED061A01EE210A26
:101020008DED180A90ED031AD0ED031AB6EE000A02
:1010300011EE210A90ED051AD0ED051A01EE210AF4
:101040008DED190A90ED050A90ED061A20EE010AC1
:1010500090ED031AD0ED041A01EE610A8DED1A0A23
:1010600024A90EC912AC0EC42DAA1CCA03A91CC106
:10107000DDE930233299CDE9062308919DED040A7C
:101080009DED081A20EE010A9DED051ADDED071A07
:1010900001EE610A8DED000A9DED050A9DED061A2F
:1010A00020EE010A9DED031ADDED081A01EE610A3A
:1010B0008DED010A9DED030A9DED071A20EE010A50
:1010C0009DED041ADDED061A01EE610A8DED020AAE
:1010D0009DED000A9DED011ADDED021A8DED090A64
:1010E0008DED0A1ACDED0B1A9DED090A20EE000ACE
:1010F000DDED0A2A9DED0A3A02EE830ADDED0B2AA8
:101100009DED0B3AB0EE401A02EE831AB6EE003AAD
:1011100021EE033AF0EE432AB0EE410A10EE101A27
:10112000694AA2EB610100EE101A62EE803AB7EE56
:10113000083A03EEC03A23EE003AB0EE430A00BF8D
:10114000F0EE401A09A90EC9B0EE610A03AC0EC454
:101150009DED031A21EE001A8DED001A9DED041A83
:1011600021EE001A8DED011A9DED051A21EE001AEF
:101170008DED021A9DED001ADDED012A9DED023A7A
:101180008DED061ACDED072A8DED083A9DED060A84
:101190009DED071ADDED082A8DED0C0A8DED0D1A77
:1011A000CDED0E2A18A90EC90FAC0EC49DED0D0A87
:1011B0009DED111A20EE010A9DED0E1ADDED101ABB
:1011C00001EE610A8DED090A9DED0E0A9DED0F1AE3
:1011D00020EE010A9DED0C1ADDED111A01EE610AF7
:1011E0008DED0A0A9DED0C0A9DED101A20EE010A04
:1011F0009DED0D1ADDED0F1A01EE610A8DED0B0A62
:101200009DED090A9DED0A1ADDED0B1A8DED150A0B
:101210008DED161ACDED171A9DED120A9DED151ADA
:1012200030EE010A8DED0F0A9DED130A9DED161AA1
:1012300030EE010A8DED100A9DED140A9DED171A8E
:1012400030EE010A8DED110A9DED0F0A9DED101A89
:10125000DDED111A8DED240A8DED251ACDED261A3E
:1012600000BF00BF90ED000AB5EEC00AF1EE10FA23
:1012700003D19FED160A80ED0A0AD0ED000A90ED29
:101280000A0A90ED001AB4EEC10AF1EE10FA15DD6B
:1012900090ED000AB2EE041A31EE400A20EE241A54
:1012A000F0EE081A81EE210A90ED0A1A31EE400A9A
:1012B00080ED0A0A90ED0A0AF0EE400A2AAA1CCA3A
:1012C0009FED030A1BA905E0DF59375F000000000E
:1012D00035FA0E3C1CC19DED1B1A21EE001A8DED56
:1012E000181A9DED1C1A21EE001A8DED191A9DEDAC
:1012F0001D1A21EE001A8DED1A1A9DED181ADDED5A
:10130000191A9DED1A2A8DED211ACDED221A8DEDB7
:10131000232A21A90EC918AC0EC424A90EC915ACE4
:101320000EC49DED150A20EE200A8DED120A9DEDEA
:10133000160A20EE200A8DED130A9DED170A20EE05
:10134000200A8DED140A9DED120A9DED131ADDEDB4
:10135000141A8DED1B0A8DED1C1ACDED1D1A9DED95
:10136000180A9DED1B1A30EE010A8DED150A9DED50
:10137000190A9DED1C1A30EE010A8DED160A9DED3D
:101380001A0A9DED1D1A30EE010A8DED170A9DED2A
:10139000150A9DED161ADDED171A8DED210A8DED5A
:1013A000221ACDED231AD0E90524D0E90331CDE985
:1013B0001824CDE91631D0E90524D0E90331CDE96F
:1013C0001124CDE90F3121A90EC90CAC0EC49DED3D
:1013D0000C0A20EE240A8DED090A9DED0D0A20EE7F
:1013E000240A8DED0A0A9DED0E0A20EE240A8DEDE9
:1013F0000B0A9DED090A9DED0A1ADDED0B1A8DED24
:10140000130A8DED141ACDED151A9DED100AB1EEEB
:10141000400A9DED131A20EE010A9DED111ADDED33
:10142000141A01EE610A9DED121ADDED151A01EE96
:10143000610A8DED0B0A9DED0F0A9DED131A20EE4A
:10144000010A9DED111ADDED151A01EE210A9DED3F
:10145000121ADDED141A01EE610A8DED0C0A9DEDF4
:101460000F0A9DED141A20EE010A9DED101ADDED14
:10147000151A01EE610A9DED121ADDED131A01EE47
:10148000210A8DED0D0A9DED0F0A9DED151A20EE36
:10149000010A9DED101ADDED141A01EE210A9DEDF1
:1014A000111ADDED131A01EE610A8DED0E0A9DEDA4
:1014B0000B0A9DED0C1ADDED0D1A9DED0E2A8DED3A
:1014C0001A0A8DED1B1ACDED1C1A8DED1D2A9DED0E
:1014D000160A9DED1A1A30EE010A8DED120A9DEDE5
:1014E000170A9DED1B1A30EE010A8DED130A9DEDD2
:1014F000180A9DED1C1A30EE010A8DED140A9DEDBF
:10150000190A9DED1D1A30EE010A8DED150A9DEDAB
:10151000120A9DED131ADDED141A9DED152A80EDCA
:10152000030A80ED041AC0ED051A80ED062A00F1C9
:101530000C011EC9CDE91C34CDE91A129DED1A0A21
:1015400020EE000A9DED1B2ADDED1B2A02EE220A89
:101550009DED1C2ADDED1C2A02EE220A9DED1D2ABE
:10156000DDED1D2AB0EE401A02EE221AF6EE002A38
:1015700061EE222AB0EE622AB0EE410A10EE101A95
:10158000504AA2EB610100EE101A22EE003AF7EE8B
:10159000082A43EE402A62EE802AB0EE620A00BFBB
:1015A000F0EE401A9DED1A0A20EE210A8DED160A82
:1015B0009DED1B0A20EE210A8DED170A9DED1C0AF8
:1015C00020EE210A8DED180A9DED1D0A20EE210A5C
:1015D0008DED190A9DED160A9DED171A9DED182A3D
:1015E000DDED192A80ED030A80ED041A80ED052A4D
:1015F000C0ED062A90ED040A90ED061A20EE010ACD
:1016000090ED031AD0ED051A01EE610AB0EE001A52
:1016100020EE010A8DED1E0A90ED030A90ED041AEA
:1016200020EE010A90ED051AD0ED061A01EE210A0E
:10163000B0EE001A20EE010A8DED1F0A90ED031A9C
:10164000D0ED031AB6EE000A11EE210A90ED061A4B
:10165000D0ED061A01EE210AB0EE001A20EE010AC2
:101660008DED200ADDE92D232F99CDE918231A915C
:101670001EA90EC91BAC0EC49DED180A9DED1B1AC8
:1016800030EE410A8DED150A9DED190A9DED1C1AEB
:1016900030EE410A8DED160A9DED1A0A9DED1D1AD8
:1016A00030EE410A8DED170A9DED150A9DED161AD3
:1016B000DDED171A80ED070A80ED081AC0ED091A52
:1016C00035B010BDDF59375F10B52DED028B90B0EE
:1016D000044604F10C000FC8CDE90A23CDE9080146
:1016E000DDED080A60EEA00A9DED091ADDED091A8C
:1016F00041EE210A9DED0A1ADDED0A1A41EE210A9A
:101700009DED0B1ADDED0B1A41EE210AB0EE600AD9
:1017100002F02FF9F7EE000A80EE801AB0EE418A4F
:101720009DED080A20EE080A8DED040A9DED090AD8
:1017300020EE080A8DED050A9DED0A0A20EE080A42
:101740008DED060A9DED0B0A20EE080A8DED070AC5
:101750009DED040ADDED050A9DED061ADDED071A83
:1017600084ED030AC4ED040A84ED051AC4ED061ADB
:10177000D4ED031A94ED032AB6EE001A11EE821A84
:10178000D4ED041A94ED042A01EE821AF0EE410A17
:1017900094ED041AD4ED051A21EE211AD4ED031AA2
:1017A00094ED062A01EE821AB0EE410A01F00CFE19
:1017B000F6EE000A20EE200AF0EE408A00200C909F
:1017C0000D900E900F90B0EE680A01F025FF8DEDA0
:1017D0000C0AB0EE680A01F0C7FFFFEE000A20EE27
:1017E000200A8DED0F0A0CA80FC8CDE90623CDE91C
:1017F000040104F10C000FC8CDE90A23CDE908016A
:101800009DED040ADDED080A20EE200ADDED050A53
:101810009DED091A00EEC10ADDED060A9DED0A1ADA
:1018200000EEC10ADDED070A9DED0B1A00EEC10ABC
:101830008DED000A9DED040ADDED090A20EE200A77
:10184000DDED050A9DED081A00EE810ADDED060AC0
:101850009DED0B1A00EE810ADDED070A9DED0A1AD7
:1018600000EEC10A8DED010A9DED040ADDED0A0AC4
:1018700020EE200ADDED050A9DED0B1A00EEC10AEF
:10188000DDED060A9DED081A00EE810ADDED070A7E
:101890009DED091A00EE810A8DED020A9DED040A04
:1018A000DDED0B0A20EE200ADDED050A9DED0A1A9A
:1018B00000EE810ADDED060A9DED091A00EEC10A6F
:1018C000DDED070A9DED081A00EE810A8DED030A91
:1018D0009DED000ADDED010A9DED021ADDED031A12
:1018E00084ED030AC4ED040A84ED051AC4ED061A5A
:1018F00010B0BDEC028B10BD1EB5016080ED010A79
:10190000DFED060AC0ED020A002200920192029267
:101910009DE81C00C0E90434C2601EBD0000000048
:10192000014691ED020AF1EE040AB4EEE00AF1EE8E
:1019300010FA01DB012070470020FCE7F0B52DED27
:10194000068B8FB004460D4616461F462068A842F7
:1019500011DB20684042A8420DDC2068B0420ADB5F
:1019600020684042B04206DC2068B84203DB2068B1
:101970004042B84204DD9FED5E0A84ED020AB2E007
:1019800094ED020AF1EE040AB4EEE00AF1EE10FA68
:101990007DDB00EE105AB8EEC00A8DED0C0A00EEA9
:1019A000106AB8EEC00A8DED0D0A00EE107AB8EE9E
:1019B000C00A8DED0E0A0CA807C806AB07C3D4E910
:1019C0000412E06809AB07C39DED060ADDED090AC4
:1019D00030EE600A8DED030A9DED070ADDED0A0A7F
:1019E00030EE600A8DED040A9DED080ADDED0B0A6C
:1019F00030EE600A8DED050A9DED030ADDED040A67
:101A00009DED051A8DED0C0ACDED0D0A8DED0E1A2A
:101A1000D4E90412E06806AB07C30CA807C803ABFF
:101A200007C394ED010A10EE101A0846FEF76FFE88
:101A300041EC1A0B9FED2F0B53EC102BFEF786FD9C
:101A400041EC190BFEF776FE08EE100A9DED030A35
:101A500020EE080A8DED000A9DED040A20EE080A2A
:101A60008DED010A9DED050A20EE080A8DED020AB2
:101A70009DED000ADDED010A9DED021A8DED090ACA
:101A8000CDED0A0A8DED0B1A9DED060A00E022E06D
:101A9000DDED090A30EE200A8DED030A9DED070AFF
:101AA000DDED0A0A30EE200A8DED040A9DED080AEC
:101AB000DDED0B0A30EE200A8DED050A9DED030ADF
:101AC000DDED040A9DED051A84ED030AC4ED040A58
:101AD00084ED051A07E094ED020AD4ED010A30EE18
:101AE000200A84ED020A0FB0BDEC068BF0BD0000A9
:101AF0000000000043FF0E8CBF15C03F10B52DED58
:101B0000060B2DED048B92B016A807C803AB07C3D4
:101B100019A807C806AB07C39DED040ADDED080A46
:101B200020EE200ADDED050A9DED071A00EEC10A40
:101B30008DED000A9DED050ADDED060A20EE200A76
:101B4000DDED030A9DED081A00EEC10A8DED010AD4
:101B50009DED030ADDED070A20EE200ADDED040A03
:101B60009DED061A00EEC10A8DED020A9DED000AF8
:101B7000DDED010A9DED021A8DED090ACDED0A0A8F
:101B80008DED0B1A9DED090A20EE000ADDED0A1A13
:101B90009DED0A2A01EE820ADDED0B1A9DED0B2A5E
:101BA000F0EE400A41EE820AB6EE002A20EE822ACA
:101BB000F0EE421AB0EE600A10EE100A7F49A1EB77
:101BC000600000EE100A61EE802AB7EE082A02EEED
:101BD000C02A22EE002AB0EE420A00BFB0EE401A40
:101BE00009A807C8B0EE410A03AB07C3DDED030A3D
:101BF00060EE800ACDED000ADDED040A60EE800A99
:101C0000CDED010ADDED050A60EE800ACDED020A98
:101C1000DDED000ADDED011A9DED022ACDED060A8B
:101C2000CDED071A8DED082A9DED060ADDED070AB8
:101C3000DDED081A8DED0F0ACDED100ACDED111A6C
:101C40000FA807C803AB07C316A807C806AB07C38E
:101C50009DED040ADDED080A20EE200ADDED050AFF
:101C60009DED071A00EEC10A8DED000A9DED050AF3
:101C7000DDED060A20EE200ADDED030A9DED081ACF
:101C800000EEC10A8DED010A9DED030ADDED070AA4
:101C900020EE200ADDED040A9DED061A00EEC10AD1
:101CA0008DED020A9DED000ADDED010A9DED021A9F
:101CB0008DED090ACDED0A0A8DED0B1A9DED090A8D
:101CC00020EE000ADDED0A1A9DED0A2A01EE820AD5
:101CD000DDED0B1A9DED0B2AF0EE400A41EE820A73
:101CE000B6EE002A20EE822AF0EE421AB0EE600A2A
:101CF00010EE100A3149A1EB600000EE100A61EE0F
:101D0000802AB7EE082A02EEC02A22EE002AB0EEA0
:101D1000420A00BFB0EE401A09A807C8B0EE410A57
:101D200003AB07C3DDED030A60EE800ACDED000AC8
:101D3000DDED040A60EE800ACDED010ADDED050A55
:101D400060EE800ACDED020ADDED000ADDED011A3C
:101D50009DED022ACDED060ACDED071A8DED082A7C
:101D60009DED060ADDED070ADDED081A8DED0C0A82
:101D7000CDED0D0ACDED0E1A9DED0C1AF0EE410AD7
:101D80009DED0F1AB0EE410A01F01EFB10EE104A55
:101D90002046FEF7BCFC41EC190B9FED090B53EC00
:101DA000102BFEF7D3FB41EC180BFEF7C3FC00EE43
:101DB000100A12B0BDEC048B06B010BDDF59375FBE
:101DC000F8C1631ADCA54C4000B52DED0A0B2DEDD2
:101DD000108B9DB0B0EE61EAF0EE42CAB0EE62FA4E
:101DE000B0EE43BAB0EE639AF0EE449AFE4890ED3E
:101DF000000AF1EE400A9DED2D0A20EE800AFB4814
:101E000090ED001ADDED2E0A01EE600AF84890ED23
:101E1000001ADDED2F0A01EE600AF6EE000A20EE50
:101E2000200A8DED180AF348D0ED000A9DED2D0A29
:101E300020EE800AED4890ED001ADDED2F0A01EE4C
:101E4000200AEB4890ED001ADDED2E0A01EE600A43
:101E5000F6EE000A20EE200A8DED170AE548D0EDD7
:101E6000000A9DED2E0A20EE800ADF4890ED001A50
:101E7000DDED2F0A01EE600ADD4890ED001ADDED80
:101E80002D0A01EE200AF6EE000A20EE200A8DED62
:101E9000160AD848D0ED000A9DED2F0A20EE800AE0
:101EA000D14890ED001ADDED2E0A01EE200ACF4850
:101EB00090ED001ADDED2D0A01EE600AF6EE000A43
:101EC00020EE200A8DED150AB5EEC0EAF1EE10FA0B
:101ED00009D1F5EEC0CAF1EE10FA04D1B5EEC0FAA0
:101EE000F1EE10FA7ED06EEE0E0A4CEEAC0A4FEE1A
:101EF0000F0AB0EE600A02F0B1FDB0EE40AA2EEE7D
:101F00000A0AB0EE40EA2CEE8A0AF0EE40CA2FEE42
:101F10000A0AB0EE40FA6BEE0B0A49EE090A49EEE6
:101F2000A90AB0EE600A02F099FDB0EE40AA2BEECD
:101F30000A0AB0EE40BA29EE0A0AB0EE409A29EE3B
:101F40008A0AF0EE409AAB4890ED000AF0EE000AE3
:101F500020EE200A20EE0B0A8DED120A90ED000A09
:101F6000F0EE000A20EE200A20EE090A8DED110A9B
:101F700090ED000AF0EE000A20EE200A20EE290A79
:101F80008DED100A984890ED000AF0EE000A20EE60
:101F9000200A20EE0B0A8DED0F0A964890ED000AFC
:101FA000F0EE000A60EE200ACDED0C0A8E4890EDAE
:101FB000000AF0EE000A20EE200A8DED0B0A8B4895
:101FC00090ED000AF0EE000A20EE200A8DED0A0ADC
:101FD000874890ED000AF0EE000A20EE200A8DED11
:101FE000090A00E056E3834890ED000AF0EE000A8B
:101FF00020EE200A7D48D0ED000A60EE20FA90ED38
:10200000000AF0EE000A20EE200A7948D0ED000A1E
:1020100020EE200A8DED080A764890ED000AD0EDFA
:10202000000A20EE200A8DED070A90ED000A6E48A6
:10203000D0ED000A20EE20DA6E4890ED000A6B48E1
:10204000D0ED000A60EE20DA6A4890ED000A684898
:10205000D0ED000A20EE200A8DED060A624890EDD0
:10206000000AD0ED000A20EE20CA90ED000A5F4879
:10207000D0ED000A20EE200A8DED050A5A4890EDB9
:10208000000A5B48D0ED000A60EE20BA574890ED98
:10209000000AD0ED000A60EE20AA90ED000A544834
:1020A000D0ED000A20EE200A8DED040A90ED000A22
:1020B000D0ED000A60EE20EA9DED070A6BEE000A03
:1020C0009DED110A90ED001A40EE410A9DED100AB7
:1020D000464890ED001A40EE010AB0EE600A0BEEA1
:1020E0000C0ADDED0B0A60EE890A90ED001A00EE95
:1020F000810ADDED0B0A60EEA90A3D4890ED001A59
:1021000000EE810A0BEE6A0A0BEE6E0A8DED140AE0
:102110009DED120AD0ED000A20EE200ADDED070A3F
:1021200009EE200ADDED100A2F4890ED001A00EEAE
:10213000C10ADDED0F0A2D4890ED001A00EE810A6C
:1021400009EE4C0A09EE2A0ADDED0A0A60EEA90A38
:10215000274890ED001A00EE810A09EE6E0A8DED17
:10216000130A9DED140A60EE000A9DED130A40EE7D
:10217000000A10EE901A0846FEF7C9FACDE90001F0
:102180009DED000B01F0B8FB8DED020B9DED020BF8
:1021900051EC100BFEF7CEFA08EE100A9DED120A74
:1021A000B1EE400A1148D0ED000A20EE200ADDED24
:1021B000110A0D4890ED001A00EE810ADDED070AC4
:1021C00009EEA00ADDED0F0A094890ED001A00EEB5
:1021D000810A09EECC0ADDED0A0A60EE890A90ED6B
:1021E000001A00EE810A07E0AC000020B0000020D9
:1021F000B4000020A800002009EEEA0AF0EE408AB0
:1022000049EEAE8AB0EE000A28EE000A8DED0E0A05
:10221000B0EE000A68EE800ACDED0D0AF0EE000A7D
:10222000B0EE6F0A10EEAB0A70EE4E0A9DED0A0A90
:10223000B1EE400A20EE801A9DED080AF0EE000A89
:1022400000EE8D0A70EE6C1ADDED0B0AB0EE410A5D
:1022500000EEA10AF6EE000A70EEEA0A70EEEE0A4F
:1022600060EE880A3BEEED1A48EE810A70EECB0A6A
:10227000FE4890ED001A28EE811A01EE600AF1EE98
:10228000480AFB4890ED001A60EE811AF948D0ED3B
:10229000000A48EEA01ADDED050A9DED061A70EE63
:1022A000C10A20EE881ADDED040A7DEE200A08EE50
:1022B000A01A71EE490A01EEA00A7DEEAB0A60EEAB
:1022C000880AB6EE001A31EE4C1A31EE6A1A48EE60
:1022D000810A70EEE90AE54890ED001A28EE011A2D
:1022E00001EE200A8DED1C0AF0EE000AB0EE6F0A36
:1022F00010EEAB0A70EE4E0A9DED090A20EE801A30
:102300009DED080AF0EE000A00EE8D0A70EE6C1AE0
:10231000DDED0C0AB0EE410A00EEA10AF7EE000A6C
:10232000B0EE001A41EE4C0AB0EE001A41EE6A0A15
:1023300070EECF0ACF4890ED001AF1EE001A21EEB0
:10234000211A01EE600AF6EE000A70EEEA0A70EE5B
:10235000EE0A60EE880A3BEEED1A48EE810A70EE56
:10236000CB0AC34890ED001A28EE811A01EE200A2C
:10237000BE48D0ED000A68EE201ABF48D0ED000A32
:1023800048EEA01ADDED050A9DED061A70EEC10AB1
:1023900020EE881ADDED040A7DEE200A08EEA01A70
:1023A00071EE490A01EEA00AB148D0ED000A28EE0C
:1023B000201ADDED0D0AAF48D0ED001A00EEE11A4B
:1023C0007DEEAB0A60EE880AF6EE001A71EECC1ACA
:1023D00071EEEA1A48EEA10A70EEE90A01EE200A4F
:1023E0008DED1B0AF0EE000AB0EE6F0A10EEAB0A9C
:1023F00070EE4E0A9DED0C0AB1EE400A60EE800AC6
:102400009DED080AB0EE001A01EE0D0A70EE6C1A8E
:102410009DED091AB0EE600A01EE210AF7EE000AFE
:10242000B0EE001A41EE4C0AB0EE001A41EE6A0A14
:1024300070EECF0A8D4890ED001AF1EE001A21EEF1
:10244000211A01EE600ADDED0E0AF1EE600A90ED50
:10245000001A20EE811A8848D0ED000A08EEE01A32
:10246000F6EE000A70EEEA0A70EEEE0A60EE880AF6
:102470007BEEED1A48EEA10A70EECB0A01EE200ABF
:102480007C48D0ED000A68EE200A794890ED001AE9
:1024900048EE810A9DED051ADDED061A31EE611A4E
:1024A00021EE081ADDED041A7DEE211A08EEA11ABC
:1024B00031EE491A00EE810A6F48D0ED000A68EE4D
:1024C000200A9DED0D1A6948D0ED001A41EE610A0F
:1024D0003DEEAB1A21EE081AF6EE001A71EECC1A98
:1024E00071EEEA1A08EEA11A31EE691A00EE810ABD
:1024F0008DED1A0AF0EE000AB0EE6F0A10EEAB0A8C
:1025000070EE4E0A9DED0B0A60EE800A9DED080A02
:10251000B0EE001A01EE0D0A70EE6C1A9DED0A1A6B
:10252000B0EE600A01EE210ADDED0E0AF1EE600A5E
:102530004F4890ED001A20EE811A4E48D0ED000A67
:1025400008EEA01AF6EE000A70EEEA0A70EEEE0A45
:1025500060EE880A7BEEED1A48EEA10A70EECB0A17
:1025600001EE200AF1EE480A434890ED001A20EEF1
:10257000811A3E48D0ED000A08EEA01ADDED050AEA
:10258000DDED061A70EEE10A60EE881ADDED040A50
:102590007DEE200A48EEA01A71EEC90A01EE200A6B
:1025A0007DEEAB0A60EE880AB6EE001A31EE4C1AE8
:1025B00031EE6A1A48EE810A70EEE90A2D4890ED74
:1025C000001A28EE011A01EE200A8DED190ADDED40
:1025D0001C0A60EEA00A9DED1B1A41EE010A9DED5A
:1025E0001A1A41EE010A9DED191A41EE010AB0EEE8
:1025F000600A02F033FAB0EE40AA9DED1C0A20EE0C
:102600000A0A8DED1C0A9DED1B0A20EE0A0A8DEDCB
:102610001B0A9DED1A0A20EE0A0A8DED1A0A9DED9D
:10262000190A20EE0A0A8DED190A9DED180A1348C1
:1026300090ED001ADDED1C0A01EE600A8DED180A1E
:102640009DED170A90ED001ADDED1B0A01EE600A00
:102650008DED170A9DED160A90ED001ADDED1A0AB0
:1026600001EE600A8DED160A0AE00000B0000020BD
:10267000B4000020AC000020A8000020A40000202E
:102680009DED150A90ED001ADDED190A01EE600AC4
:102690008DED150A3748D0ED000A9DED180A9FED23
:1026A000361A40EE010AC0ED000A3448D0ED000AA7
:1026B0009DED170A9FED301A40EE010AC0ED000AA9
:1026C0002F48D0ED000A9DED160A9FED2B1A40EE23
:1026D000010AC0ED000A2B48D0ED000A9DED150A55
:1026E0009FED251A40EE010AC0ED000A2148D0ED09
:1026F000000A90ED001A60EE810A204890ED001A61
:10270000D0ED001A41EE210A1D4890ED001AD0EDDF
:10271000001A41EE210A1B4890ED001AD0ED001A74
:1027200041EE210AB0EE600A02F098F9B0EE40AA3C
:10273000104890ED000A20EE0A0A80ED000A0F48CA
:1027400090ED000A20EE0A0A80ED000A0C4890ED98
:10275000000A20EE0A0A80ED000A0A4890ED000AFD
:1027600020EE0A0A80ED000A1DB0BDEC108B0AB005
:1027700000BD0000A800002017B7D138AC00002031
:10278000B0000020B400002010B50249024802F059
:1027900083F910BD100200200030004001480249BA
:1027A000086070470090D003D800002010B502F0F8
:1027B0004DF810B17D487E49486702F05FF828B1B6
:1027C0007C480068C0F342307B49086002F080F822
:1027D00028B17A48006820F080707849086002F0DB
:1027E0008FF848B10020764908604FF08041C1F869
:1027F00010017149091F086002F0ACF818B10320FC
:102800006D496431086002F0BDF868B105206D497A
:10281000086001206B49783108600020694908315F
:1028200008603F20091F086002F0C4F8002855D056
:1028300065480068654908606348001D0068091D17
:102840000860614808300068091D08605E480C3067
:102850000068091D08605C4810300068091D0860A8
:10286000594814300068091D08605748183000683E
:1028700056492031086054481C300068091D086022
:10288000514820300068091D08604F482430006816
:10289000091D08604C4828300068091D08604A4836
:1028A0002C300068091D08604748303000684749EF
:1028B00040310860444834300068091D08604248CF
:1028C00038300068091D08603F483C300068091D29
:1028D00008603D4840300068091D0860374874387A
:1028E000006840F4700035497439086000BF00BFCB
:1028F00000BFBFF34F8F00BF00BF00BF00BF00BFCE
:1029000000BFBFF36F8F00BF00BF00BF304800683B
:1029100000F0004030B92E48001D006800F0004073
:10292000002840D001202B49086000BF2A480068D9
:102930000028FBD015202649086000BF2648006803
:102940000028FBD015212248001D016000BF22484D
:1029500000680028FBD000201E49086000BF1E4808
:1029600000680028FBD000BF00BF00BF00BF00BF51
:10297000BFF34F8F00BF00BF00BF1048F0380068A2
:1029800000F4E06015490843001D0C49F039086067
:1029900000BF00BF00BFBFF34F8F00BF00BF00BF2D
:1029A00000BF00BFFDE7FFF7F9FE10BD0DF0ADBAA7
:1029B00000C00740440200103C050040FCED00E070
:1029C0000C010040105600400404001020C50040D7
:1029D0000012001004E5014000E401400000FA0587
:1029E00010B50448007F10B104F06CF901E004F068
:1029F000B9F810BD380200200FB4054B10B503A97B
:102A0000044A029801F00CFA10BC5DF814FB0000B7
:102A10004D4A0000D000002003B401984100009806
:102A200050EAC12018BF04204A0D18BF40F0010031
:102A300040F2FF72B2EB515F08BF40F00200012884
:102A400008BF052002B070474100080218BF0420EB
:102A50000A0E18BF40F001004FF07F4232EA010138
:102A600008BF40F00200012808BF052070470000A1
:102A700070B5C1482DED020B2DED0E8B82B0119D6E
:102A800025F000449FEDBEDB9FEDBFEB84423EDBB3
:102A9000A4F140511098A1F17F6108430FD0BC48C8
:102AA000844202DC28D1109830B39DED100B02B0A7
:102AB000BDEC0E8B02B0BDE8704000F0F3BF9DEDA1
:102AC000100B53EC1D2B51EC100BFDF73FFD9DED52
:102AD000100B41EC180B53EC1E2B51EC100BFDF7B7
:102AE00035FD53EC182BFDF71CFF41EC100B02B029
:102AF000BDEC0E8B02B070BD012001F0D9F802B020
:102B0000BDEC0E8B02B0BDE8704000F0E1BFA14803
:102B10009FEDA18B844256DA9DED100BB4F1795FE5
:102B20000ADA51EC100BFFF777FF042808BF00F01A
:102B3000DFFF9DED100BDAE753EC102B51EC100B7F
:102B4000FDF704FD41EC190B95480621B0EE490A4A
:102B5000F0EE690A784400F029FF53EC192B51EC90
:102B6000100BFDF7F3FC41EC1A0B8E48B0EE490A4E
:102B7000F0EE690A0421784400F018FF53EC192B99
:102B800051EC100BFDF7E2FC53EC182BFDF7C9FEDE
:102B900041EC100B51EC1A0B53EC102BFDF748FDD8
:102BA000CDE900019DED000B53EC102B9DED100BBA
:102BB00051EC100BFDF7CAFC9DED101B53EC112BD3
:102BC000FDF7AFFED2E09DED100B51EC100B01F0C4
:102BD00009FF53EC182BFDF748FF9FED730BCDE970
:102BE000000153EC102B9DED000B51EC100BFDF789
:102BF000ADFC41EC190B6E480621B0EE490AF0EE2F
:102C0000690A784400F0D2FE53EC192B51EC100BFA
:102C1000FDF79CFC41EC1B0B6648B0EE490AF0EE58
:102C2000690A0421784400F0C1FE53EC192B51ECE1
:102C3000100BFDF78BFC53EC182BFDF772FE41ECEB
:102C40001C0B51EC190B03F027FC41EC180B5A48F4
:102C50009FED5BABA04222DC53EC1C2B51EC1B0B19
:102C6000FDF7E6FCCDE900019DED000B51EC180BE2
:102C700053EC102BFDF76AFC53EC182BFDF751FEBB
:102C800053EC1A2BFDF762FC53EC1D2BFDF7EAFE0B
:102C900053EC1E2BFDF7E9FE41EC100B5FE08DEDD0
:102CA000008B002000909DED000B51EC180B53ECB5
:102CB000102BFDF736FE9DED000B41EC1E0B53EC87
:102CC000102B51EC100BFDF741FC53EC192BFDF7C9
:102CD000CCFE53EC1E2BFDF7ABFC41EC190B53EC77
:102CE0001C2B51EC1B0BFDF7A3FC41EC1B0B53EC15
:102CF0001A2B51EC190BFDF729FC53EC1D2BFDF79A
:102D0000B4FE41EC190B53EC1A2B51EC180BFDF7E8
:102D10001DFC53EC1B2BFDF719FC53EC192BFDF795
:102D2000A1FE9DED000B41EC180B53EC1A2B51EC5E
:102D3000100BFDF70BFC9FED249B53EC192BFDF7BB
:102D400094FE41EC100B51EC180B53EC102BFDF7DB
:102D500089FE53EC192BFDF788FE41EC100B002D7A
:102D60003FF7C5AE51EC100B81F0004141EC100B68
:102D7000BDE60000000000000000F03F0000000081
:102D8000075C143326A6913C182D4454FB21F93FCF
:102D90000000F07F0000E03F000000000000F03F76
:102DA000904300009E430000000000000000E03F50
:102DB000E2420000F04200003333EF3F0000000029
:102DC0000000000000000040182D4454FB21E93FA2
:102DD00010B54FF00E402DED028BB0EE408A18EE8C
:102DE000104A00EB4400B0F1506F4AD84FF0FC405D
:102DF000B0EB440F22D2B0EEC80AF7EE000A30EE74
:102E0000C00AF6EE000A60EE208A18EE900A03F07F
:102E10007AFB01EE100A14F0004F1DBFDFED2D0A02
:102E20009FED2D0AB1EE411ADFED2C0A08BF9FED90
:102E30002C0AF8EE001A21EE218A05E0DFED290ABE
:102E400068EE088AB0EE600A9FED271ADFED271AB8
:102E500030EE080A48EE811A9FED251A08EEA11AF5
:102E6000DFED241A48EE811A9FED231A08EEA11A0D
:102E700068EE281ABDEC028B01EE810A30EE200AC2
:102E800010BD4FF0E440B0EB440F0CD918EE100A1F
:102E9000FFF7DAFD042808BF00F048FEB0EE480A4C
:102EA000BDEC028B10BD4FF07F40B0EB440F07D25A
:102EB000B0EE480ABDEC028BBDE8104000F028BE21
:102EC000012000F0F5FEBDEC028BBDE8104000F0E3
:102ED00025BE00000000C9BF22AAFDB90000C93FFD
:102EE00022AAFD390000000024FE1C3DC78AD83C00
:102EF0001E67383D1B93993DAFAA2A3E0000000093
:102F000070B59B482DED020B2DED068B079D25F02E
:102F10000044A04218DC9748844202DC0AD106989B
:102F200040B19DED060BBDEC068B02B0BDE87040D4
:102F300000F0B8BD002DCCBF9FED8F0B9FED900B27
:102F4000BDEC068B02B070BD8F48A04215DD8F48E6
:102F5000A042D8BF4FF0FF3458DD9DED060B51EC79
:102F6000100BFFF759FD042808BF00F0C1FD9DEDCF
:102F7000060BBDEC068B02B070BD9DED060B51EC4F
:102F8000100B01F02FFDCDE9060181489FED828BEA
:102F9000A0423CDD8248A0421FDD00249FED82ABB1
:102FA0009DED060B53EC1A2B51EC100BFDF7B9FC01
:102FB0009DED060B41EC190B53EC1A2B51EC100B49
:102FC000FDF7C4FA53EC182BFDF74CFD53EC192B0D
:102FD000FDF72EFBCDE9060149E09DED060B01242E
:102FE00053EC182B51EC100BFDF79BFC9DED060BE1
:102FF00041EC190B53EC182B51EC100BFDF732FD83
:1030000053EC192BFDF714FBCDE906012FE06848BE
:10301000A0421FDD02249FED689B9DED060B53EC43
:10302000192B51EC100BFDF791FA53EC182BFDF70F
:1030300078FC9DED060B41EC180B53EC192B51EC71
:10304000100BFDF70FFD53EC182BFDF7F1FACDE94E
:1030500006010CE09DED060B032453EC102B9FEDB5
:10306000580B51EC100BFDF7E3FACDE906019DED8D
:10307000060B53EC102B51EC100BFDF767FA41ECEB
:10308000180B53EC182BFDF761FA41EC190B4E4865
:103090000621B0EE490AF0EE690A784400F086FC99
:1030A00053EC182B51EC100BFDF750FA41EC180BB8
:1030B0004648B0EE490AF0EE690A0521784400F06E
:1030C00075FC53EC192B51EC100BFDF73FFA41EC5A
:1030D000100B51EC180B53EC102B002C0EDAFDF7F3
:1030E00020FC9DED061B53EC112BFDF72FFA9DEDF7
:1030F000061B53EC112BFDF7B8FC35E0FDF711FC76
:103100009DED061B53EC112BFDF720FA41EC100B43
:103110002F48784400EBC40090ED001B51EC100BDD
:1031200053EC112BFDF79EFC9DED061B53EC112B70
:10313000FDF798FC41EC100B2648784400EBC400E6
:1031400090ED001B51EC100B53EC112BFDF78DFC97
:1031500041EC100B002DA2BFBDEC068B02B070BD80
:1031600051EC100B81F0004141EC100B01E7000025
:10317000000010440000F07F182D4454FB21F93F5B
:10318000182D4454FB21F9BF0000DC3F0000203E15
:103190000000F33F00000000000000000000F03FCE
:1031A0000000E63F000000000000000000000040BA
:1031B0000080034000000000000000000000F83F15
:1031C000000000000000F0BF023F0000B83E000019
:1031D000423E0000FA3D000070B56B4E2DED040B31
:1031E0002DED028B82B0DDF81CC0DDE905235C42C9
:1031F0002CF000411C4341EAD474049D22F00040AD
:10320000B44205D86C422C4340EAD474B4420BD982
:103210009DED061B9DED040B02B0BDEC028B04B0CE
:10322000BDE8704000F048BCACF14054A4F17F64AC
:103230001C430BD0022404EAAC7444EAD274054364
:103240009FED538B9FED542B07D015E09DED040BA4
:1032500051EC100B01F0F2FA42E0002C11BF012CEE
:103260009DED040B02B0BDEC028B04BF04B070BD39
:10327000022C38D0032C3BD00B439FED491B9FED14
:103280004A0B0AD0B14218D1B04209D121F0804195
:1032900020F08040079105900FE0002A15DA10E039
:1032A000434B7B44002C08BF93ED000B0DD0012C49
:1032B00010D0022C17D0032C1AD0B0421DD1002AF6
:1032C00003DAB0EE410AF0EE610A02B0BDEC028B07
:1032D00004B070BD93ED000B51EC100B81F0004178
:1032E00041EC100BF1E7B0EE480AF0EE680AECE7AB
:1032F000B0EE420AF0EE620AE7E7401A00153C28F9
:10330000C8BF8DED000B19DCBCF1000FBEBF10F182
:103310003C0F9FED290B8DED000B0FDB9DED060B98
:1033200053EC102B9DED040B51EC100BFDF780F9C5
:1033300001F058FB01F082FACDE90001002C08BF32
:103340009DED000BC1D0012C10D0022C9FED1C0B69
:1033500053EC102B9DED000B51EC100B0DD0FDF735
:1033600081FB53EC182BFDF77DFBB9E7019880F04A
:10337000004001909DED000BA7E7FDF773FB53ECB8
:10338000182BFDF772FBABE70000F07F0000000098
:10339000182D4454FB210940182D4454FB2109C029
:1033A000182D4454FB21F9BF182D4454FB21F93F3B
:1033B0002A3D0000000000000000000000000000A6
:1033C000075C143326A6A13C10EE100A10B510EECF
:1033D000901A4FF0684202EB40032DED028BB3F1DF
:1033E000654F3CBF02EB4102B2F1654F7CD200BF9A
:1033F000C0F3C753C1F3C7529A1A1B2A09DD10F054
:10340000004F14BF9FED6E0A9FED6E0ABDEC028B5C
:1034100010BD12F11A0F1BDA11F0004F09D010F095
:10342000004F0CBF9FED680A9FED680ABDEC028B50
:1034300010BD80EE208A18EE100AFFF705FB042865
:1034400008BF00F073FBB0EE480ABDEC028B10BD64
:103450004200B2EB410F37D910F0004F19BFDFED3A
:103460005C1A9FED5C1ADFED5C1A9FED5C1AB0EE02
:10347000602A0A46F1EE400A80F00041B0EE420AAE
:1034800010460A1A5200B2F1807F34D2484010F040
:10349000004FDFED532A9FED533A1DBFBEEE002AC9
:1034A00071EEE21A31EE431AB6EE002A04BF71EE55
:1034B000A21A31EE031AF0EE402A42EE602A40EEE4
:1034C000020A82EEA02A18E011F0004F04BF9FED1F
:1034D000461AF0EE411AD4D010F0004F1CBFDFEDB9
:1034E000431A9FED431A00E026E004BFDFED411AC6
:1034F0009FED411AC5E780EE202A22EE020ADFED99
:103500003F0ADFED3F2ABDEC028B40EE202ADFEDC3
:103510003D0A40EE220ADFED3C2A40EE202ADFED94
:103520003B0A40EE220A22EE000A00EE201A31EE9B
:10353000020A30EE210A10BD4FF07F42B2EB400F7D
:1035400028BFB2EB410F05D2BDEC028BBDE81040A5
:1035500000F0E1BA40EA01035B0008BF41F0FF411F
:103560000BD0B2EB400F08BFB2EB410F08D120F0F7
:10357000804000EE100A21F0804100EE901A37E7FB
:10358000B2EB400F12BF5FEA410240F0FF4001F092
:1035900000413FF42DAF4A0092EA40033FF528AFC7
:1035A000002AACBF9FED1A1A9FED1A1A20EE010AED
:1035B00060EE810A10EE100A10EE901A18E7000073
:1035C000DB0FC9BFDB0FC93FDB0F4940DB0F49C031
:1035D0000000C9BF22AAFDB90000C93F22AAFD39D7
:1035E0000060ED3EC30ACE3700000000000049C075
:1035F00022AA7DBA0000494022AA7D3A2DAD65BDC0
:103600008FB8D53D0FB511BE61C84C3EA8AAAABE61
:103610000000804F0000802F10EE101A08B5444AB9
:103620006846B2EB410F28D94FF0E640B0EB410FAE
:1036300094BF00204FF0FF3000900098002861DB1D
:1036400060EE000A10F0010F45D010F0020FDFED20
:10365000391A9FED391A00EEE11ADFED381A40EE03
:10366000811A21EEA01AF0EE400A40EE010A08BFCE
:10367000F1EE600AB0EE600A08BD314B21F0004265
:1036800093423CD911F0004FDFED2E0A20EE201AB4
:10369000DFED2D0A19BF31EE601A71EE200A31EE0E
:1036A000201A71EE600ABDEEE01A11EE100A9FEDCD
:1036B000271A00F0030000EEC10A9FED251A0090C2
:1036C00000EEC10A9FED231A00EEC10A9FED221AF7
:1036D00000EEC10AB1E79FED211A9FED210A10F01B
:1036E000020F00EE810A9FED1F1A00EE801AB7EE5E
:1036F000000A00EE810A18BFB1EE400A08BD00F0D2
:103700001DFA9AE710EE100A4000B0F17F4F3CBF5F
:10371000B7EE000A08BD07D14FF0010000F0C8FA6B
:10372000BDE8084000F0FAB9BDE8084000F0F0B983
:10373000B61F927E336D4C39DA82083CA0AA2ABEAD
:10374000490E494683F9223F0000004B0000C93F63
:1037500000A0FD390020A2331A61342CB93AB2BA64
:10376000CA9F2A3DDDFFFFBE00B510EE101A2DEDF9
:10377000028B81B0524A6846B2EB410F2ED94FF00E
:10378000E640B0EB410F94BF00204FF0FF300090B7
:103790000098B0EE408A00286ADB10F0010F4BD091
:1037A00068EE080A9FED471A9FED470A00EE810A6E
:1037B0009FED461A10F0020F00EE801AB7EE000AD5
:1037C00000EE810A02BF01B0BDEC028B00BD00BF5C
:1037D00001B0B1EE400ABDEC028B00BD3C4B21F0C4
:1037E0000042934241D911F0004FDFED3A0A20EE3A
:1037F000201ADFED390A19BF31EE601A71EE200A86
:1038000031EE201A71EE600ABDEEE01A11EE100AD8
:103810009FED321A00F0030000EEC10A9FED301A4E
:10382000009000EEC10A9FED2F1A00EEC10A9FED35
:103830002E1A00EEC10AABE728EE080A9FED2B1AFC
:10384000DFED2B0A10F0020F40EE410A9FED291A1E
:1038500000EE201A61EE000AB0EE480A08EE200AD7
:10386000B6D101B0BDEC028B00BD00F067F98FE767
:1038700018EE100A4000B0F17F4F0DD218EE100A7A
:10388000FFF7E2F8042808BF00F050F9B0EE480A4C
:1038900001B0BDEC028B00BD09D1012000F008FA97
:1038A00001B0BDEC028B5DF804EB00F037B901B05C
:1038B000B0EE480ABDEC028B5DF804EB00F028B9CD
:1038C000B61F927EB93AB2BACA9F2A3DDDFFFFBE4B
:1038D000490E494683F9223F0000004B0000C93FD2
:1038E00000A0FD390020A2331A61342C336D4C390D
:1038F000DA82083CA0AA2ABE00B52DED048BB0EEFA
:10390000409AF0EE609A83B051EC190BFDF7B0F8D5
:1039100041EC180B18EE100A18EE901A8DED008B82
:10392000002818BF0120084320F00040C0F17F604C
:1039300000F1E040C00F14D019EE101A19EE900AF1
:103940008DED009B002918BF0121084320F00040A5
:10395000C0F17F6000F1E040C00F04BF012000F023
:10396000A7F9B0EE480A03B0F0EE680ABDEC048B8C
:1039700000BD10B52DED028BB1EEC08A18EE100A15
:1039800020F00040C0F1FF40C00F0AD010EE100A36
:1039900020F00040C0F1FF40C00F04BF012000F044
:1039A00087F9B0EE480ABDEC028B10BD70B5044635
:1039B0002DED028B4D1E00EBC500B0EE408AF0EEFF
:1039C000608A90ED000B35F0060017D053EC182BF1
:1039D00051EC100BFCF7BAFD41EC100B6D1E04EB23
:1039E000C50090ED001B51EC100B53EC112BFCF7B4
:1039F00098FF41EC100B35F00600E7D1022D36D0D0
:103A0000042D1CD0062D1CBFBDEC028B70BD53ECE9
:103A1000182B51EC100BFCF799FD94ED0A1B53EC9D
:103A2000112BFCF77EFF53EC182BFCF78FFD94ED68
:103A3000081B53EC112BFCF774FF41EC100B53ECFB
:103A4000182B51EC100BFCF781FD94ED061B53EC89
:103A5000112BFCF766FF53EC182BFCF777FD94ED68
:103A6000040B53EC102BFCF75CFF41EC100B53ECF8
:103A7000182B51EC100BFCF769FD94ED021B53EC75
:103A8000112BFCF74EFF53EC182BFCF75FFD94ED68
:103A9000001B53EC112BFCF744FFBDEC028B41ECF7
:103AA000100B70BD10B553EC102B51EC100BFCF744
:103AB00038FF41EC100B10BD10B553EC112B51EC3D
:103AC000100BFCF72EFF41EC100B10BD00000000A6
:103AD0009FED050B10B553EC102B51EC100BFCF7C0
:103AE000A7FD41EC100B10BD00000000000000001D
:103AF0009FED050B10B553EC102B51EC100BFCF7A0
:103B000025FD41EC100B10BD00000000000000106E
:103B100030EE000A704730EE200A7047DFED020AEF
:103B200080EEA00A70470000000000009FED020A2E
:103B300020EE000A70470000000000102DE9F0019F
:103B40004FF07F42B2EB410F9FBF4FF0FF3101605A
:103B5000BDE8F00170474FF0004242EA0123C1F393
:103B6000C752783A551112F01F0C434CCCF1200685
:103B70007C44C1F3C752A2F178024FEA621204EB0F
:103B8000820254F8254008BFD2E9015612D0556888
:103B900004FA0CF425FA06F73C43976805FA0CF58D
:103BA00027FA06F8D26807FA0CFCF24045EA080545
:103BB0004CEA0206A4FB034CA5FB0352A6FB0363DD
:103BC0001D449D4234BF012600261319334416B10B
:103BD000934202D903E0934201D2012200E0002285
:103BE000624402F1200C9206DC0C42EA443200EE00
:103BF000102A5B03DFED210AF8EEC01A00EE103A3E
:103C00004FEA9C1C11F0004FB8EE400AC0F800C00B
:103C100020EE201A00EE105ADFED190AB8EE400A25
:103C200020EE200A71EE810A70EE800A10EE902AD2
:103C300002F500626FF30B0200EE902A70EEE11ABB
:103C400031EEC11ADFED101A30EE411A9FED0D0A68
:103C500020EE800A01EE210A9FED0C1A00EE810A87
:103C600004BFBDE8F0017047CCF180510160BDE8B0
:103C7000F001B1EE400A70476434000000000036E5
:103C80000000802C22AAFD29DB0FC92F0000C92FBC
:103C900002E008C8121F08C1002AFAD17047704715
:103CA000002001E001C1121F002AFBD17047000073
:103CB0000149086070470000DC0000202DE9FF5F2B
:103CC000DDE90220010DDDF838B0024318D044F6DA
:103CD0001050A1F2FF3141430D140F98012820D05C
:103CE000A5EB0B00401C5FEA000A4FF00004474EB2
:103CF000DFF81C91A046504616D5CAF1000728E00F
:103D00000F98012443A2012808D0002100980F9B9E
:103D1000C0E90021C0E90243BDE8FF9F6FEA0B0143
:103D2000F4E7CBF10000DEE7074612E0F80707D022
:103D30002246334640464946FCF708FC8046894601
:103D40002246334610461946FCF700FC04460E4650
:103D50007F10002FEAD1DDE90201BAF1000F4246DF
:103D60004B4602DAFCF7F2FB01E0FCF761FC04468B
:103D70000E460022284BFCF7E5FE03D84FF0FF303B
:103D8000014607E00022254B20463146FCF7C9FDDD
:103D9000FCF7BFFE102409E0002C0ADB0A220023F6
:103DA000FCF7FAFC019B30321A55641E50EA0102FE
:103DB000F2D1641C019AC4F1110314440F9A012A30
:103DC00003D0012208430DD10AE0084304D00020AB
:103DD0004FF0110B0F9080E7A3EB0B056D1E0DE06C
:103DE0005B4504DD4FF0000205F1010504E003DA54
:103DF0004FF00002A5F10105002AECD000980F99C0
:103E0000C0E90231C0E9004586E700000000244017
:103E10000000F03F300000000000F0430000E03FF1
:103E20002DE9FF4F95B09B468946064600250FE2D7
:103E3000252877D100242746F84A0121059400E07F
:103E4000044316F8013F203B01FA03F01042F7D17A
:103E500030782A2811D06FF02F033078A0F130028B
:103E6000092A16D8059A44F0020402EB820203EBF9
:103E700042021044761C0590EFE759F8042B059296
:103E8000002A03DA504244F40054059044F002043E
:103E9000761C30782E2816D116F8010F44F0040451
:103EA0002A280DD06FF02F023078A0F13003092BB3
:103EB00009D807EB870302EB4303C718761CF3E727
:103EC00059F8047B761C30786C280FD006DC4C281F
:103ED00017D068280DD06A2814D104E0742810D0B7
:103EE0007A280FD10DE044F400140AE044F4801461
:103EF00001E044F440147278824202D104F5801447
:103F0000761C761C307866280BD013DC582877D0C6
:103F100009DC002875D04528F6D04628F4D047287B
:103F20001AD19DE118E0632835D0642879D065283E
:103F300012D195E1702873D008DC6728F1D0692888
:103F40006FD06E280DD06F2806D1B5E073282CD025
:103F5000752875D0782874D05A46179990476D1CEB
:103F600075E1C4F30250022809D003280DD0D9F816
:103F7000001004280DD00D6009F1040967E1D9F89B
:103F80000010EA17C1E90052F6E7D9F800100D80D9
:103F9000F2E70D70F0E719F8041B8DF8001000200F
:103FA0008DF80100EA46012003E059F804AB4FF018
:103FB000FF3061074FF0000102D40DE008F101016C
:103FC0008846B9420FDA8045F8DB1AF80810002954
:103FD000F4D108E008F1010188468142FADB1AF8C1
:103FE00008100029F6D105985B46A0EB080721468A
:103FF0003846179A00F094FA284400EB080507E0C9
:104000004DE029E10DE01AF8010B5A461799904747
:10401000B8F10108F7D25B4621463846179A13E1FA
:1040200042E00A220092C4F302524FF0000A022A30
:1040300008D059F804CB032A4FEAEC710AD00DE0FE
:1040400029E02AE009F1070121F00702F2E802C1A4
:10405000914609E00FFA8CFC4FEAEC71042A03D177
:104060004FFA8CFC4FEAEC71002907DA0A4600216E
:10407000DCF1000C61EB02012D2202E0220504D5E7
:104080002B228DF80420012203E0E20701D0202238
:10409000F7E7904659E00A2102E010220DE01021D6
:1040A0004FF0000A00910BE010224FF0000A44F09C
:1040B00004040827009203E008224FF0000A00924F
:1040C000C4F30252022A05D059F804CB0021032A76
:1040D00008D009E009F1070121F00702F2E802C166
:1040E000914605E01FFA8CFC042A01D10CF0FF0C6C
:1040F0004FF00008220728D5702806D0009B83F0D7
:10410000100353EA0A0305D00EE040228DF8042084
:10411000012208E05CEA010206D030228DF804207A
:104120008DF8050002229046009B83F0080353EAB5
:104130000A030AD15CEA010201D1620705D53022E7
:104140008DF804204FF001087F1E582804D034A0B9
:1041500003900EA802900DE036A0F9E753466046A2
:10416000009AFCF719FB84460398825C0298401E73
:10417000029002705CEA0100F0D1029806A9081AC8
:1041800000F1200A600702D524F4803400E0012702
:10419000574502DDA7EB0A0000E0002000EB0A0112
:1041A000009005984144401A0590E00306D45B4610
:1041B0002146179A059800F0B3F90544002706E058
:1041C00001A85A46C05D179990476D1C7F1C474552
:1041D000F6DBE0030CD55B462146179A059800F004
:1041E0009FF9054404E030205A46179990476D1C0A
:1041F0000099481E00900029F5DC08E00298029919
:104200005A460078491C0291179990476D1CBAF1E3
:104210000001AAF1010AF1DC65E1000009280100B2
:10422000303132333435363738396162636465662C
:1042300000000000303132333435363738394142EE
:10424000434445460000000000F058F90544761C40
:10425000307800287FF4ECAD19B02846BDE8F08F27
:10426000620700D4062709F1070222F0070CFCE8D8
:104270000223E14603F000485FEA080C02D00FF287
:10428000702C0DE05FEA045C02D50FF2682C07E0A9
:104290005FEAC47C02D00FF2602C01E0AFF2700C38
:1042A0004FF0FF3823F00043CDF850C065280CD004
:1042B00006DC452809D046281DD047283DD13DE0E1
:1042C000662818D067287ED138E00021112F01DB45
:1042D000112000E0781CCDE9000106A90EA8FFF727
:1042E000EDFCDDE90F010E9A03910021009207F128
:1042F000010A04914DE04FF000400097CDE9011014
:1043000006A90EA8FFF7DAFCDDE90F0203920E9B67
:1043100011990022DDF80CA00093049211B9791CC8
:1043200000EB010AB7EB0A0004D4C0F1FF3007F13B
:10433000010A0490AAEB0700019044E0012F00DA83
:1043400001270021112F01DD112000E03846CDE9C1
:10435000000106A90EA8FFF7B1FCDDE90F010E9AD6
:104360000391002104910092BA4621070CD40399CD
:10437000514500DA8A46BAF1010F05DD009AAAF12B
:104380000101515C302908D0B84202DA10F1040F63
:1043900006DA0121CDE9011015E0AAF10101E9E7F2
:1043A000002805DC049901440491AAEB000102E015
:1043B000411C514500DD8A460499401A401C019079
:1043C0004FF000400290200704D40198504501DBD3
:1043D000CDF8048000208DF84F0002980DF14F07B2
:1043E000B0F1004F25D02B200E9002984FF002081C
:1043F00000280CDA404202902D200E9007E00A219E
:104400000298FCF7B3F93031029007F8011DB8F1BA
:104410000001A8F10108F2DC02980028EFD1791E12
:104420000E980870307800F0200040F0450007F842
:10443000020D12A8C01B00F107081498007800B103
:10444000012000EB0A01019801EBE071059841445D
:10445000401A401E0590E00306D45B462146179A99
:10446000059800F05DF805441498007818B15A4694
:10447000179990476D1CE00324D55B462146179A97
:10448000059800F04DF805441CE00498002807DB6F
:10449000DDE90301884203DD0098405C179901E0E3
:1044A000179930205A469047049805F10105401CA1
:1044B00004900198401E019004D12E205A4617996D
:1044C00090476D1CBAF10001AAF1010ADDDC05E09C
:1044D00017F8010B5A46179990476D1CB8F1000167
:1044E000A8F10108F4DC5B462146179A0598ABE673
:1044F0002D0000002B000000200000002DE9F041FD
:10450000044600251E461746880404D405E03946B3
:104510002020B0476D1C641EF9D52846BDE8F08107
:104520002DE9F041044600251E469046C80301D5FA
:10453000302700E02027880404D505E041463846AE
:10454000B0476D1C641EF9D52846BDE8F081000017
:1045500070B504460D46164600BF4FF4F0100649EC
:1045600008600020091F086000BF32462946204627
:1045700000F014F870BD00000C050050FEB50446B4
:104580000E461546B0B2ADF80000019502946A4699
:10459000002144F20100FFF7DBFFFEBD18B5012347
:1045A00000939DF800301B4B186059609A606FF4BF
:1045B0008043034463B1012B19D1164BDA60DB68E9
:1045C0001B88144CA3612346DB685B68E3610EE043
:1045D000104B1A611B699B680E4C636123461B6973
:1045E0001B88A36123461B695B68E36100BF00BFB2
:1045F000084B1B68074B5B68064B9B68054BDB68E9
:10460000044B1B69034B5B69024B9B69014BDB69E4
:1046100018BD00005802002070B504460D46204623
:1046200000F0FDF928B12946204600F0E7F9002006
:1046300070BD0520FCE7034609B90E20704712B192
:10464000501E104008B10920F8E71960501E9880EC
:1046500000209860D86000BFF0E770B504460D46B2
:10466000204600F0DCF9A188884205D8294620467A
:1046700000F0E3F9002070BD0420FCE72DE9F041D3
:1046800088B004460D4617469846294807601DB96C
:10469000072008B0BDE8F081A88882B225482968C3
:1046A000FFF7C9FF064600BF0EB13046F1E700BF75
:1046B000A88982B22048A968FFF7BDFF064600BF5F
:1046C0000EB13046E5E700BF20221C496846FBF7E3
:1046D0002BFFA0680690207908B1012000E000209F
:1046E0008DF814008DF81C80607908B10E2000E070
:1046F00000208DF81500E0780290A07803902078D3
:104700000190607800900E49684601F08DFB0646E6
:1047100000BF0EB13046BCE700BF9DF81D0008B9D0
:1047200001F04CFC0121074801F0F0FBB1E700006B
:10473000C8000020F0010020000200208C6E000064
:10474000616A0000CD00002070B5044621460A4889
:10475000FFF783FF054665B901F096FD48B90749A3
:104760000548FFF759FF20B90121044801F0EAFC90
:104770000546284670BD000000020020CC00002045
:1047800010B50446206801F0C5FD206801F0A5FDC4
:104790000021606801F094FD2548007F18B3A069EE
:1047A0002449086000BF607D217D40EA0102224B60
:1047B000C3F86C2500BF1846D4E9001201F018FEBA
:1047C000207D012832D10021A06801F079FDE06848
:1047D00001F0A0FDE06801F080FD1748D4E9022156
:1047E00001F0F2FD22E0A0691249086000BF607D7F
:1047F000217D40EA0102104BC3F86C2500BF18462A
:10480000D4E9001201F0CBFD207D01280ED100215A
:10481000A06801F055FDE06801F07CFDE06801F062
:104820005CFD0548D4E9022101F0A2FD10BD0000A5
:1048300038020020242500400020004010B541EC43
:10484000100BFEF75DFB51EC100B10BD0A48007811
:1048500006280ED10848001D007800F00F0040B96E
:1048600005480830007800F0F000302801D1012020
:1048700070470020FCE70000E00F00F013480078CC
:10488000062820D11148001D007800F00F00D0B993
:104890000E480830007800F0F000302801D10120E7
:1048A00070470A480830007800F0F000402801D135
:1048B0000120F5E705480830007800F0F0005028A6
:1048C00001D10120ECE70020EAE70000E00F00F052
:1048D0000A48007806280ED10848001D007800F02C
:1048E0000F0040B905480830007800F0F00030288B
:1048F00001D1012070470020FCE70000E00F00F02C
:1049000013480078062820D11148001D007800F0D7
:104910000F00D0B90E480830007800F0F0003028C1
:1049200001D1012070470A480830007800F0F000FB
:10493000402801D10120F5E705480830007800F053
:10494000F000502801D10120ECE70020EAE7000048
:10495000E00F00F00A48007806280ED10848001D34
:10496000007800F00F0040B905480830007800F0EA
:10497000F000302801D1012070470020FCE7000042
:10498000E00F00F00A48007806280ED10848001D04
:10499000007800F00F0040B905480830007800F0BA
:1049A000F000302801D1012070470020FCE7000012
:1049B000E00F00F00A48007806280ED10848001DD4
:1049C000007800F00F0040B905480830007800F08A
:1049D000F000502801D1012070470020FCE70000C2
:1049E000E00F00F082B0CDE9000121F0004001901D
:1049F0009DED000B02B051EC100B704770B50446F2
:104A00000D462A460021204600F00EF8A068401C02
:104A1000A06070BD01468A68C868801A7047014668
:104A20008A68C868801A704710B583680B44848808
:104A300023400468E35C137010BDC26883881A4089
:104A400003689954C268521CC260704770B504462E
:104A50000D46E0B2FFF778FE204670BDF0EE400A4A
:104A6000F6EE001A60EEA11AB0EE611AB0EE600A1E
:104A700010EE100A0749A1EB600000EE100A21EECB
:104A8000002AF7EE081A42EE401A61EE801AB0EEE4
:104A9000610A7047DF59375F7FB505460C4694F8C9
:104AA000210094F82010CDE9001004F12602D11E57
:104AB0002846E36901F029FE00B17FBD94F8230088
:104AC00048BB207B022802D0207B032823D1E16948
:104AD000206981421FD16069E061E07B84F8200099
:104AE000207EC0F3401084F82100207B03280AD1E7
:104AF00094F82100009094F8203029462046E2697D
:104B000001F094FE33E094F8203029462046E26913
:104B100001F084FD2BE0D4E90412E06801AB07C387
:104B200094F82300A0B100BFD5F8C414C5F8C4148C
:104B300000BF084600F0020119B101218DF80010F4
:104B400005E000F0040111B102218DF8001002E02F
:104B500000208DF80000002084F82400207E00F062
:104B6000040018B96846D4E90021904700BF00BF8F
:104B7000A3E70000D4B001F03DFF00F0B7FE00F065
:104B800028FEFCE351A800F061FE539000BF53984B
:104B90004C904C9830B100BFFEA28B214C98FFF78F
:104BA000EDFC00BF00BFBDF84801FE490880BDF81C
:104BB0004601FD490880BDF84401FC4908804FA822
:104BC00000F05EFE539000BF53984C904C9830B16B
:104BD00000BFF0A293214C98FFF7D0FC00BF00BFAC
:104BE000BDF84001F2490880BDF83E01F149088056
:104BF000BDF83C01F049088000214DA800F05AFEA4
:104C0000539000BF53984C904C9830B100BFE1A234
:104C10009C214C98FFF7B2FC00BF00BFBDF83401E7
:104C2000E6490880BDF83601E5490880BDF838013D
:104C3000E4490880DB48B0F9000000EE100AB8EE45
:104C4000C00A10EE100AFBF762FD9FEDDF0B53EC7C
:104C5000102B499148909DED480B51EC100BFBF740
:104C6000E7FC4B914A909DED4A0B51EC100BFBF782
:104C700061FDD7490860CC48B0F9000000EE100A89
:104C8000B8EEC00A10EE100AFBF741FD9FEDCE0B07
:104C900053EC102B499148909DED480B51EC100BB3
:104CA000FBF7C6FC4B914A909DED4A0B51EC100B63
:104CB000FBF740FDC7490860BC48B0F9000000EEB2
:104CC000100AB8EEC00ADFEDC40A30EE600A8DEDBE
:104CD000470A4798FBF71BFD9FEDBB0B53EC102BCE
:104CE000499148909DED480B51EC100BFBF7A0FC4F
:104CF0004B914A909DED4A0B51EC100BFBF71AFDBE
:104D0000B6490860AA48B0F9000000EE100AB8EEF3
:104D1000C00A10EE100AFBF7FAFC9FEDB10B53EC42
:104D2000102B499148909DED480B51EC100BFBF76F
:104D30007FFC4B914A909DED4A0B51EC100BFBF719
:104D4000F9FCA94908609B48B0F9000000EE100A80
:104D5000B8EEC00A10EE100AFBF7D9FC9FEDA00BCD
:104D600053EC102B499148909DED480B51EC100BE2
:104D7000FBF75EFC4B914A909DED4A0B51EC100BFA
:104D8000FBF7D8FC994908608B48B0F9000000EEA9
:104D9000100AB8EEC00A10EE100AFBF7B8FC9FED3F
:104DA000900B53EC102B499148909DED480B51EC22
:104DB000100BFBF73DFC4B914A909DED4A0B51ECDB
:104DC000100BFBF7B7FC8A490860814890ED000A98
:104DD000884880ED000A7F4890ED000A864880ED03
:104DE000000A7E4890ED000A844880ED000A7E4863
:104DF00090ED000A824880ED000A7C4890ED000AA0
:104E0000804880ED000A084690ED000A7E4880ED5B
:104E1000000A6A48B0F9000000EE100AB8EEC00AB5
:104E20007A4880ED000A6648B0F9000000EE100AEA
:104E3000B8EEC00A764880ED000A6248B0F900007A
:104E400000EE100AB8EEC00A724880ED000A90ED3C
:104E5000004A6F48D0ED003A6C4890ED003A674840
:104E6000D0ED002A644890ED002A6248D0ED001A87
:104E7000654890ED001A6348D0ED000A604890ED57
:104E8000000AFCF7A1FF64480068FBF740FC499169
:104E900048906248D0ED000AB0EE000A20EE800A89
:104EA000D0ED000A20EE200A5D48D0ED000AB0EEF9
:104EB000001A60EE810A90ED001A00EE810AF7EE0A
:104EC000000A30EE600A8DED3F0A3F98FBF71FFCA9
:104ED00043914290524890ED000AF0EE000A60EED5
:104EE000200A504890ED000A20EE800A4B48D0ED91
:104EF000000AB0EE001A60EE810A4B4890ED001AED
:104F000000EEC10A8DED3F0A3F98FBF700FC41918E
:104F100040909DED421B9DED400BFEF75DF98DED40
:104F2000440B9FED420B53EC102B9DED440B51ECC9
:104F3000100BFBF70BFB479146909DED480B53EC94
:104F4000102B9DED460B51EC100BFBF771FB4B91B9
:104F50004A909DED4A0B51EC100BFBF7EBFB3549EA
:104F600008602D480068FBF7D2FB499148902C4817
:104F700090ED000AF0EE000A20EE200A2A48D0ED5B
:104F8000000A20EE200A2548D0ED000AB0EE001AF3
:104F900052E000002E2E5C2E2E5C2E2E5C6D616980
:104FA0006E2E63000000002002000020040000209C
:104FB00006000020080000200A0000200C0000204D
:104FC0000E00002010000020000000000000D04073
:104FD000380000203C0000200000804640000020F7
:104FE000FCA9F1D24D62404044000020480000205E
:104FF0004C000020880000208C0000209000002041
:105000007C0000208000002084000020940000200C
:10501000980000209C00002078000020A8000020BC
:10502000AC000020B0000020B40000200000000010
:10503000008066405C00002060EE810AFE4890ED32
:10504000001A00EE810A8DED3F0A3F98FBF75FFBE7
:10505000419140909DED400BFDF70AFD8DED420B17
:105060009FEDF60B53EC102B9DED420B51EC100B0A
:10507000FBF76CFA1FED130B53EC102B459144908A
:105080009DED440B51EC100BFBF760FA47914690F5
:105090009DED480B53EC102B9DED460B51EC100B86
:1050A000FBF7C6FA4B914A909DED4A0B51EC100B61
:1050B000FBF740FBE3490860E3480068FBF727FB88
:1050C00049914890E14890ED000AF0EE000A20EE88
:1050D000200AD0ED000A20EE200ADD48D0ED000ABB
:1050E000B0EE001A60EE810A90ED001A00EE810A1F
:1050F000F7EE000A30EE600A8DED3F0A3F98FBF7AD
:1051000006FB43914290CC4890ED000AF0EE000A75
:1051100020EE200ACE48D0ED000A20EE200ACB482F
:10512000D0ED000AB0EE001A60EE810AC94890ED99
:10513000001A00EEC10A8DED3F0A3F98FBF7E7FA2F
:10514000419140909DED421B9DED400BFEF744F8D0
:105150008DED440B1FED4B0B53EC102B9DED440BD1
:1051600051EC100BFBF7F2F9479146909DED480B7F
:1051700053EC102B9DED460B51EC100BFBF758FA3E
:105180004B914A909DED4A0B51EC100BFBF7D2FA74
:10519000B1490860B1480068FBF7B9FA4B914A90F1
:1051A000AF480068FBF7B3FA49914890AD480068F2
:1051B000FBF7ADFA47914690AB480068FBF7A7FABA
:1051C000459144909F480068FBF7A1FA43914290B3
:1051D000A1480068FBF79BFA419140904B994A988F
:1051E000CDE9080149994898CDE9060147994698C3
:1051F000CDE9040145994498CDE9020143994298CB
:10520000CDE900019DED400B53EC102B9748FDF7C5
:10521000F3FB052000F0BCFB00204A904B904C9023
:105220004AA807C837AB07C300BF914B0FCB4993C0
:1052300046AB07C346A80FC8CDE93523CDE93301F6
:1052400000BF24228A4910313DA8FBF76DF92422C2
:105250003DA92AA8FBF768F900BF00203A903B90CF
:105260003C903AA807C827AB07C300BF804B343334
:105270000FCBCDE92523CDE9230123A80FC8CDE924
:105280002123CDE91F0100BF16A811901FA80FC848
:10529000CDE91423CDE912019DED120A20EE000A9A
:1052A0008DED100A9DED120ADDED130A20EE200AA5
:1052B0008DED0F0A9DED120ADDED140A20EE200A95
:1052C0008DED0E0A9DED120ADDED150A20EE200A85
:1052D0008DED0D0A9DED130ADDED140A20EE200A76
:1052E0008DED0C0ADDED130A9DED150A20EE800A06
:1052F0008DED0B0A9DED140ADDED150A20EE200A56
:105300008DED0A0A9DED100AF6EE000A30EE600AF5
:10531000DDED130A9DED131A00EE810AF0EE000A8E
:1053200020EE200A8DED010A9DED0C0ADDED0D0A3F
:1053300070EE200AB0EE000A20EE800A8DED020A1F
:105340009DED0B0ADDED0E0A70EE600AB0EE000A6C
:1053500020EE800A8DED030A9DED0C0ADDED0D0AAD
:1053600070EE600AB0EE000A20EE800A8DED040AAD
:105370009DED100AF6EE000A30EE600A00E0F3E15F
:105380009DED141ADDED140A01EE200AF0EE000A7C
:1053900020EE200A8DED050A9DED0A0ADDED0F0ACB
:1053A00030EE200AF0EE000A20EE200A8DED060A0B
:1053B0009DED0B0ADDED0E0A30EE200AF0EE000A3C
:1053C00020EE200A8DED070A9DED0A0ADDED0F0A99
:1053D00030EE600AF0EE000A20EE200A8DED080A99
:1053E0009DED100AF6EE000A30EE600ADDED150ABA
:1053F0009DED151A00EE810AF0EE000A20EE200A5B
:105400008DED090A242201A91198FBF78DF800BF40
:1054100000BF174B4433D3E901211868DB68CDE99D
:105420002513CDE9230223A80FC8CDE92123CDE917
:105430001F011FA80FC81DE0B000002000000000E1
:105440000000F0BF6000002078000020A8000020CD
:10545000B4000020AC000020640000209C0000206C
:1054600098000020940000205C000020F86F0000ED
:10547000006E0000CDE91A23CDE91801DDED180A10
:105480009DED181AB6EE000A10EE810A8DED170A8E
:105490009DED1A0ADDED1B0A20EE200ADDED180A4B
:1054A0009DED191A00EEC10A8DED0D0ADDED1B0A06
:1054B0009DED1B1A9DED170A00EE810A8DED0E0A77
:1054C000DDED0E0A9DED0D0AFDF77EFF8DED0F0A55
:1054D0000F98FBF71CF99FEDA50B53EC102BCDE9B2
:1054E00010019DED100B51EC100BFBF72FF8CDE9DF
:1054F00012019DED120B51EC100BFBF71BF91490F0
:105500009DED190ADDED1B0A20EE200ADDED180ADB
:105510009DED1A1A00EE810AF0EE000A20EE200A34
:105520008DED0E0A9DED0E0AFDF752FCFFEE000A0E
:1055300020EE200A8DED0F0A0F98FBF7E8F89FED9B
:105540008B0B53EC102BCDE910019DED100B51ECA2
:10555000100BFAF7FBFFCDE912019DED120B51EC98
:10556000100BFBF7E7F815909DED190ADDED1A0A0F
:1055700020EE200ADDED180A9DED1B1A00EEC10A8F
:105580008DED0D0ADDED190A9DED191A9DED170A35
:1055900000EE810A8DED0E0ADDED0E0A9DED0D0A7D
:1055A000FDF712FF8DED0F0A0F98FBF7B0F89FED96
:1055B0006F0B53EC102BCDE910019DED100B51EC4E
:1055C000100BFAF7C3FFCDE912019DED120B51EC60
:1055D000100BFBF7AFF816909DED140ADDED150AE0
:1055E0009DED161A8DED1C0ACDED1D0A8DED1E1ACE
:1055F00000BF9FED601AF3EE040AB6EE000A42A85F
:10560000FBF79AFB9FED5C0A5C4880ED000A8DED8C
:105610003F0A9FED590A5A4880ED000A8DED400A75
:105620009FED550A574880ED000A8DED410A9FED28
:10563000520A554880ED000A8DED3C0A9FED4E0A56
:10564000524880ED000A8DED3D0AB7EE000A504841
:1056500080ED000A8DED3E0AB7EE000A4D4880ED60
:10566000000A8DED390A9FED440A4B4880ED000A8F
:105670008DED3A0A9FED400A484880ED000A8DED15
:105680003B0ADFED474A9DED3B4ADDED3A3A9DEDA1
:10569000393ADDED3E2A9DED3D2ADDED3C1A9DEDCA
:1056A000411ADDED400A9DED3F0A42A8FBF7A0FB41
:1056B00042A8FBF7A2FA8DED360ACDED370A8DED43
:1056C000381A00BF42A8FBF763FB42A8FBF76EFB4A
:1056D00042A8FBF7F9FF9FED320A322147A8FCF7F9
:1056E0000BF900231A46194647A8FCF727F947A8E3
:1056F000FCF716F99FED200A234880ED000A8DED96
:105700004A0A9FED1D0A214880ED000A8DED4B0AE3
:10571000B7EE000A1E4880ED000A8DED4C0AB7EE88
:10572000000A1C4880ED000A8DED470A9FED120A21
:10573000194880ED000A8DED480A9FED0F0A1748C1
:1057400080ED000A8DED490ADDED492A9DED482ADC
:10575000DDED471A9DED4C1ADDED4B0A9DED4A0A31
:10576000FCF7CCF900BF00BFFFF70CBAF8C1631A11
:10577000DCA54C4000008C42000000007C000020B2
:105780008000002084000020880000208C00002081
:105790009000002094000020980000209C00002031
:1057A0000AD7233C2DE9F04104460D4616461F4614
:1057B00025703A463146601CFAF7B6FEBDE8F08126
:1057C00070B50446254604222946192000F01AFA2D
:1057D00070BD70B500F020F904460CB1204670BDD4
:1057E00007252946682000F043FA04460CB12046FC
:1057F000F5E701216B2000F03BFA04460CB120468E
:10580000EDE70020EBE770B5044625462978372000
:1058100000F02EFA70BDF8B5044601226946372023
:1058200000F058F905469DF8000020F00200801CA9
:1058300000906846FFF7E7FF05460DB12846F8BD22
:10584000264631780A2000F0B3F9F8E77CB5064621
:10585000062269463B2000F03DF905460DB1284679
:105860007CBD3446002007E0C0F105011DF80110A1
:105870002170641C411CC8B20628F5DB0020EFE74C
:105880007CB5064606226946432000F023F905460A
:105890000DB128467CBD3446002007E0C0F105016B
:1058A0001DF801102170641C411CC8B20628F5DBEC
:1058B0000020EFE7F8B504460D46062221460320F6
:1058C00000F0C6F806460EB13046F8BD35B90122E3
:1058D0006946092000F0BCF8064605E00122294689
:1058E000092000F0B5F806463046EEE77CB5FFF734
:1058F00070FF044600BF254635B100BF1FA26421DA
:105900002846FEF73BFE00BF00BF2048006801901C
:1059100000208DF804009DF8070020F018008DF895
:1059200007009DF8060020F0180010308DF80600E2
:1059300001A8FFF745FF044600BF254635B100BF6B
:105940000EA26C212846FEF719FE00BF00BF9DF88D
:10595000000020F00F00801C00906846FFF75BFFFE
:10596000044600BF254635B100BF04A27221284677
:10597000FEF704FE00BF00BF7CBD00002E2E5C2E93
:105980002E5C2E2E5C6D61696E2E6300FC6D000036
:1059900001B506E00098401E009040F2E730FAF7AB
:1059A00039FD00980028F5D108BD000070B50B4600
:1059B00001461A46002907DA5407260E104C01F05A
:1059C0000F052D1F665503E05407250E0D4C655439
:1059D00000BF00BF00F01F02012191400A4A4409A4
:1059E00042F8241000BF00BF00F01F0201219140C7
:1059F0004209920002F1E022C2F8001100BF70BD1E
:105A000018ED00E000E400E080E200E00146C1F3B0
:105A1000073250B2704700001FB50A4B0FCB8DE81C
:105A20000F000023084A6946084800F05DF9044663
:105A300014B1204604B010BD044800F043F9002022
:105A4000F8E700005C6E0000595B0000546E000037
:105A5000F7B582B00E46174642F2107400200123BB
:105A600002AA0C210090184800F0A2F9054615B1D1
:105A7000284605B0F0BD00BF1448007810B9601E7C
:105A80000400F9D10CB90D20F3E700200F4908708C
:105A9000FBB232460C210C4800F074F905460DB1FA
:105AA0002846E6E742F2107400BF0948007810B9B2
:105AB000601E0400F9D10CB90D20DAE7002004497A
:105AC00008702846D5E70000546E0000A1000020B1
:105AD000A2000020F7B582B00E46174642F21074BD
:105AE0000020012302AA68210090184800F060F904
:105AF000054615B1284605B0F0BD00BF1448007832
:105B000010B9601E0400F9D10CB90D20F3E7002094
:105B10000F490870FBB2324668210C4800F032F998
:105B200005460DB12846E6E742F2107400BF094869
:105B3000007810B9601E0400F9D10CB90D20DAE725
:105B40000020044908702846D5E70000546E000084
:105B5000A1000020A2000020027822B1012A1ED05C
:105B6000022A1ED11CE0027932B1012A0CD0022A8D
:105B70000ED0032A10D103E001220B4B1A700CE067
:105B80000122094B1A7008E00122084B1A7004E048
:105B90000122064B1A7000E000BF00BF02E001E0E6
:105BA00000E000BF00BF7047A1000020A20000205D
:105BB0002DE9FC4104460D4642F210778DF8044071
:105BC0008DF805500020022301AA0C2100900B48FB
:105BD00000F0EEF8064616B13046BDE8FC8100BF85
:105BE0000748007810B9781E0700F9D10FB90D20C9
:105BF000F3E70020024908703046EEE7546E0000DB
:105C0000A10000202DE9FE4305460E46144642F24F
:105C100010772346324629461248FFF7C3FD682015
:105C20008DF8010000208DF80000601CC0B28DF8D6
:105C300002000C480190002269460B4800F0D6F89B
:105C4000804600BF0948007810B9781E0700F9D1D6
:105C500017B90D20BDE8FE830020044908704046B6
:105C6000F8E70000E0010020546E0000A1000020D1
:105C70002DE9FC4104460D4642F210778DF80440B0
:105C80008DF805500020022301AA682100900B48DE
:105C900000F08EF8064616B13046BDE8FC8100BF24
:105CA0000748007810B9781E0700F9D10FB90D2008
:105CB000F3E70020024908703046EEE7546E00001A
:105CC000A1000020027902EB8202064B03EBC20125
:105CD000026800BF0523C2F8003500BF022281F828
:105CE00022207047100200202DE9F04706460C469E
:105CF00017469846307900EB80001F4901EBC0053C
:105D000095F8220010B10820BDE8F0871CB9307961
:105D10001A4901EB00142F60C5F804800020A86028
:105D200085F8250085F824002146304600F00AFC5D
:105D300040F20C611248226840F82210626840F874
:105D400022103068D4E90012C0F80815C0F80C25FC
:105D500000BFA168C0F8241500BF286830B13068C2
:105D6000FFF754FE8146217BFFF720FE012085F8D6
:105D700022000020C8E7000010020020AC6E0000E6
:105D800000070050FEB507460C4615461E46074A5A
:105D900007CA8DE807008DF801408DF80260019573
:105DA00000226946384600F021F8FEBDBC6E0000B6
:105DB0002DE9FE4307460C4615461E46DDF82880B1
