:020000040000FA
:10000000502200208D040000950400009704000099
:10001000990400009B0400009D0400000000000003
:100020000000000000000000000000009F0400002D
:10003000A104000000000000A3040000A5040000CB
:10004000A7040000A7040000C91B000071190000EC
:10005000A7040000A7040000A7040000A7040000F4
:10006000A7040000A7040000A7040000A7040000E4
:10007000A7040000A7040000A7040000A7040000D4
:10008000A7040000A7040000A7040000A7040000C4
:10009000A7040000A7040000A7040000A7040000B4
:1000A000A7040000A7040000A7040000A7040000A4
:1000B000A7040000A70400000000000000000000EA
:1000C000A7040000A7040000A7040000A704000084
:1000D000A7040000A7040000A7040000000000001F
:1000E0000000000000000000000000000000000010
:1000F0000000000000000000000000000000000000
:1001000000000000000000000000000000000000EF
:1001100000000000000000000000000000000000DF
:10040000DFF80CD000F09CF900480047C529000037
:1004100050220020401E00BF00BF00BF00BF00BF31
:1004200000BF00BF00BF00BF00BF00BF00BF00BFD4
:1004300000BF00BF00BF00BF00BF00BF00BF00BFC4
:1004400000BF00BF00BF00BF00BF00BF00BF00BFB4
:1004500000BF00BF00BF00BF00BF00BF00BF00BFA4
:1004600000BF00BF00BF00BF00BF00BF00BF00BF94
:1004700000BF00BF00BF00BF00BF00BF00BF00BF84
:1004800000BF00BF00BFC5D17047000006488047CD
:1004900006480047FEE7FEE7FEE7FEE7FEE7FEE769
:1004A000FEE7FEE7FEE7FEE7951900000104000005
:1004B00040EA01039B0703D009E008C9121F08C0E6
:1004C000042AFAD203E011F8013B00F8013B521E66
:1004D000F9D270472DE9FE4F81EA030404F000448D
:1004E00021F0004100944FF0000B23F0004350EA4C
:1004F00001045ED052EA03045BD0C3F30A54C1F393
:100500000A552C44A4F2F3340194A0FB0254C1F325
:10051000130141F48011C3F3130343F4801301FB6F
:10052000024400FB034E840A970A44EA815447EAD6
:100530008357A4FB076802958D0A05FB07854FEAE0
:10054000932C04FB0C542705029D4FEA065847EAFA
:100550001637B5EB08056EEB070C870E920E47EACF
:10056000811742EA8312A7FB0201B6EB0B0164EB91
:1005700000042B0D43EA0C335E1844EB1C50DA46A2
:100580005146E7FB0201C5F313044FEA0B3343EA7C
:1005900014534FEA0432019C43EA0603A4F10C040D
:1005A0000294009CCDE900B400F07BF803B0BDE8F4
:1005B000F08F00200146F9E700F0004230F00040E3
:1005C0000AD0C10D01F56071C0F3160042EA015175
:1005D000C20840071143704700200146704701F0F0
:1005E000004330B421F0004150EA010206D00A0D68
:1005F000A2F56072C1F31301002A02DC30BC0020B6
:100600007047440F44EAC104C100E01830BC00EB5D
:10061000C250AFF300800029A8BF7047401C4900BA
:1006200008BF20F00100704710B4B0FA80FC00FA57
:100630000CF050EA010404BF10BC704749B1CCF182
:10064000200421FA04F411FA0CF118BF012121430E
:100650000843A3EB0C01CB1D4FEA00614FEA1020C9
:1006600042BF002010BC704700EBC350104400296B
:10067000A4BF10BC7047401C490008BF20F0010017
:1006800010BC704710B5141E73F1000408DA401C4A
:1006900041F1000192185B411A4301D120F00100A1
:1006A00010BD2DE9F04D92469B4611B1B1FA81F291
:1006B00002E0B0FA80F22032904600F053F804468F
:1006C0000F4640EA0A0041EA0B0153465A460843E6
:1006D00013D0114653EA010019D0C8F14002504628
:1006E00000F04FF805460E4650465946424600F087
:1006F00039F8084305D0012004E020463946BDE81A
:10070000F08D0020054346EAE0762C4337430A98F3
:100710006305E40AA0EB08000022FD0A44EA4754FE
:100720000A3002D500200146E9E7010510196941A8
:10073000DDE9084500196941BDE8F04DA2E7000078
:10074000064C074D06E0E06840F0010394E807001E
:1007500098471034AC42F6D3FFF756FE40470000EE
:1007600060470000202A04DB203A00FA02F1002052
:1007700070479140C2F1200320FA03F319439040DF
:100780007047202A04DB203A21FA02F0002170474A
:1007900021FA02F3D040C2F12002914008431946E9
:1007A00070470EB590ED030A20EE000AF0EE401AF5
:1007B00090ED030AD0ED040A20EE200AB0EE402AA4
:1007C00090ED030AD0ED050A20EE200AF0EE402A53
:1007D00090ED030AD0ED060A20EE200AB0EE403A72
:1007E00090ED040AD0ED050A20EE200AF0EE403A22
:1007F00090ED040AD0ED060A20EE200AB0EE404A41
:1008000090ED050AD0ED060A20EE200AF0EE404AEF
:10081000B6EE000A31EEC00AD0ED040A90ED041ADB
:1008200000EE810AD0ED070A20EE200A73EEC30A1B
:1008300090ED081A00EE810A74EE220A90ED091A72
:1008400000EE810AF0EE000A20EE200A8DED000A8B
:1008500033EE830AD0ED070A20EE200AF6EE000AF6
:1008600071EEE00A90ED051A90ED055A41EE050A89
:1008700090ED081A00EE810A74EEC20A90ED091A92
:1008800000EE810AF0EE000A20EE200A8DED010A4A
:1008900034EE620AD0ED070A20EE200A74EE820AD6
:1008A00090ED081A00EE810AF6EE000A71EEE00AF9
:1008B00090ED061A90ED065A41EE050A90ED091AE0
:1008C00000EE810AF0EE000A20EE200A8DED020A09
:1008D0009DED000ADDED010A9DED021A0EBD00003E
:1008E00010B587B080ED000A60EEA01AC0ED011AC5
:1008F00061EE011AC0ED021A0E4CD4E90023D4E9CE
:100900000214CDE90514CDE9032303A91EC90C3057
:100910001EC01C3800210091019102919DE80E003B
:10092000C0E90823C161F2EE041AC0ED0A1A07B04B
:1009300010BD0000A4460000014691ED0A0AD1ED69
:10094000000AB4EEE00AF1EE10FA01DD0120704772
:100950000020FCE710B587B00E4CD4E90031D4E993
:100960000224CDE90524CDE9033103A91EC90C30C9
:100970001EC01C3800210091019102919DE80E00DB
:10098000C0E90823C161B2EE040A80ED0A0A07B08B
:1009900010BD0000B446000011B52DED0A0BAAB041
:1009A000002127912891299127A90EC924AC0EC4B2
:1009B00000BF9DED2D0AB5EEC00AF1EE10FA0ED182
:1009C0009DED2E0AB5EEC00AF1EE10FA07D19DEDAD
:1009D0002F0AB5EEC00AF1EE10FA00D115E290ED43
:1009E000040A90ED061A20EE010A90ED031AD0EDEC
:1009F000051A01EE610A8DED1B0A90ED030A90EDD8
:100A0000041A20EE010A90ED051AD0ED061A01EE47
:100A1000210A8DED1C0A90ED031AD0ED031AB6EEF3
:100A2000000A11EE210A90ED061AD0ED061A01EE29
:100A3000210A8DED1D0A2DAA1CCA0FA91CC19DED0E
:100A40000F0A20EE000ADDED102A9DED103A02EEAD
:100A5000830ADDED112A9DED113AB0EE401A02EE47
:100A6000831AB6EE003A21EE033AF0EE432AB0EED6
:100A7000410A10EE101AFE4AA2EB610100EE101AB4
:100A800062EE803AB7EE083A03EEC03A23EE003A3F
:100A9000B0EE430A00BFF0EE401A0FA90EC9B0EE47
:100AA000610A09AC0EC49DED091A21EE001A8DED04
:100AB000061A9DED0A1A21EE001A8DED071A9DED1A
:100AC0000B1A21EE001A8DED081A9DED061ADDEDC8
:100AD000072A9DED083A8DED0C1ACDED0D2A8DED0E
:100AE0000E3A9DED0C0A9DED0D1ADDED0E2A8DEDF1
:100AF000120A8DED131ACDED142A1BA90EC915ACDF
:100B00000EC49DED130A9DED171A20EE010A9DED0E
:100B1000141ADDED161A01EE610A8DED0F0A9DED36
:100B2000140A9DED151A20EE010A9DED121ADDED55
:100B3000171A01EE610A8DED100A9DED120A9DED66
:100B4000161A20EE010A9DED131ADDED151A01EEBD
:100B5000610A8DED110A9DED0F0A9DED101ADDED74
:100B6000111A8DED240A8DED251ACDED261A9DED75
:100B7000300A20EE000A9DED311ADDED311A01EE4A
:100B8000210A9DED321ADDED321AB0EE402A01EE57
:100B9000212A90ED010AB4EEC20AF1EE10FA06DC49
:100BA00090ED020AB4EEC20AF1EE10FA00D22CE186
:100BB00090ED040A90ED051A20EE010A90ED031A5B
:100BC000D0ED061A01EE210A8DED180A90ED031AF8
:100BD000D0ED031AB6EE000A11EE210A90ED051AC7
:100BE000D0ED051A01EE210A8DED190A90ED050AE6
:100BF00090ED061A20EE010A90ED031AD0ED041ACA
:100C000001EE610A8DED1A0A24A90EC912AC0EC4B8
:100C10002DAA1CCA03A91CC1DDE930233299CDE9F4
:100C2000062308919DED040A9DED081A20EE010AA5
:100C30009DED051ADDED071A01EE610A8DED000A42
:100C40009DED050A9DED061A20EE010A9DED031AA1
:100C5000DDED081A01EE610A8DED010A9DED030A32
:100C60009DED071A20EE010A9DED041ADDED061A2E
:100C700001EE610A8DED020A9DED000A9DED011A5B
:100C8000DDED021A8DED090A8DED0A1ACDED0B1A74
:100C90009DED090A20EE000ADDED0A2A9DED0A3AD3
:100CA00002EE830ADDED0B2A9DED0B3AB0EE401A01
:100CB00002EE831AB6EE003A21EE033AF0EE432A32
:100CC000B0EE410A10EE101A694AA2EB610100EE83
:100CD000101A62EE803AB7EE083A03EEC03A23EEFD
:100CE000003AB0EE430A00BFF0EE401A09A90EC95F
:100CF000B0EE610A03AC0EC49DED031A21EE001A9A
:100D00008DED001A9DED041A21EE001A8DED011AE9
:100D10009DED051A21EE001A8DED021A9DED001AC7
:100D2000DDED012A9DED023A8DED061ACDED072A83
:100D30008DED083A9DED060A9DED071ADDED082AB6
:100D40008DED0C0A8DED0D1ACDED0E2A18A90EC9E8
:100D50000FAC0EC49DED0D0A9DED111A20EE010A97
:100D60009DED0E1ADDED101A01EE610A8DED090AF6
:100D70009DED0E0A9DED0F1A20EE010A9DED0C1A55
:100D8000DDED111A01EE610A8DED0A0A9DED0C0AE6
:100D90009DED101A20EE010A9DED0D1ADDED0F1AE2
:100DA00001EE610A8DED0B0A9DED090A9DED0A1A0F
:100DB000DDED0B1A8DED150A8DED161ACDED171A16
:100DC0009DED120A9DED151A30EE010A8DED0F0A08
:100DD0009DED130A9DED161A30EE010A8DED100AF5
:100DE0009DED140A9DED171A30EE010A8DED110AE2
:100DF0009DED0F0A9DED101ADDED111A8DED240AFF
:100E00008DED251ACDED261A00BF00BF90ED000A2A
:100E1000B5EEC00AF1EE10FA03D19FED160A80ED8F
:100E20000A0AD0ED000A90ED0A0A90ED001AB4EE1D
:100E3000C10AF1EE10FA15DD90ED000AB2EE041AC7
:100E400031EE400A20EE241AF0EE081A81EE210A53
:100E500090ED0A1A31EE400A80ED0A0A90ED0A0A76
:100E6000F0EE400A2AAA1CCA9FED030A1BA905E05E
:100E7000DF59375F0000000035FA0E3C1CC19DEDC4
:100E80001B1A21EE001A8DED181A9DED1C1A21EE89
:100E9000001A8DED191A9DED1D1A21EE001A8DED27
:100EA0001A1A9DED181ADDED191A9DED1A2A8DED0D
:100EB000211ACDED221A8DED232A21A90EC918ACD5
:100EC0000EC424A90EC915AC0EC49DED150A20EE62
:100ED000200A8DED120A9DED160A20EE200A8DEDF6
:100EE000130A9DED170A20EE200A8DED140A9DEDE0
:100EF000120A9DED131ADDED141A8DED1B0A8DED0E
:100F00001C1ACDED1D1A9DED180A9DED1B1A30EE31
:100F1000010A8DED150A9DED190A9DED1C1A30EEA2
:100F2000010A8DED160A9DED1A0A9DED1D1A30EE8F
:100F3000010A8DED170A9DED150A9DED161ADDEDDE
:100F4000171A8DED210A8DED221ACDED231AD0E965
:100F50000524D0E90331CDE91824CDE91631D0E9D3
:100F60000524D0E90331CDE91124CDE90F3121A9C0
:100F70000EC90CAC0EC49DED0C0A20EE240A8DEDBA
:100F8000090A9DED0D0A20EE240A8DED0A0A9DED59
:100F90000E0A20EE240A8DED0B0A9DED090A9DED47
:100FA0000A1ADDED0B1A8DED130A8DED141ACDED35
:100FB000151A9DED100AB1EE400A9DED131A20EEB0
:100FC000010A9DED111ADDED141A01EE610A9DED85
:100FD000121ADDED151A01EE610A8DED0B0A9DED79
:100FE0000F0A9DED131A20EE010A9DED111ADDED99
:100FF000151A01EE210A9DED121ADDED141A01EE0B
:10100000610A8DED0C0A9DED0F0A9DED141A20EE7C
:10101000010A9DED101ADDED151A01EE610A9DED34
:10102000121ADDED131A01EE210A8DED0D0A9DED68
:101030000F0A9DED151A20EE010A9DED101ADDED47
:10104000141A01EE210A9DED111ADDED131A01EEBD
:10105000610A8DED0E0A9DED0B0A9DED0C1ADDED7A
:101060000D1A9DED0E2A8DED1A0A8DED1B1ACDED90
:101070001C1A8DED1D2A9DED160A9DED1A1A30EEF3
:10108000010A8DED120A9DED170A9DED1B1A30EE37
:10109000010A8DED130A9DED180A9DED1C1A30EE24
:1010A000010A8DED140A9DED190A9DED1D1A30EE11
:1010B000010A8DED150A9DED120A9DED131ADDED65
:1010C000141A9DED152A80ED030A80ED041AC0ED77
:1010D000051A80ED062A00F10C011EC9CDE91C3469
:1010E000CDE91A129DED1A0A20EE000A9DED1B2A89
:1010F000DDED1B2A02EE220A9DED1C2ADDED1C2AE5
:1011000002EE220A9DED1D2ADDED1D2AB0EE401AE9
:1011100002EE221AF6EE002A61EE222AB0EE622AD0
:10112000B0EE410A10EE101A504AA2EB610100EE37
:10113000101A22EE003AF7EE082A43EE402A62EE39
:10114000802AB0EE620A00BFF0EE401A9DED1A0A46
:1011500020EE210A8DED160A9DED1B0A20EE210AD4
:101160008DED170A9DED1C0A20EE210A8DED180A5F
:101170009DED1D0A20EE210A8DED190A9DED160A3E
:101180009DED171A9DED182ADDED192A80ED030A51
:1011900080ED041A80ED052AC0ED062A90ED040AC0
:1011A00090ED061A20EE010A90ED031AD0ED051A13
:1011B00001EE610AB0EE001A20EE010A8DED1E0A62
:1011C00090ED030A90ED041A20EE010A90ED051A45
:1011D000D0ED061A01EE210AB0EE001A20EE010A47
:1011E0008DED1F0A90ED031AD0ED031AB6EE000A3A
:1011F00011EE210A90ED061AD0ED061A01EE210A31
:10120000B0EE001A20EE010A8DED200ADDE92D2353
:101210002F99CDE918231A911EA90EC91BAC0EC433
:101220009DED180A9DED1B1A30EE410A8DED150A51
:101230009DED190A9DED1C1A30EE410A8DED160A3E
:101240009DED1A0A9DED1D1A30EE410A8DED170A2B
:101250009DED150A9DED161ADDED171A80ED070AB2
:1012600080ED081AC0ED091A35B010BDDF59375F9F
:1012700010B52DED028B90B0044604F10C000FC8A0
:10128000CDE90A23CDE90801DDED080A60EEA00AE8
:101290009DED091ADDED091A41EE210A9DED0A1AAC
:1012A000DDED0A1A41EE210A9DED0B1ADDED0B1A58
:1012B00041EE210AB0EE600A00F0D4FFF7EE000A1A
:1012C00080EE801AB0EE418A9DED080A20EE080AF1
:1012D0008DED040A9DED090A20EE080A8DED050A40
:1012E0009DED0A0A20EE080A8DED060A9DED0B0A17
:1012F00020EE080A8DED070A9DED040ADDED050AD2
:101300009DED061ADDED071A84ED030AC4ED040A0B
:1013100084ED051AC4ED061AD4ED031A94ED032AE0
:10132000B6EE001A11EE821AD4ED041A94ED042AD6
:1013300001EE821AF0EE410A94ED041AD4ED051A7A
:1013400021EE211AD4ED031A94ED062A01EE821A39
:10135000B0EE410A00F0EEFCF6EE000A20EE200AA4
:10136000F0EE408A00200C900D900E900F90B0EEA1
:10137000680A00F007FE8DED0C0AB0EE680A00F076
:10138000A9FEFFEE000A20EE200A8DED0F0A0CA840
:101390000FC8CDE90623CDE9040104F10C000FC804
:1013A000CDE90A23CDE908019DED040ADDED080A27
:1013B00020EE200ADDED050A9DED091A00EEC10AB6
:1013C000DDED060A9DED0A1A00EEC10ADDED070A01
:1013D0009DED0B1A00EEC10A8DED000A9DED040A89
:1013E000DDED090A20EE200ADDED050A9DED081A63
:1013F00000EE810ADDED060A9DED0B1A00EE810A72
:10140000DDED070A9DED0A1A00EEC10A8DED010A15
:101410009DED040ADDED0A0A20EE200ADDED050A45
:101420009DED0B1A00EEC10ADDED060A9DED081ACE
:1014300000EE810ADDED070A9DED091A00EE810A32
:101440008DED020A9DED040ADDED0B0A20EE200A67
:10145000DDED050A9DED0A1A00EE810ADDED060AB2
:101460009DED091A00EEC10ADDED070A9DED081A8F
:1014700000EE810A8DED030A9DED000ADDED010A03
:101480009DED021ADDED031A84ED030AC4ED040A92
:1014900084ED051AC4ED061A10B0BDEC028B10BD28
:1014A0001EB5016080ED010ADFED060AC0ED020AFB
:1014B00000220092019202929DE81C00C0E90434CF
:1014C000C2601EBD00000000014691ED020AF1EE6F
:1014D000040AB4EEE00AF1EE10FA01DB01207047D5
:1014E0000020FCE7F0B52DED068B8FB004460D46CD
:1014F00016461F462068A84211DB20684042A842D9
:101500000DDC2068B0420ADB20684042B04206DCB5
:101510002068B84203DB20684042B84204DD9FEDFA
:101520005E0A84ED020AB2E094ED020AF1EE040ACA
:10153000B4EEE00AF1EE10FA7DDB00EE105AB8EEE0
:10154000C00A8DED0C0A00EE106AB8EEC00A8DEDEF
:101550000D0A00EE107AB8EEC00A8DED0E0A0CA846
:1015600007C806AB07C3D4E90412E06809AB07C398
:101570009DED060ADDED090A30EE600A8DED030AE5
:101580009DED070ADDED0A0A30EE600A8DED040AD2
:101590009DED080ADDED0B0A30EE600A8DED050ABF
:1015A0009DED030ADDED040A9DED051A8DED0C0A93
:1015B000CDED0D0A8DED0E1AD4E90412E06806ABEC
:1015C00007C30CA807C803AB07C394ED010A10EECC
:1015D000101A0846FEF7F0FF41EC1A0B9FED2F0B97
:1015E00053EC102BFEF776FF41EC190BFEF7F7FFDB
:1015F00008EE100A9DED030A20EE080A8DED000AA0
:101600009DED040A20EE080A8DED010A9DED050A04
:1016100020EE080A8DED020A9DED000ADDED010ABB
:101620009DED021A8DED090ACDED0A0A8DED0B1A1A
:101630009DED060A00E022E0DDED090A30EE200A09
:101640008DED030A9DED070ADDED0A0A30EE200A52
:101650008DED040A9DED080ADDED0B0A30EE200A3F
:101660008DED050A9DED030ADDED040A9DED051AD9
:1016700084ED030AC4ED040A84ED051A07E094ED35
:10168000020AD4ED010A30EE200A84ED020A0FB0FE
:10169000BDEC068BF0BD00000000000043FF0E8C87
:1016A000BF15C03F10B52DED060B2DED048B92B08C
:1016B00016A807C803AB07C319A807C806AB07C31A
:1016C0009DED040ADDED080A20EE200ADDED050A95
:1016D0009DED071A00EEC10A8DED000A9DED050A89
:1016E000DDED060A20EE200ADDED030A9DED081A65
:1016F00000EEC10A8DED010A9DED030ADDED070A3A
:1017000020EE200ADDED040A9DED061A00EEC10A66
:101710008DED020A9DED000ADDED010A9DED021A34
:101720008DED090ACDED0A0A8DED0B1A9DED090A22
:1017300020EE000ADDED0A1A9DED0A2A01EE820A6A
:10174000DDED0B1A9DED0B2AF0EE400A41EE820A08
:10175000B6EE002A20EE822AF0EE421AB0EE600ABF
:1017600010EE100A7F49A1EB600000EE100A61EE56
:10177000802AB7EE082A02EEC02A22EE002AB0EE36
:10178000420A00BFB0EE401A09A807C8B0EE410AED
:1017900003AB07C3DDED030A60EE800ACDED000A5E
:1017A000DDED040A60EE800ACDED010ADDED050AEB
:1017B00060EE800ACDED020ADDED000ADDED011AD2
:1017C0009DED022ACDED060ACDED071A8DED082A12
:1017D0009DED060ADDED070ADDED081A8DED0F0A15
:1017E000CDED100ACDED111A0FA807C803AB07C342
:1017F00016A807C806AB07C39DED040ADDED080A6D
:1018000020EE200ADDED050A9DED071A00EEC10A63
:101810008DED000A9DED050ADDED060A20EE200A99
:10182000DDED030A9DED081A00EEC10A8DED010AF7
:101830009DED030ADDED070A20EE200ADDED040A26
:101840009DED061A00EEC10A8DED020A9DED000A1B
:10185000DDED010A9DED021A8DED090ACDED0A0AB2
:101860008DED0B1A9DED090A20EE000ADDED0A1A36
:101870009DED0A2A01EE820ADDED0B1A9DED0B2A81
:10188000F0EE400A41EE820AB6EE002A20EE822AED
:10189000F0EE421AB0EE600A10EE100A3149A1EBE8
:1018A000600000EE100A61EE802AB7EE082A02EE10
:1018B000C02A22EE002AB0EE420A00BFB0EE401A63
:1018C00009A807C8B0EE410A03AB07C3DDED030A60
:1018D00060EE800ACDED000ADDED040A60EE800ABC
:1018E000CDED010ADDED050A60EE800ACDED020ABC
:1018F000DDED000ADDED011A9DED022ACDED060AAF
:10190000CDED071A8DED082A9DED060ADDED070ADB
:10191000DDED081A8DED0C0ACDED0D0ACDED0E1A98
:101920009DED0C1AF0EE410A9DED0F1AB0EE410A42
:1019300000F000FA10EE104A2046FEF73DFE41ECA2
:10194000190B9FED090B53EC102BFEF7C3FD41EC77
:10195000180BFEF744FE00EE100A12B0BDEC048B2B
:1019600006B010BDDF59375FF8C1631ADCA54C40E3
:1019700010B50249024800F0B7FF10BDE401002095
:101980000030004001480249086070470090D003D1
:10199000AC00002010B500F0B3FE10B17D487E49C8
:1019A000486700F0C5FE28B17C480068C0F34230AB
:1019B0007B49086000F0E6FE28B17A48006820F014
:1019C00080707849086000F0F5FE48B10020764943
:1019D00008604FF08041C1F810017149091F08608B
:1019E00000F012FF18B103206D496431086000F067
:1019F00023FF68B105206D49086001206B497831EB
:101A0000086000206949083108603F20091F08600C
:101A100000F02AFF002855D0654800686549086035
:101A20006348001D0068091D0860614808300068AF
:101A3000091D08605E480C300068091D08605C489C
:101A400010300068091D0860594814300068091DED
:101A500008605748183000685649203108605448DB
:101A60001C300068091D0860514820300068091DBD
:101A700008604F4824300068091D08604C48283031
:101A80000068091D08604A482C300068091D08607C
:101A90004748303000684749403108604448343096
:101AA0000068091D0860424838300068091D086058
:101AB0003F483C300068091D08603D4840300068E0
:101AC000091D086037487438006840F470003549D3
:101AD0007439086000BF00BF00BFBFF34F8F00BF65
:101AE00000BF00BF00BF00BF00BFBFF36F8F00BFCC
:101AF00000BF00BF3048006800F0004030B92E48F9
:101B0000001D006800F00040002840D001202B4953
:101B1000086000BF2A4800680028FBD0152026492D
:101B2000086000BF264800680028FBD01521224825
:101B3000001D016000BF224800680028FBD0002083
:101B40001E49086000BF1E4800680028FBD000BF87
:101B500000BF00BF00BF00BFBFF34F8F00BF00BF7B
:101B600000BF1048F038006800F4E06015490843F1
:101B7000001D0C49F039086000BF00BF00BFBFF373
:101B80004F8F00BF00BF00BF00BF00BFFDE7FFF7E2
:101B9000F9FE10BD0DF0ADBA00C0074044020010C0
:101BA0003C050040FCED00E00C01004010560040F8
:101BB0000404001020C500400012001004E501409C
:101BC00000E401400000FA0510B50448007F10B1A0
:101BD00002F094FC01E002F0E1FB10BD0C020020D9
:101BE0004100080218BF04200A0E18BF40F001008F
:101BF0004FF07F4232EA010108BF40F002000128A5
:101C000008BF05207047000010B54FF00E402DEDC5
:101C1000028BB0EE408A18EE104A00EB4400B0F19F
:101C2000506F4AD84FF0FC40B0EB440F22D2B0EED8
:101C3000C80AF7EE000A30EEC00AF6EE000A60EEBF
:101C4000208A18EE900A02F079F801EE100A14F0DA
:101C5000004F1DBFDFED2D0A9FED2D0AB1EE411A99
:101C6000DFED2C0A08BF9FED2C0AF8EE001A21EEDA
:101C7000218A05E0DFED290A68EE088AB0EE600AE5
:101C80009FED271ADFED271A30EE080A48EE811A79
:101C90009FED251A08EEA11ADFED241A48EE811AED
:101CA0009FED231A08EEA11A68EE281ABDEC028BEC
:101CB00001EE810A30EE200A10BD4FF0E440B0EB97
:101CC000440F0CD918EE100AFFF78AFF042808BF4A
:101CD00000F0F4FAB0EE480ABDEC028B10BD4FF0F4
:101CE0007F40B0EB440F07D2B0EE480ABDEC028B48
:101CF000BDE8104000F0D3BA012000F0A1FBBDEC1C
:101D0000028BBDE8104000F0D1BA00000000C9BF4E
:101D100022AAFDB90000C93F22AAFD390000000037
:101D200024FE1C3DC78AD83C1E67383D1B93993D55
:101D3000AFAA2A3E10EE100A10B510EE901A4FF01E
:101D4000684202EB40032DED028BB3F1654F3CBFBF
:101D500002EB4102B2F1654F7CD200BFC0F3C75322
:101D6000C1F3C7529A1A1B2A09DD10F0004F14BFA5
:101D70009FED6E0A9FED6E0ABDEC028B10BD12F155
:101D80001A0F1BDA11F0004F09D010F0004F0CBFF2
:101D90009FED680A9FED680ABDEC028B10BD80EED6
:101DA000208A18EE100AFFF71BFF042808BF00F076
:101DB00085FAB0EE480ABDEC028B10BD4200B2EBD2
:101DC000410F37D910F0004F19BFDFED5C1A9FEDBE
:101DD0005C1ADFED5C1A9FED5C1AB0EE602A0A46D1
:101DE000F1EE400A80F00041B0EE420A10460A1AB5
:101DF0005200B2F1807F34D2484010F0004FDFED46
:101E0000532A9FED533A1DBFBEEE002A71EEE21A2F
:101E100031EE431AB6EE002A04BF71EEA21A31EE7B
:101E2000031AF0EE402A42EE602A40EE020A82EEE9
:101E3000A02A18E011F0004F04BF9FED461AF0EE03
:101E4000411AD4D010F0004F1CBFDFED431A9FEDB4
:101E5000431A00E026E004BFDFED411A9FED411A6E
:101E6000C5E780EE202A22EE020ADFED3F0ADFED11
:101E70003F2ABDEC028B40EE202ADFED3D0A40EE0A
:101E8000220ADFED3C2A40EE202ADFED3B0A40EE3D
:101E9000220A22EE000A00EE201A31EE020A30EE8B
:101EA000210A10BD4FF07F42B2EB400F28BFB2EBCA
:101EB000410F05D2BDEC028BBDE8104000F0F2B935
:101EC00040EA01035B0008BF41F0FF410BD0B2EBD9
:101ED000400F08BFB2EB410F08D120F0804000EE68
:101EE000100A21F0804100EE901A37E7B2EB400F64
:101EF00012BF5FEA410240F0FF4001F000413FF4B1
:101F00002DAF4A0092EA40033FF528AF002AACBF4C
:101F10009FED1A1A9FED1A1A20EE010A60EE810A4F
:101F200010EE100A10EE901A18E70000DB0FC9BF80
:101F3000DB0FC93FDB0F4940DB0F49C00000C9BFC1
:101F400022AAFDB90000C93F22AAFD390060ED3E7A
:101F5000C30ACE3700000000000049C022AA7DBAA3
:101F60000000494022AA7D3A2DAD65BD8FB8D53D10
:101F70000FB511BE61C84C3EA8AAAABE0000804F92
:101F80000000802F10EE101A08B5444A6846B2EBE4
:101F9000410F28D94FF0E640B0EB410F94BF00202D
:101FA0004FF0FF3000900098002861DB60EE000ADF
:101FB00010F0010F45D010F0020FDFED391A9FED40
:101FC000391A00EEE11ADFED381A40EE811A21EEDF
:101FD000A01AF0EE400A40EE010A08BFF1EE600AD6
:101FE000B0EE600A08BD314B21F0004293423CD96B
:101FF00011F0004FDFED2E0A20EE201ADFED2D0A42
:1020000019BF31EE601A71EE200A31EE201A71EE1E
:10201000600ABDEEE01A11EE100A9FED271A00F0DB
:10202000030000EEC10A9FED251A009000EEC10AE0
:102030009FED231A00EEC10A9FED221A00EEC10A9D
:10204000B1E79FED211A9FED210A10F0020F00EE7B
:10205000810A9FED1F1A00EE801AB7EE000A00EE0B
:10206000810A18BFB1EE400A08BD00F02FF99AE7C7
:1020700010EE100A4000B0F17F4F3CBFB7EE000AEF
:1020800008BD07D14FF0010000F0DAF9BDE80840C3
:1020900000F00CB9BDE8084000F001B9B61F927E0F
:1020A000336D4C39DA82083CA0AA2ABE490E494653
:1020B00083F9223F0000004B0000C93F00A0FD391A
:1020C0000020A2331A61342CB93AB2BACA9F2A3D11
:1020D000DDFFFFBE00B510EE101A2DED028B81B0B2
:1020E000524A6846B2EB410F2ED94FF0E640B0EBB2
:1020F000410F94BF00204FF0FF3000900098B0EEE9
:10210000408A00286ADB10F0010F4BD068EE080A05
:102110009FED471A9FED470A00EE810A9FED461A90
:1021200010F0020F00EE801AB7EE000A00EE810AEE
:1021300002BF01B0BDEC028B00BD00BF01B0B1EE2B
:10214000400ABDEC028B00BD3C4B21F000429342A3
:1021500041D911F0004FDFED3A0A20EE201ADFEDF1
:10216000390A19BF31EE601A71EE200A31EE201AD9
:1021700071EE600ABDEEE01A11EE100A9FED321A00
:1021800000F0030000EEC10A9FED301A009000EE4F
:10219000C10A9FED2F1A00EEC10A9FED2E1A00EE24
:1021A000C10AABE728EE080A9FED2B1ADFED2B0AD8
:1021B00010F0020F40EE410A9FED291A00EE201A9E
:1021C00061EE000AB0EE480A08EE200AB6D101B06E
:1021D000BDEC028B00BD00F079F88FE718EE100A15
:1021E0004000B0F17F4F0DD218EE100AFFF7F8FC57
:1021F000042808BF00F062F8B0EE480A01B0BDEC58
:10220000028B00BD09D1012000F01AF901B0BDEC2C
:10221000028B5DF804EB00F049B801B0B0EE480A5B
:10222000BDEC028B5DF804EB00F039B8B61F927E6E
:10223000B93AB2BACA9F2A3DDDFFFFBE490E4946F0
:1022400083F9223F0000004B0000C93F00A0FD3988
:102250000020A2331A61342C336D4C39DA82083CE9
:10226000A0AA2ABE10B52DED028BB1EEC08A18EEE1
:10227000100A20F00040C0F1FF40C00F0AD010EE5D
:10228000100A20F00040C0F1FF40C00F04BF012041
:1022900000F0D6F8B0EE480ABDEC028B10BD30EE6F
:1022A000000A704730EE200A70470000DFED020A96
:1022B00080EEA00A70470000000000009FED020AB7
:1022C00020EE000A70470000000000102DE9F00128
:1022D0004FF07F42B2EB410F9FBF4FF0FF310160E3
:1022E000BDE8F00170474FF0004242EA0123C1F31C
:1022F000C752783A551112F01F0C434CCCF120060E
:102300007C44C1F3C752A2F178024FEA621204EB97
:10231000820254F8254008BFD2E9015612D0556810
:1023200004FA0CF425FA06F73C43976805FA0CF515
:1023300027FA06F8D26807FA0CFCF24045EA0805CD
:102340004CEA0206A4FB034CA5FB0352A6FB036365
:102350001D449D4234BF012600261319334416B193
:10236000934202D903E0934201D2012200E000220D
:10237000624402F1200C9206DC0C42EA443200EE88
:10238000102A5B03DFED210AF8EEC01A00EE103AC6
:102390004FEA9C1C11F0004FB8EE400AC0F800C094
:1023A00020EE201A00EE105ADFED190AB8EE400AAE
:1023B00020EE200A71EE810A70EE800A10EE902A5B
:1023C00002F500626FF30B0200EE902A70EEE11A44
:1023D00031EEC11ADFED101A30EE411A9FED0D0AF1
:1023E00020EE800A01EE210A9FED0C1A00EE810A10
:1023F00004BFBDE8F0017047CCF180510160BDE839
:10240000F001B1EE400A70471C24000000000036C5
:102410000000802C22AAFD29DB0FC92F0000C92F44
:1024200002E008C8121F08C1002AFAD1704770479D
:10243000002001E001C1121F002AFBD170470000FB
:102440000149086070470000B000002070B50446E4
:102450000D46164600BF4FF4F010064908600020F4
:10246000091F086000BF32462946204600F014F8D4
:1024700070BD00000C050050FEB504460E46154622
:10248000B0B2ADF80000019502946A46002144F212
:102490000100FFF7DBFFFEBD18B5012300939DF897
:1024A00000301B4B186059609A606FF480430344FE
:1024B00063B1012B19D1164BDA60DB681B88144C11
:1024C000A3612346DB685B68E3610EE0104B1A6191
:1024D0001B699B680E4C636123461B691B88A361C3
:1024E00023461B695B68E36100BF00BF084B1B68A4
:1024F000074B5B68064B9B68054BDB68044B1B690D
:10250000034B5B69024B9B69014BDB6918BD000003
:102510002C02002070B504460D46204600F0CDF98F
:1025200028B12946204600F0B7F9002070BD0520EB
:10253000FCE7034609B90E20704712B1501E104047
:1025400008B10920F8E71960501E988000209860B3
:10255000D86000BFF0E770B504460D46204600F095
:10256000ACF9A188884205D82946204600F0B3F985
:10257000002070BD0420FCE72DE9F04188B004463E
:102580000D4617469846294807601DB9072008B030
:10259000BDE8F081A88882B225482968FFF7C9FF05
:1025A000064600BF0EB13046F1E700BFA88982B2EF
:1025B0002048A968FFF7BDFF064600BF0EB13046B0
:1025C000E5E700BF20221C496846FDF771FFA068BF
:1025D0000690207908B1012000E000208DF8140059
:1025E0008DF81C80607908B10E2000E000208DF885
:1025F0001500E0780290A078039020780190607830
:1026000000900E49684601F061F8064600BF0EB121
:102610003046BCE700BF9DF81D0008B901F020F965
:102620000121074801F0C4F8B1E70000A400002030
:10263000C4010020D4010020C446000099420000DB
:10264000A900002010B50446206801F0B5FA206802
:1026500001F095FA0021606801F084FA2548007FB6
:1026600018B3A0692449086000BF607D217D40EA5D
:102670000102224BC3F86C2500BF1846D4E90012B2
:1026800001F008FB207D012832D10021A06801F073
:1026900069FAE06801F090FAE06801F070FA174812
:1026A000D4E9022101F0E2FA22E0A06912490860AF
:1026B00000BF607D217D40EA0102104BC3F86C250C
:1026C00000BF1846D4E9001201F0BBFA207D0128B2
:1026D0000ED10021A06801F045FAE06801F06CFA23
:1026E000E06801F04CFA0548D4E9022101F092FAC1
:1026F00010BD00000C0200202425004000200040F6
:102700000A48007806280ED10848001D007800F01D
:102710000F0040B905480830007800F0F00030287C
:1027200001D1012070470020FCE70000E00F00F01D
:1027300013480078062820D11148001D007800F0C9
:102740000F00D0B90E480830007800F0F0003028B3
:1027500001D1012070470A480830007800F0F000ED
:10276000402801D10120F5E705480830007800F045
:10277000F000502801D10120ECE70020EAE700003A
:10278000E00F00F00A48007806280ED10848001D26
:10279000007800F00F0040B905480830007800F0DC
:1027A000F000302801D1012070470020FCE7000034
:1027B000E00F00F013480078062820D11148001DD2
:1027C000007800F00F00D0B90E480830007800F013
:1027D000F000302801D1012070470A480830007805
:1027E00000F0F000402801D10120F5E7054808304D
:1027F000007800F0F000502801D10120ECE7002023
:10280000EAE70000E00F00F00A48007806280ED141
:102810000848001D007800F00F0040B90548083056
:10282000007800F0F000302801D10120704700202E
:10283000FCE70000E00F00F00A48007806280ED1FF
:102840000848001D007800F00F0040B90548083026
:10285000007800F0F000302801D1012070470020FE
:10286000FCE70000E00F00F00A48007806280ED1CF
:102870000848001D007800F00F0040B905480830F6
:10288000007800F0F000502801D1012070470020AE
:10289000FCE70000E00F00F070B504460D462A4644
:1028A0000021204600F00EF8A068401CA06070BD1A
:1028B00001468A68C868801A704701468A68C868F5
:1028C000801A704710B583680B44848823400468DD
:1028D000E35C137010BDC26883881A400368995482
:1028E000C268521CC26070477FB505460C4694F81A
:1028F000210094F82010CDE9001004F12602D11E29
:102900002846E36901F01DFB00B17FBD94F8230068
:1029100048BB207B022802D0207B032823D1E16919
:10292000206981421FD16069E061E07B84F820006A
:10293000207EC0F3401084F82100207B03280AD1B8
:1029400094F82100009094F8203029462046E2694E
:1029500001F088FB33E094F8203029462046E269F4
:1029600001F078FA2BE0D4E90412E06801AB07C368
:1029700094F82300A0B100BFD5F8C414C5F8C4145E
:1029800000BF084600F0020119B101218DF80010C6
:1029900005E000F0040111B102218DF8001002E001
:1029A00000208DF80000002084F82400207E00F034
:1029B000040018B96846D4E90021904700BF00BF61
:1029C000A3E700002DED088BCAB000BF002019E07E
:1029D0000121814001F4F01199B100BF01210A46A3
:1029E00000231D461E4641EA420747EA830747EA9D
:1029F000052747EA064CFE4F47F820C000BF00BF3E
:102A000000BF401C2028E3D300BF00BF4FF4F010EC
:102A1000F84908600020091D086000BF01F006FCAD
:102A200000F0CCFB00F03DFB0FE348A800F076FB84
:102A3000044600BF254635B100BFEFA2CC21284691
:102A4000FFF71AFD00BF00BFBDF82401EE49088062
:102A5000BDF82201ED490880BDF82001EC4908804D
:102A600046A800F075FB044600BF254635B100BFFF
:102A7000E1A2D5212846FFF7FFFC00BF00BFBDF84B
:102A80001C01E4490880BDF81A01E3490880BDF83B
:102A90001801E2490880002144A800F073FB0446B5
:102AA00000BF254635B100BFD3A2DD212846FFF780
:102AB000E3FC00BF00BFBDF81001D9490880BDF894
:102AC0001201D8490880BDF81401D74908800020B8
:102AD00041904290439041A807C82EAB07C300BF66
:102AE000D24B0FCBCDE93F23CDE93D013DA80FC827
:102AF000CDE92C23CDE92A0100BF2422CB49103196
:102B000034A8FDF7D5FC242234A921A8FDF7D0FC78
:102B100000BF002031903290339031A807C81EAB1F
:102B200007C300BFC14B3433D3E90020D3E90213FC
:102B3000CDE91C13CDE91A201AA80FC8CDE9182336
:102B4000CDE9160100BF0DAD16A80FC8CDE90B23C6
:102B5000CDE909019DED090A20EE000AB0EE408A98
:102B60009DED090ADDED0A0A20EE200AF0EE408A0A
:102B70009DED090ADDED0B0A20EE200AB0EE409A29
:102B80009DED090ADDED0C0A20EE200AF0EE409AD8
:102B90009DED0A0ADDED0B0A20EE200AB0EE40AAF8
:102BA0009DED0A0ADDED0C0A20EE200AF0EE40AAA7
:102BB0009DED0B0ADDED0C0A20EE200AB0EE40BAC6
:102BC000B6EE000A38EE400ADDED0A0A9DED0A1A5B
:102BD00000EE810AF0EE000A20EE200A8DED000AD8
:102BE0003AEE290AF0EE000A20EE200A8DED010AE5
:102BF0003AEEC90AF0EE000A20EE200A8DED020A34
:102C00003AEE690AF0EE000A20EE200A8DED030A82
:102C1000B6EE000A38EE400ADDED0B0A9DED0B1A08
:102C200000EE810AF0EE000A20EE200A8DED040A83
:102C30003BEE280AF0EE000A20EE200A8DED050A90
:102C40003AEE890AF0EE000A20EE200A8DED060A1F
:102C50003BEE680AF0EE000A20EE200A8DED070A2E
:102C6000B6EE000A38EE400ADDED0C0A9DED0C1AB6
:102C700000EE810AF0EE000A20EE200A8DED080A2F
:102C8000242269462846FDF713FC00BF00BF674BAE
:102C900044330FCBCDE91C23CDE91A011AA80FC884
:102CA000CDE91823CDE9160116A80FC8CDE91123E7
:102CB000CDE90F01DDED0F0A9DED0F1AB6EE000A0A
:102CC00010EE810AB0EE408A9DED111ADDED121A68
:102CD00021EE211ADDED0F1A9DED102A01EEC21A28
:102CE000B0EE410ADDED121A9DED122AB0EE481A3F
:102CF00001EE821AF0EE410AFFF71CF810EE105AAE
:102D00002846FDF759FC41EC1A0B9FED490B53EC9B
:102D1000102BFDF7DFFB41EC190BFDF760FC0C906D
:102D2000DDED100A9DED121A60EE810A9DED0F1A7D
:102D3000DDED111A41EE210AB0EE001A60EE810AB3
:102D4000B0EE600AFEF760FFFFEE000A20EE200AF8
:102D500010EE105A2846FDF72FFC41EC1A0B9FEDA0
:102D6000340B53EC102BFDF7B5FB41EC190BFDF7C1
:102D700036FC0D909DED101ADDED111A21EE211A91
:102D8000DDED0F1A9DED122A01EEC21AB0EE410AD6
:102D9000DDED101A9DED102AB0EE481A01EE821AF0
:102DA000F0EE410AFEF7C6FF10EE105A2846FDF776
:102DB00003FC41EC1A0B9FED1E0B53EC102BFDF79F
:102DC00089FB41EC190BFDF70AFC0E909DED0C0AF6
:102DD000DDED0D0A9DED0E1A8DED130ACDED140AF1
:102DE0008DED151A00BF9FED141AF3EE040A25E0CD
:102DF00000070050080500502E2E5C2E2E5C2E2E53
:102E00005C6D61696E2E63000000002002000020EE
:102E10000400002006000020080000200A00002016
:102E20000C0000200E00002010000020384600009A
:102E3000F8C1631ADCA54C4000008C42B6EE000AD3
:102E400030A8FDF74DFD00208049088000EE100AF3
:102E5000B8EEC00A8DED2D0A7D49088000EE100AFB
:102E6000B8EEC00A8DED2E0A7A49088000EE100AED
:102E7000B8EEC00A8DED2F0A7749088000EE100ADF
:102E8000B8EEC00A8DED2A0A7449088000EE100AD7
:102E9000B8EEC00A8DED2B0A01207149088000EEC2
:102EA000100AB8EEC00A8DED2C0A6E49088000EEBB
:102EB000100AB8EEC00A8DED270A00206A49088082
:102EC00000EE100AB8EEC00A8DED280A67490880A6
:102ED00000EE100AB8EEC00A8DED290ADFED644A53
:102EE0009DED294ADDED283A9DED273ADDED2C2AAE
:102EF0009DED2B2ADDED2A1A9DED2F1ADDED2E0A10
:102F00009DED2D0A30A8FDF747FD0020419042902D
:102F10004390DFED574A9DED434ADDED423A9DED8A
:102F2000413ADDED2C2A9DED2B2ADDED2A1A9DED8F
:102F30002F1ADDED2E0A9DED2D0A30A8FDF72CFD90
:102F400000203E903F9040903B903C903D90DFEDC4
:102F5000484A9DED3D4ADDED3C3A9DED3B3ADDEDC5
:102F6000402A9DED3F2ADDED3E1A9DED2F1ADDED45
:102F70002E0A9DED2D0A30A8FDF70EFD30A8FDF7B5
:102F800010FC8DED240ACDED250A8DED261A00BF2B
:102F900030A8FDF7D1FC30A8FDF7DCFC30A8FEF727
:102FA00067F99FED330A32213EA8FEF779FA002334
:102FB0001A4619463EA8FEF795FA3EA8FEF784FA8F
:102FC00000202549088000EE100AB8EEC00A8DEDF9
:102FD000410A2249088000EE100AB8EEC00A8DEDC1
:102FE000420A01201E49088000EE100AB8EEC00A0D
:102FF0008DED430A1B49088000EE100AB8EEC00AA6
:103000008DED3E0A00201849088000EE100AB8EE47
:10301000C00A8DED3F0A1549088000EE100AB8EE8F
:10302000C00A8DED400ADDED402A9DED3F2ADDED21
:103030003E1A9DED431ADDED420A9DED410AFEF771
:1030400031FBB0EE408A00BF00BFEEE40600002076
:10305000080000200A0000200000002002000020DC
:10306000040000200C0000200E00002010000020B2
:103070000AD7233C2DE9F04104460D4616461F466B
:1030800025703A463146601CFDF712FABDE8F08122
:1030900070B50446254604222946192000F004FA9A
:1030A00070BD70B500F00AF904460CB1204670BD41
:1030B00007252946682000F02DFA04460CB1204669
:1030C000F5E701216B2000F025FA04460CB12046FB
:1030D000EDE70020EBE770B5044625462978372058
:1030E00000F018FA70BDF8B5044601226946372091
:1030F00000F042F905469DF8000020F00200801C17
:1031000000906846FFF7E7FF05460DB12846F8BD79
:10311000264631780A2000F09DF9F8E77CB506468E
:10312000062269463B2000F027F905460DB12846E6
:103130007CBD3446002007E0C0F105011DF80110F8
:103140002170641C411CC8B20628F5DB0020EFE7A3
:103150007CB5064606226946432000F00DF9054677
:103160000DB128467CBD3446002007E0C0F10501C2
:103170001DF801102170641C411CC8B20628F5DB43
:103180000020EFE7F8B504460D460622214603204D
:1031900000F0B0F806460EB13046F8BD35B9012250
:1031A0006946092000F0A6F8064605E001222946F6
:1031B000092000F09FF806463046EEE77CB5FFF7A1
:1031C00070FF044600BF254635B100BF1BA2642135
:1031D0002846FFF751F900BF00BF1C480068019066
:1031E00013208DF804009DF8070020F018008DF8DA
:1031F000070001A8FFF74CFF044600BF254635B184
:1032000000BF0EA26C212846FFF736F900BF00BFB1
:103210009DF8000020F00F00801C00906846FFF72A
:1032200062FF044600BF254635B100BF03A27221EC
:103230002846FFF721F900BF00BF7CBD2E2E5C2E73
:103240002E5C2E2E5C6D61696E2E6300344600008C
:1032500070B50B4601461A46002907DA5407260EB8
:10326000104C01F00F052D1F665503E05407250E85
:103270000D4C655400BF00BF00F01F0201219140BA
:103280000A4A440942F8241000BF00BF00F01F02A0
:10329000012191404209920002F1E022C2F800119E
:1032A00000BF70BD18ED00E000E400E080E200E047
:1032B0000146C1F3073250B2704700001FB50A4BF8
:1032C0000FCB8DE80F000023084A6946084800F03C
:1032D0005DF9044614B1204604B010BD044800F066
:1032E00043F90020F8E7000094460000FD33000099
:1032F0008C460000F7B582B00E46174642F21074B5
:103300000020012302AA0C210090184800F0A2F925
:10331000054615B1284605B0F0BD00BF1448007839
:1033200010B9601E0400F9D10CB90D20F3E700209C
:103330000F490870FBB232460C210C4800F074F9BA
:1033400005460DB12846E6E742F2107400BF094871
:10335000007810B9601E0400F9D10CB90D20DAE72D
:103360000020044908702846D5E700008C4600007C
:10337000A2000020A3000020F7B582B00E46174639
:1033800042F210740020012302AA6821009018481C
:1033900000F060F9054615B1284605B0F0BD00BF44
:1033A0001448007810B9601E0400F9D10CB90D2042
:1033B000F3E700200F490870FBB2324668210C4841
:1033C00000F032F905460DB12846E6E742F21074E6
:1033D00000BF0948007810B9601E0400F9D10CB98B
:1033E0000D20DAE70020044908702846D5E70000E0
:1033F0008C460000A2000020A3000020027822B129
:10340000012A1ED0022A1ED11CE0027932B1012A03
:103410000CD0022A0ED0032A10D103E001220B4B5C
:103420001A700CE00122094B1A7008E00122084BC7
:103430001A7004E00122064B1A7000E000BF00BFC2
:1034400002E001E000E000BF00BF7047A2000020E2
:10345000A30000202DE9FC4104460D4642F21077FE
:103460008DF804408DF805500020022301AA0C219C
:1034700000900B4800F0EEF8064616B13046BDE865
:10348000FC8100BF0748007810B9781E0700F9D109
:103490000FB90D20F3E70020024908703046EEE72F
:1034A0008C460000A20000202DE9FE4305460E4692
:1034B000144642F210772346324629461248FFF757
:1034C000D9FD68208DF8010000208DF80000601CF7
:1034D000C0B28DF802000C480190002269460B48EA
:1034E00000F0D6F8804600BF0948007810B9781E71
:1034F0000700F9D117B90D20BDE8FE83002004496B
:1035000008704046F8E70000B40100208C46000037
:10351000A20000202DE9FC4104460D4642F210773E
:103520008DF804408DF805500020022301AA68217F
:1035300000900B4800F08EF8064616B13046BDE804
:10354000FC8100BF0748007810B9781E0700F9D148
:103550000FB90D20F3E70020024908703046EEE76E
:103560008C460000A2000020027902EB8202064B8A
:1035700003EBC201026800BF0523C2F8003500BF9B
:10358000022281F822207047E40100202DE9F04753
:1035900006460C4617469846307900EB80001F49D6
:1035A00001EBC00595F8220010B10820BDE8F087B6
:1035B0001CB930791A4901EB00142F60C5F804805A
:1035C0000020A86085F8250085F8240021463046B3
:1035D00000F0D4FB40F20C611248226840F822103F
:1035E000626840F822103068D4E90012C0F808156B
:1035F000C0F80C2500BFA168C0F8241500BF2868DA
:1036000030B13068FFF754FE8146217BFFF720FE82
:10361000012085F822000020C8E70000E401002016
:10362000E446000000070050FEB507460C4615466C
:103630001E46074A07CA8DE807008DF801408DF83D
:103640000260019500226946384600F021F8FEBD6F
:10365000F44600002DE9FE4307460C4615461E467B
:10366000DDF8288000200090019002908DF8014044
:103670008DF802600195B8F1000F01D0202000E024
:10368000002002466946384600F002F8BDE8FE8395
:103690002DE9F04104460E4615460027207900EB3F
:1036A0008000094901EBC00805F0030010B10620B5
:1036B000BDE8F0812B4632464046216800F028FDE7
:1036C00007463846F4E70000E401002070B50446E0
:1036D0000D463148C07E08B1082070BD04B92F4C9A
:1036E000607F2D4908772046FEF7ACFF2A484560E9
:1036F0002949206908600846406880B3267F08464B
:10370000007FC0B14FF48871254800F0ACFA4FF447
:103710009071234800F0A7FA4FF49271204800F00E
:10372000A2FA4FF4A2711E4800F09DFA1D491C48F0
:1037300000F0A5FA0DE04FF48E71194800F067FA19
:103740004FF4A271164800F062FA1749144800F0CD
:1037500069FA31460220FFF77BFD00BF00BF00BFC2
:103760000D48007F28B100BF08201049086000BF45
:1037700005E000BF04200D49086000BF00BF00BF86
:1037800000200549C875087688750120C876002094
:10379000887600BFA1E700000C020020004700006F
:1037A00000200040100302008000020000250040BD
:1037B00070B504460D462848007F30B1200C000447
:1037C000B0F1005F01D0102070BD00262248406893
:1037D00068B12148007F28B14FF404711F4800F000
:1037E0004BFA04E04FF401711C4800F018FA1A4833
:1037F000C07DB0B11848007E90B11748406868B1EC
:103800001548007F28B14FF40471144800F037FACE
:1038100004E04FF40171114800F004FA1120D3E7DD
:1038200001263EB90C48C575C46000200A49487697
:10383000087602E00848046105760748007F28B151
:1038400032462946204600F075F8BDE73246294643
:10385000204600F015F8B7E70C02002000200040D9
:1038600010B50648007F38B90448807E20B900F0C2
:1038700053FA01200149887610BD00000C02002097
:103880002DE9F0478046894616462848807E10B9C3
:103890000EB900F041FA2548406800283FD14FF4A6
:1038A000A271234800F0B3F900BF00BF4FF492713A
:1038B0001F4800F0A5F905464FF484711C4800F03C
:1038C0009FF907464FF4A271194800F099F9044690
:1038D00017B90CB9002DE9D005B904B107E000F023
:1038E000E1F91248C07D1149497E8842DDDC00BF04
:1038F00000200E49C87515B10320BDE8F0870CB152
:103900000F20FAE70948807E20B10021084800F026
:1039100095F903E00421064800F090F904E04FF423
:103920000171034800F07EF90020E6E70C02002058
:10393000002000402DE9F04704460D4690464FF424
:103940008871264800F08FF94FF4A271234800F0E7
:103950008AF92248C0F834454FF4A7610D5000BFE2
:10396000B8F1000F03D1002100F091F908E0202008
:103970001B4909680143194AC2F8001200BF00BF81
:103980001848406818BB00BF4FF48871134800F016
:1039900063F981464FF4A271104800F05DF90746C3
:1039A0004FF492710D4800F057F90646B9F1000F37
:1039B00002D10FB9002EE7D000200A49C87516B110
:1039C0000320BDE8F0870FB10F20FAE704E04FF4C1
:1039D0000471024800F053F90020F2E70020004093
:1039E000002200400C02002070B504460D460F482E
:1039F000007F30B1200C0004B0F1005F01D0102036
:103A000070BD00F093F808B11120F9E707488575FB
:103A100084600020054988820846007F10B100F0CC
:103A20004DF8EDE700F004F8EAE700000C02002092
:103A300010B500244FF48E711E4800F0E8F80821FC
:103A40001C4800F0FBF800F0BFFB1B48406878BB47
:103A500012E000BF4FF48E71164800F0D1F820B983
:103A60001548808AB0F5807FF4D11348808AB0F57C
:103A7000807F01D000F0A8FB0F48808A0E49897D25
:103A80008842E6DB0C48808AB0F5807F01D10F24A4
:103A90000BE000BF4FF48E71064800F0B1F800282B
:103AA000F8D00C21034800F0C9F8002002498875BD
:103AB000204610BD002000400C02002070B50026FA
:103AC0004FF49071174800F0CEF84FF4AC711548E0
:103AD00000F0C9F81348144B99689A7DC0F8441552
:103AE0004FF4A9631A5000BF082100F0D0F80E4827
:103AF0004068A8B900BF4FF490710A4800F0ACF8D4
:103B000005464FF4AC71074800F0A6F804460DB91D
:103B1000002CF0D004B10F2600200349887500BFA7
:103B2000304670BD002000400C0200200348807D1C
:103B300008B1012070470020FCE700000C020020C3
:103B4000F0B5DDE9054541EA420646EA830646EA64
:103B5000042646EA0547024E46F82070F0BD0000F4
:103B6000000700507CB505460C4600200090234617
:103B70000246014601902846FFF7E2FF7CBD1CB5D6
:103B80000446002000900346012211460190204681
:103B9000FFF7D6FF1CBD000001218140014A1160E2
:103BA000704700000C05005001218140014A11605E
:103BB000704700000805005001218140014A116052
:103BC00070470000080500500246505808B1012017
:103BD00070470020FCE7002242507047C0F80813ED
:103BE0007047C0F804137047C0F8001270470122F4
:103BF000425070470146D1F88004C1F880047047F4
:103C00000246505808B1012070470020FCE700220E
:103C100042507047C0F80815C0F810257047C0F82A
:103C200008137047C0F8041370470246D2F8040323
:103C3000084008B1012070470020FCE701224250F3
:103C40007047C0F80C15C0F8142570470146D1F82C
:103C50008004C1F8800470470246505808B1012022
:103C600070470020FCE7002242507047C0F808155A
:103C70004FF4A2631A507047C0F808137047C0F899
:103C800004137047014640F23C50405870470122EF
:103C90004250704740F20C53195040F214531A50DE
:103CA0007047000010B51048C07D40B94FF48471D2
:103CB0000E48FFF7ACFF00BF0D48006810BD4FF481
:103CC00084710A48FFF7A3FF00BF09480068C0B22B
:103CD0000549C968044A527E88540348407E401C06
:103CE0000149487600BFE9E70C02002000200040AF
:103CF000182500407FB504460D4601208DF80000D0
:103D00008DF808400195034801684268684690476D
:103D10007FBD00000C02002010B54FF492710648E0
:103D2000FFF775FF4FF484710348FFF770FF002120
:103D30000148FFF783FF10BD0020004010B500EEE2
:103D4000100A2DED028BB1EEC08A18EE100A20F099
:103D50000040C0F1FF40C00F0AD010EE100A20F062
:103D60000040C0F1FF40C00F04BF0120FEF768FB18
:103D700018EE100ABDEC028B10BD000070B50646AF
:103D80000C4640F20C611E48226840F8221062681E
:103D900040F822102068FFF707FF6068FFF704FF74
:103DA00040F20D611648226840F82210626840F81F
:103DB0002210002516E0606812490968C14001F030
:103DC000010111B105B970BD0EE02068FFF7E4FEF6
:103DD0000420FCF71FFB2068FFF7E6FE0420FCF739
:103DE00019FB6D1C092DE6DB00BF6068FFF7D4FEF0
:103DF0000420FCF70FFB6068FFF7D6FE00BFE2E788
:103E000000070050100500502DE9F04106460F460E
:103E100015461C462078A8421ADA00BFD6F81805C5
:103E2000C0B2217878542078401C20702178681E18
:103E3000814204D102213046FFF7D6FE04E020780B
:103E4000A84201D1BDE8F08120213046FFF7CFFE26
:103E500000BFF7E72DE9FC4104460E4617461D4614
:103E60004FF000084FF482713046FFF7B4FE4FF474
:103E700092713046FFF7AFFE4FF48E713046FFF778
:103E8000AAFE4FF484713046FFF7A5FE002084F8A7
:103E9000260084F82300012D04D102213046FFF7CB
:103EA000A3FE03E001213046FFF79EFE20213046AD
:103EB000FFF79DFE00213046FFF799FE206838B1DC
:103EC00040F28620A060A1683046FFF78AFE11E02C
:103ED00000BF00203B4604F12602D11ECDE9005070
:103EE000304600F02EF80028F3D194F8230008B1F2
:103EF0004FF003084046BDE8FC812DE9F04105463E
:103F00000E4617461C46DDF818802078B84208DABD
:103F10002178705CC5F81C0500BF2078401C20701B
:103F20000DE0B8F1000F06D01C212846FFF75FFE18
:103F30000020BDE8F08114212846FFF758FE01203B
:103F4000F7E72DE9F84F81460C4615461F46DDE997
:103F50000A8A2078012802D02878404501D101261C
:103F600000E00026207878B14FF492714846FFF7C0
:103F700032FE4FF48E714846FFF72DFE4FF48471E8
:103F80004846FFF728FE5DE04FF492714846FFF780
:103F90001BFE58B14FF492714846FFF71CFE1421E6
:103FA0004846FFF724FE012020704BE04FF48E714D
:103FB0004846FFF709FE10B34FF48E714846FFF7ED
:103FC0000AFE4FF492714846FFF7FEFD58B14FF4D8
:103FD00092714846FFF7FFFD14214846FFF707FEA0
:103FE000012020702EE02B46424639464846CDF847
:103FF00000A0FFF782FF28BB0020BDE8F88F4FF438
:1040000084714846FFF7E0FDE0B14FF48471484603
:10401000FFF7E1FD4FF492714846FFF7D5FD58B127
:104020004FF492714846FFF7D6FD14214846FFF73A
:10403000DEFD0120207005E02B4642463946484609
:10404000FFF7E2FE66B14FF482714846FFF7BCFD10
:1040500030B14FF482714846FFF7BDFD0020CCE738
:104060000120CAE72DE9FC4704460F4615461E46C7
:10407000DDF828804FF000094FF482713846FFF7D1
:10408000AAFD4FF492713846FFF7A5FD4FF48E71EB
:104090003846FFF7A0FD4FF484713846FFF79BFDCB
:1040A00000213846FFF7A0FD002084F8260084F8A0
:1040B000230020213846FFF79AFD08213846FFF7F4
:1040C00096FD04F12603324629463846CDF8008095
:1040D000FFF713FF206838B140F28620A060A16886
:1040E0003846FFF77EFD10E000BF2B4604F12602A4
:1040F000D11E3846CDE90068FFF723FF0028F4D130
:1041000094F8230008B14FF003094846BDE8FC8746
:104110002DE9F84304460F4615461E464FF00008A9
:104120004FF0FF313846FFF759FD94F8240030B1C5
:10413000A1683846FFF755FD1120BDE8F88306F069
:10414000040008B9012000E0002084F8240006F0F3
:10415000080008B10620F0E7A66195E80700C4E969
:104160000412E060A87884F820006868E06168784C
:10417000C7F8880500BF2878012814D0287810B91E
:1041800006F0200008B1012000E0002084F82100A2
:1041900094F821000090AB78394620466A68FFF712
:1041A00061FF804609E0002084F82100AB783946A1
:1041B00020466A68FFF74EFE8046206810B900204E
:1041C00084F824004046B8E710B54FF48E710948D2
:1041D000FFF71DFD084880680749898A445C064846
:1041E000808A401C0449888220460449086000BF38
:1041F00010BD0000002000400C0200201C250040E3
:104200001FB5044600208DF800008DF808400648D0
:10421000806801900020044988750846016842685A
:10422000684690471FBD00000C02002030B587B0E3
:10423000114A07CA04AB07C300BF10480090012011
:1042400001900F4802904FF48070039006230D4AAE
:10425000694604A8FEF790F9044600BF00BF254652
:1042600035B100BF08A25B212846FEF705F900BF63
:1042700000BF07B030BD000028460000A1000020AC
:10428000B4000020594300002E2E5C2E2E5C2E2EF2
:104290005C6D61696E2E63007CB504460E46207825
:1042A000012827D1606801782648FEF754F90546B1
:1042B00045B101208DF80000019568462249096842
:1042C00088470BE01F48FEF7F3FA012806D10020CB
:1042D0008DF8000068461C49096888471948FEF7B0
:1042E000E7FA18498988884203D801211748FFF75F
:1042F0005FFA25E0207802280CD18DF80000E068F4
:10430000019001211148FFF753FA68460E490968E8
:10431000884715E0207898B90D490E48FEF7FAF85D
:1043200018B901210A48FFF75FFB0A48FEF7C0FAF7
:1043300030B903208DF800006846034909688847B2
:104340007CBD0000C4010020A4000020A9000020C2
:10435000A8000020D401002010B5044620780128D0
:1043600009D002280FD100BF08A236216068FEF7ED
:1043700083F800BF08E000BF04A23A216068FEF79E
:104380007BF800BF00E000BF00BF10BD2E2E5C2EEA
:104390002E5C2E2E5C6D61696E2E63007FB54FF42E
:1043A00000715448FFF741FC68B34FF492715148D3
:1043B000FFF726FC38B34FF492714E48FFF727FC05
:1043C0004FF401714B48FFF72AFC4B48807E18B927
:1043D00004214848FFF732FC02208DF800004548D0
:1043E000FFF708FC03904448C17D8DF80810C068B1
:1043F000019000204049C875087608460168426867
:10440000684690473CE004213A48FFF70EFC00283C
:1044100036D04FF484713748FFF7F2FB00282FD0D5
:10442000FFF740FC3448C07D3349497E884227D19C
:104430003148007E80B13048C468457E007E2E49F8
:10444000C87508460069C86000200876487621468D
:104450002846FFF74FFC13E02748807E18B9042157
:104460002448FFF7EBFB4FF401712248FFF7D7FB1D
:1044700000202149C8750A46D168507EFFF73AFCF2
:104480004FF48E711B48FFF7BBFBA0B11A48808A1E
:104490001949897D884202DAFFF796FE0BE04FF456
:1044A0008E711448FFF7B3FB1348807D18B1124991
:1044B000887DFFF7A5FE4FF4A2710E48FFF7A0FB21
:1044C000B0B14FF4A2710B48FFF7A1FB0A48807E00
:1044D00018B100210748FFF7B1FB0748C07D38B18C
:1044E00000200549C8750A46D168507EFFF702FCD6
:1044F0007FBD0000002000400C0200207FB54FF47B
:1045000092714648FFF7A8FBF0B14FF4927143480F
:10451000FFF7A9FB02208DF800004048FFF796FB4B
:1045200003903E48FFF7AEFBC1B28DF808103C483F
:10453000C068019000203A49C875087608460168AD
:1045400042686846904737E04FF488713348FFF778
:1045500083FB002830D04FF488713048FFF783FB8D
:104560002E48FFF78FFBC4B22D48C07DA04222D158
:104570002B48007EB8B12A48C5682020294909681F
:104580008143264AC2F8001200BF2548007E244914
:10459000C87508460069C86000200876294620468C
:1045A000FFF7A8FB07E000201D49C8750846C16851
:1045B0002046FFF79FFB00BF4FF4A2711748FFF79B
:1045C0004BFB98B14FF4A2711448FFF74CFB144811
:1045D000C07D58B100201249C8751048FFF752FB42
:1045E000C4B20F48C1682046FFF784FB4FF49071B6
:1045F0000A48FFF731FB78B14FF490710748FFF795
:1046000032FB0748807D38B1044840F24C510958CC
:10461000CCB22046FFF7F4FD7FBD00000020004033
:104620000C020020002200400806050700000000E0
:1046300000E0D701070118180000803F00000000CB
:1046400000000000000000000000803F00000000AB
:1046500000000000000000000000803F000000009B
:1046600000000000000000000000803F0000803FCC
:104670000000000000000000000000000000803F7B
:1046800000000000000000000000000000300040BA
:1046900000000000030000000400000000006806A5
:1046A000020000000000803F000000000000000049
:1046B000000000000000803F00000000000000003B
:1046C00000000000060000000800000007000000D5
:1046D00005000000000000000000000000009D0038
:1046E000060000001B0000001A00000000009801F6
:1046F00006000000010000000000000000000000B3
:10470000060000000800000007000000050000008F
:10471000000000000000000000009D0006000000F6
:10472000000000006E83F9A22915444ED15727FCE2
:10473000C0DD34F5999562DB4190433CAB6351FE9B
:104740006047000000000020B400000020240000AA
:1047500014480000B40000209C2100003024000018
:104760000000000000000000000000000000000049
:104770000000000000000000000000000000000039
:104780000000000000000000000000000000000029
:104790000000000000000000000000000000000019
:1047A0000000000000000000000000000000000009
:1047B00000000000000000000000000000000000F9
:1047C00000000000000000000000803F000000002A
:1047D0000000000000000000DB0F49400000000066
:1047E00000000000000000000000000000000000C9
:1047F00000000000000000000000000000000000B9
:104800000000000000000000000000000090D00345
:0448100000000000A4
:0400000500000401F2
:00000001FF
